{
	"contracts/CallingContracts.sol": {
		"Caller": {
			"abi": [
				{
					"anonymous": false,
					"inputs": [
						{
							"indexed": false,
							"internalType": "uint256",
							"name": "x",
							"type": "uint256"
						}
					],
					"name": "SetX",
					"type": "event"
				},
				{
					"anonymous": false,
					"inputs": [
						{
							"indexed": false,
							"internalType": "uint256",
							"name": "x",
							"type": "uint256"
						},
						{
							"indexed": false,
							"internalType": "uint256",
							"name": "value",
							"type": "uint256"
						}
					],
					"name": "SetXAndSendEther",
					"type": "event"
				},
				{
					"inputs": [
						{
							"internalType": "contract Callee",
							"name": "_callee",
							"type": "address"
						},
						{
							"internalType": "uint256",
							"name": "_x",
							"type": "uint256"
						}
					],
					"name": "setX",
					"outputs": [],
					"stateMutability": "nonpayable",
					"type": "function"
				},
				{
					"inputs": [
						{
							"internalType": "contract Callee",
							"name": "_callee",
							"type": "address"
						},
						{
							"internalType": "uint256",
							"name": "_x",
							"type": "uint256"
						}
					],
					"name": "setXandsendEther",
					"outputs": [],
					"stateMutability": "payable",
					"type": "function"
				}
			],
			"devdoc": {
				"kind": "dev",
				"methods": {},
				"version": 1
			},
			"evm": {
				"assembly": "    /* \"contracts/CallingContracts.sol\":390:866  contract Caller {... */\n  mstore(0x40, 0x80)\n  callvalue\n  dup1\n  iszero\n  tag_1\n  jumpi\n  0x00\n  dup1\n  revert\ntag_1:\n  pop\n  dataSize(sub_0)\n  dup1\n  dataOffset(sub_0)\n  0x00\n  codecopy\n  0x00\n  return\nstop\n\nsub_0: assembly {\n        /* \"contracts/CallingContracts.sol\":390:866  contract Caller {... */\n      mstore(0x40, 0x80)\n      jumpi(tag_1, lt(calldatasize, 0x04))\n      shr(0xe0, calldataload(0x00))\n      dup1\n      0x4a2ad99f\n      eq\n      tag_2\n      jumpi\n      dup1\n      0x51e1f605\n      eq\n      tag_3\n      jumpi\n    tag_1:\n      0x00\n      dup1\n      revert\n        /* \"contracts/CallingContracts.sol\":489:625  function setX(Callee _callee, uint _x) public {... */\n    tag_2:\n      callvalue\n      dup1\n      iszero\n      tag_4\n      jumpi\n      0x00\n      dup1\n      revert\n    tag_4:\n      pop\n      tag_5\n      0x04\n      dup1\n      calldatasize\n      sub\n      dup2\n      add\n      swap1\n      tag_6\n      swap2\n      swap1\n      tag_7\n      jump\t// in\n    tag_6:\n      tag_8\n      jump\t// in\n    tag_5:\n      stop\n        /* \"contracts/CallingContracts.sol\":633:863  function setXandsendEther(Callee _callee, uint _x) public payable {... */\n    tag_3:\n      tag_9\n      0x04\n      dup1\n      calldatasize\n      sub\n      dup2\n      add\n      swap1\n      tag_10\n      swap2\n      swap1\n      tag_7\n      jump\t// in\n    tag_10:\n      tag_11\n      jump\t// in\n    tag_9:\n      stop\n        /* \"contracts/CallingContracts.sol\":489:625  function setX(Callee _callee, uint _x) public {... */\n    tag_8:\n        /* \"contracts/CallingContracts.sol\":546:552  uint x */\n      0x00\n        /* \"contracts/CallingContracts.sol\":555:562  _callee */\n      dup3\n        /* \"contracts/CallingContracts.sol\":555:567  _callee.setX */\n      0xffffffffffffffffffffffffffffffffffffffff\n      and\n      0x4018d9aa\n        /* \"contracts/CallingContracts.sol\":568:570  _x */\n      dup4\n        /* \"contracts/CallingContracts.sol\":555:571  _callee.setX(_x) */\n      mload(0x40)\n      dup3\n      0xffffffff\n      and\n      0xe0\n      shl\n      dup2\n      mstore\n      0x04\n      add\n      tag_13\n      swap2\n      swap1\n      tag_14\n      jump\t// in\n    tag_13:\n      0x20\n      mload(0x40)\n      dup1\n      dup4\n      sub\n      dup2\n      0x00\n      dup8\n      gas\n      call\n      iszero\n      dup1\n      iszero\n      tag_16\n      jumpi\n      returndatasize\n      0x00\n      dup1\n      returndatacopy\n      revert(0x00, returndatasize)\n    tag_16:\n      pop\n      pop\n      pop\n      pop\n      mload(0x40)\n      returndatasize\n      not(0x1f)\n      0x1f\n      dup3\n      add\n      and\n      dup3\n      add\n      dup1\n      0x40\n      mstore\n      pop\n      dup2\n      add\n      swap1\n      tag_17\n      swap2\n      swap1\n      tag_18\n      jump\t// in\n    tag_17:\n        /* \"contracts/CallingContracts.sol\":546:571  uint x = _callee.setX(_x) */\n      swap1\n      pop\n        /* \"contracts/CallingContracts.sol\":587:594  SetX(x) */\n      0x117da416e4d9e92d4881eefcc602d159bfcdf2184ec754f768cbbac61bb1a214\n        /* \"contracts/CallingContracts.sol\":592:593  x */\n      dup2\n        /* \"contracts/CallingContracts.sol\":587:594  SetX(x) */\n      mload(0x40)\n      tag_19\n      swap2\n      swap1\n      tag_14\n      jump\t// in\n    tag_19:\n      mload(0x40)\n      dup1\n      swap2\n      sub\n      swap1\n      log1\n        /* \"contracts/CallingContracts.sol\":535:625  {... */\n      pop\n        /* \"contracts/CallingContracts.sol\":489:625  function setX(Callee _callee, uint _x) public {... */\n      pop\n      pop\n      jump\t// out\n        /* \"contracts/CallingContracts.sol\":633:863  function setXandsendEther(Callee _callee, uint _x) public payable {... */\n    tag_11:\n        /* \"contracts/CallingContracts.sol\":711:717  uint x */\n      0x00\n        /* \"contracts/CallingContracts.sol\":719:729  uint value */\n      dup1\n        /* \"contracts/CallingContracts.sol\":733:740  _callee */\n      dup4\n        /* \"contracts/CallingContracts.sol\":733:757  _callee.setXandsendEther */\n      0xffffffffffffffffffffffffffffffffffffffff\n      and\n      0x40818020\n        /* \"contracts/CallingContracts.sol\":765:774  msg.value */\n      callvalue\n        /* \"contracts/CallingContracts.sol\":776:778  _x */\n      dup6\n        /* \"contracts/CallingContracts.sol\":733:779  _callee.setXandsendEther{value: msg.value}(_x) */\n      mload(0x40)\n      dup4\n      0xffffffff\n      and\n      0xe0\n      shl\n      dup2\n      mstore\n      0x04\n      add\n      tag_21\n      swap2\n      swap1\n      tag_14\n      jump\t// in\n    tag_21:\n      0x40\n      dup1\n      mload\n      dup1\n      dup4\n      sub\n      dup2\n      dup6\n      dup9\n      gas\n      call\n      iszero\n      dup1\n      iszero\n      tag_23\n      jumpi\n      returndatasize\n      0x00\n      dup1\n      returndatacopy\n      revert(0x00, returndatasize)\n    tag_23:\n      pop\n      pop\n      pop\n      pop\n      pop\n      mload(0x40)\n      returndatasize\n      not(0x1f)\n      0x1f\n      dup3\n      add\n      and\n      dup3\n      add\n      dup1\n      0x40\n      mstore\n      pop\n      dup2\n      add\n      swap1\n      tag_24\n      swap2\n      swap1\n      tag_25\n      jump\t// in\n    tag_24:\n        /* \"contracts/CallingContracts.sol\":710:779  (uint x, uint value) = _callee.setXandsendEther{value: msg.value}(_x) */\n      swap2\n      pop\n      swap2\n      pop\n        /* \"contracts/CallingContracts.sol\":795:821  SetXAndSendEther(x, value) */\n      0xdf13bbc627e55aac47555060cb708ba49f740ef2593578905baf5da436689f61\n        /* \"contracts/CallingContracts.sol\":812:813  x */\n      dup3\n        /* \"contracts/CallingContracts.sol\":815:820  value */\n      dup3\n        /* \"contracts/CallingContracts.sol\":795:821  SetXAndSendEther(x, value) */\n      mload(0x40)\n      tag_26\n      swap3\n      swap2\n      swap1\n      tag_27\n      jump\t// in\n    tag_26:\n      mload(0x40)\n      dup1\n      swap2\n      sub\n      swap1\n      log1\n        /* \"contracts/CallingContracts.sol\":699:863  {... */\n      pop\n      pop\n        /* \"contracts/CallingContracts.sol\":633:863  function setXandsendEther(Callee _callee, uint _x) public payable {... */\n      pop\n      pop\n      jump\t// out\n        /* \"#utility.yul\":88:205   */\n    tag_29:\n        /* \"#utility.yul\":197:198   */\n      0x00\n        /* \"#utility.yul\":194:195   */\n      dup1\n        /* \"#utility.yul\":187:199   */\n      revert\n        /* \"#utility.yul\":334:460   */\n    tag_31:\n        /* \"#utility.yul\":371:378   */\n      0x00\n        /* \"#utility.yul\":411:453   */\n      0xffffffffffffffffffffffffffffffffffffffff\n        /* \"#utility.yul\":404:409   */\n      dup3\n        /* \"#utility.yul\":400:454   */\n      and\n        /* \"#utility.yul\":389:454   */\n      swap1\n      pop\n        /* \"#utility.yul\":334:460   */\n      swap2\n      swap1\n      pop\n      jump\t// out\n        /* \"#utility.yul\":466:562   */\n    tag_32:\n        /* \"#utility.yul\":503:510   */\n      0x00\n        /* \"#utility.yul\":532:556   */\n      tag_47\n        /* \"#utility.yul\":550:555   */\n      dup3\n        /* \"#utility.yul\":532:556   */\n      tag_31\n      jump\t// in\n    tag_47:\n        /* \"#utility.yul\":521:556   */\n      swap1\n      pop\n        /* \"#utility.yul\":466:562   */\n      swap2\n      swap1\n      pop\n      jump\t// out\n        /* \"#utility.yul\":568:677   */\n    tag_33:\n        /* \"#utility.yul\":618:625   */\n      0x00\n        /* \"#utility.yul\":647:671   */\n      tag_49\n        /* \"#utility.yul\":665:670   */\n      dup3\n        /* \"#utility.yul\":647:671   */\n      tag_32\n      jump\t// in\n    tag_49:\n        /* \"#utility.yul\":636:671   */\n      swap1\n      pop\n        /* \"#utility.yul\":568:677   */\n      swap2\n      swap1\n      pop\n      jump\t// out\n        /* \"#utility.yul\":683:831   */\n    tag_34:\n        /* \"#utility.yul\":769:806   */\n      tag_51\n        /* \"#utility.yul\":800:805   */\n      dup2\n        /* \"#utility.yul\":769:806   */\n      tag_33\n      jump\t// in\n    tag_51:\n        /* \"#utility.yul\":762:767   */\n      dup2\n        /* \"#utility.yul\":759:807   */\n      eq\n        /* \"#utility.yul\":749:825   */\n      tag_52\n      jumpi\n        /* \"#utility.yul\":821:822   */\n      0x00\n        /* \"#utility.yul\":818:819   */\n      dup1\n        /* \"#utility.yul\":811:823   */\n      revert\n        /* \"#utility.yul\":749:825   */\n    tag_52:\n        /* \"#utility.yul\":683:831   */\n      pop\n      jump\t// out\n        /* \"#utility.yul\":837:1002   */\n    tag_35:\n        /* \"#utility.yul\":896:901   */\n      0x00\n        /* \"#utility.yul\":934:940   */\n      dup2\n        /* \"#utility.yul\":921:941   */\n      calldataload\n        /* \"#utility.yul\":912:941   */\n      swap1\n      pop\n        /* \"#utility.yul\":950:996   */\n      tag_54\n        /* \"#utility.yul\":990:995   */\n      dup2\n        /* \"#utility.yul\":950:996   */\n      tag_34\n      jump\t// in\n    tag_54:\n        /* \"#utility.yul\":837:1002   */\n      swap3\n      swap2\n      pop\n      pop\n      jump\t// out\n        /* \"#utility.yul\":1008:1085   */\n    tag_36:\n        /* \"#utility.yul\":1045:1052   */\n      0x00\n        /* \"#utility.yul\":1074:1079   */\n      dup2\n        /* \"#utility.yul\":1063:1079   */\n      swap1\n      pop\n        /* \"#utility.yul\":1008:1085   */\n      swap2\n      swap1\n      pop\n      jump\t// out\n        /* \"#utility.yul\":1091:1213   */\n    tag_37:\n        /* \"#utility.yul\":1164:1188   */\n      tag_57\n        /* \"#utility.yul\":1182:1187   */\n      dup2\n        /* \"#utility.yul\":1164:1188   */\n      tag_36\n      jump\t// in\n    tag_57:\n        /* \"#utility.yul\":1157:1162   */\n      dup2\n        /* \"#utility.yul\":1154:1189   */\n      eq\n        /* \"#utility.yul\":1144:1207   */\n      tag_58\n      jumpi\n        /* \"#utility.yul\":1203:1204   */\n      0x00\n        /* \"#utility.yul\":1200:1201   */\n      dup1\n        /* \"#utility.yul\":1193:1205   */\n      revert\n        /* \"#utility.yul\":1144:1207   */\n    tag_58:\n        /* \"#utility.yul\":1091:1213   */\n      pop\n      jump\t// out\n        /* \"#utility.yul\":1219:1358   */\n    tag_38:\n        /* \"#utility.yul\":1265:1270   */\n      0x00\n        /* \"#utility.yul\":1303:1309   */\n      dup2\n        /* \"#utility.yul\":1290:1310   */\n      calldataload\n        /* \"#utility.yul\":1281:1310   */\n      swap1\n      pop\n        /* \"#utility.yul\":1319:1352   */\n      tag_60\n        /* \"#utility.yul\":1346:1351   */\n      dup2\n        /* \"#utility.yul\":1319:1352   */\n      tag_37\n      jump\t// in\n    tag_60:\n        /* \"#utility.yul\":1219:1358   */\n      swap3\n      swap2\n      pop\n      pop\n      jump\t// out\n        /* \"#utility.yul\":1364:1864   */\n    tag_7:\n        /* \"#utility.yul\":1445:1451   */\n      0x00\n        /* \"#utility.yul\":1453:1459   */\n      dup1\n        /* \"#utility.yul\":1502:1504   */\n      0x40\n        /* \"#utility.yul\":1490:1499   */\n      dup4\n        /* \"#utility.yul\":1481:1488   */\n      dup6\n        /* \"#utility.yul\":1477:1500   */\n      sub\n        /* \"#utility.yul\":1473:1505   */\n      slt\n        /* \"#utility.yul\":1470:1589   */\n      iszero\n      tag_62\n      jumpi\n        /* \"#utility.yul\":1508:1587   */\n      tag_63\n      tag_29\n      jump\t// in\n    tag_63:\n        /* \"#utility.yul\":1470:1589   */\n    tag_62:\n        /* \"#utility.yul\":1628:1629   */\n      0x00\n        /* \"#utility.yul\":1653:1719   */\n      tag_64\n        /* \"#utility.yul\":1711:1718   */\n      dup6\n        /* \"#utility.yul\":1702:1708   */\n      dup3\n        /* \"#utility.yul\":1691:1700   */\n      dup7\n        /* \"#utility.yul\":1687:1709   */\n      add\n        /* \"#utility.yul\":1653:1719   */\n      tag_35\n      jump\t// in\n    tag_64:\n        /* \"#utility.yul\":1643:1719   */\n      swap3\n      pop\n        /* \"#utility.yul\":1599:1729   */\n      pop\n        /* \"#utility.yul\":1768:1770   */\n      0x20\n        /* \"#utility.yul\":1794:1847   */\n      tag_65\n        /* \"#utility.yul\":1839:1846   */\n      dup6\n        /* \"#utility.yul\":1830:1836   */\n      dup3\n        /* \"#utility.yul\":1819:1828   */\n      dup7\n        /* \"#utility.yul\":1815:1837   */\n      add\n        /* \"#utility.yul\":1794:1847   */\n      tag_38\n      jump\t// in\n    tag_65:\n        /* \"#utility.yul\":1784:1847   */\n      swap2\n      pop\n        /* \"#utility.yul\":1739:1857   */\n      pop\n        /* \"#utility.yul\":1364:1864   */\n      swap3\n      pop\n      swap3\n      swap1\n      pop\n      jump\t// out\n        /* \"#utility.yul\":1870:1988   */\n    tag_39:\n        /* \"#utility.yul\":1957:1981   */\n      tag_67\n        /* \"#utility.yul\":1975:1980   */\n      dup2\n        /* \"#utility.yul\":1957:1981   */\n      tag_36\n      jump\t// in\n    tag_67:\n        /* \"#utility.yul\":1952:1955   */\n      dup3\n        /* \"#utility.yul\":1945:1982   */\n      mstore\n        /* \"#utility.yul\":1870:1988   */\n      pop\n      pop\n      jump\t// out\n        /* \"#utility.yul\":1994:2216   */\n    tag_14:\n        /* \"#utility.yul\":2087:2091   */\n      0x00\n        /* \"#utility.yul\":2125:2127   */\n      0x20\n        /* \"#utility.yul\":2114:2123   */\n      dup3\n        /* \"#utility.yul\":2110:2128   */\n      add\n        /* \"#utility.yul\":2102:2128   */\n      swap1\n      pop\n        /* \"#utility.yul\":2138:2209   */\n      tag_69\n        /* \"#utility.yul\":2206:2207   */\n      0x00\n        /* \"#utility.yul\":2195:2204   */\n      dup4\n        /* \"#utility.yul\":2191:2208   */\n      add\n        /* \"#utility.yul\":2182:2188   */\n      dup5\n        /* \"#utility.yul\":2138:2209   */\n      tag_39\n      jump\t// in\n    tag_69:\n        /* \"#utility.yul\":1994:2216   */\n      swap3\n      swap2\n      pop\n      pop\n      jump\t// out\n        /* \"#utility.yul\":2222:2365   */\n    tag_40:\n        /* \"#utility.yul\":2279:2284   */\n      0x00\n        /* \"#utility.yul\":2310:2316   */\n      dup2\n        /* \"#utility.yul\":2304:2317   */\n      mload\n        /* \"#utility.yul\":2295:2317   */\n      swap1\n      pop\n        /* \"#utility.yul\":2326:2359   */\n      tag_71\n        /* \"#utility.yul\":2353:2358   */\n      dup2\n        /* \"#utility.yul\":2326:2359   */\n      tag_37\n      jump\t// in\n    tag_71:\n        /* \"#utility.yul\":2222:2365   */\n      swap3\n      swap2\n      pop\n      pop\n      jump\t// out\n        /* \"#utility.yul\":2371:2722   */\n    tag_18:\n        /* \"#utility.yul\":2441:2447   */\n      0x00\n        /* \"#utility.yul\":2490:2492   */\n      0x20\n        /* \"#utility.yul\":2478:2487   */\n      dup3\n        /* \"#utility.yul\":2469:2476   */\n      dup5\n        /* \"#utility.yul\":2465:2488   */\n      sub\n        /* \"#utility.yul\":2461:2493   */\n      slt\n        /* \"#utility.yul\":2458:2577   */\n      iszero\n      tag_73\n      jumpi\n        /* \"#utility.yul\":2496:2575   */\n      tag_74\n      tag_29\n      jump\t// in\n    tag_74:\n        /* \"#utility.yul\":2458:2577   */\n    tag_73:\n        /* \"#utility.yul\":2616:2617   */\n      0x00\n        /* \"#utility.yul\":2641:2705   */\n      tag_75\n        /* \"#utility.yul\":2697:2704   */\n      dup5\n        /* \"#utility.yul\":2688:2694   */\n      dup3\n        /* \"#utility.yul\":2677:2686   */\n      dup6\n        /* \"#utility.yul\":2673:2695   */\n      add\n        /* \"#utility.yul\":2641:2705   */\n      tag_40\n      jump\t// in\n    tag_75:\n        /* \"#utility.yul\":2631:2705   */\n      swap2\n      pop\n        /* \"#utility.yul\":2587:2715   */\n      pop\n        /* \"#utility.yul\":2371:2722   */\n      swap3\n      swap2\n      pop\n      pop\n      jump\t// out\n        /* \"#utility.yul\":2728:3235   */\n    tag_25:\n        /* \"#utility.yul\":2807:2813   */\n      0x00\n        /* \"#utility.yul\":2815:2821   */\n      dup1\n        /* \"#utility.yul\":2864:2866   */\n      0x40\n        /* \"#utility.yul\":2852:2861   */\n      dup4\n        /* \"#utility.yul\":2843:2850   */\n      dup6\n        /* \"#utility.yul\":2839:2862   */\n      sub\n        /* \"#utility.yul\":2835:2867   */\n      slt\n        /* \"#utility.yul\":2832:2951   */\n      iszero\n      tag_77\n      jumpi\n        /* \"#utility.yul\":2870:2949   */\n      tag_78\n      tag_29\n      jump\t// in\n    tag_78:\n        /* \"#utility.yul\":2832:2951   */\n    tag_77:\n        /* \"#utility.yul\":2990:2991   */\n      0x00\n        /* \"#utility.yul\":3015:3079   */\n      tag_79\n        /* \"#utility.yul\":3071:3078   */\n      dup6\n        /* \"#utility.yul\":3062:3068   */\n      dup3\n        /* \"#utility.yul\":3051:3060   */\n      dup7\n        /* \"#utility.yul\":3047:3069   */\n      add\n        /* \"#utility.yul\":3015:3079   */\n      tag_40\n      jump\t// in\n    tag_79:\n        /* \"#utility.yul\":3005:3079   */\n      swap3\n      pop\n        /* \"#utility.yul\":2961:3089   */\n      pop\n        /* \"#utility.yul\":3128:3130   */\n      0x20\n        /* \"#utility.yul\":3154:3218   */\n      tag_80\n        /* \"#utility.yul\":3210:3217   */\n      dup6\n        /* \"#utility.yul\":3201:3207   */\n      dup3\n        /* \"#utility.yul\":3190:3199   */\n      dup7\n        /* \"#utility.yul\":3186:3208   */\n      add\n        /* \"#utility.yul\":3154:3218   */\n      tag_40\n      jump\t// in\n    tag_80:\n        /* \"#utility.yul\":3144:3218   */\n      swap2\n      pop\n        /* \"#utility.yul\":3099:3228   */\n      pop\n        /* \"#utility.yul\":2728:3235   */\n      swap3\n      pop\n      swap3\n      swap1\n      pop\n      jump\t// out\n        /* \"#utility.yul\":3241:3573   */\n    tag_27:\n        /* \"#utility.yul\":3362:3366   */\n      0x00\n        /* \"#utility.yul\":3400:3402   */\n      0x40\n        /* \"#utility.yul\":3389:3398   */\n      dup3\n        /* \"#utility.yul\":3385:3403   */\n      add\n        /* \"#utility.yul\":3377:3403   */\n      swap1\n      pop\n        /* \"#utility.yul\":3413:3484   */\n      tag_82\n        /* \"#utility.yul\":3481:3482   */\n      0x00\n        /* \"#utility.yul\":3470:3479   */\n      dup4\n        /* \"#utility.yul\":3466:3483   */\n      add\n        /* \"#utility.yul\":3457:3463   */\n      dup6\n        /* \"#utility.yul\":3413:3484   */\n      tag_39\n      jump\t// in\n    tag_82:\n        /* \"#utility.yul\":3494:3566   */\n      tag_83\n        /* \"#utility.yul\":3562:3564   */\n      0x20\n        /* \"#utility.yul\":3551:3560   */\n      dup4\n        /* \"#utility.yul\":3547:3565   */\n      add\n        /* \"#utility.yul\":3538:3544   */\n      dup5\n        /* \"#utility.yul\":3494:3566   */\n      tag_39\n      jump\t// in\n    tag_83:\n        /* \"#utility.yul\":3241:3573   */\n      swap4\n      swap3\n      pop\n      pop\n      pop\n      jump\t// out\n\n    auxdata: 0xa26469706673582212202149a92f05a30ecde6eb53f3637bcf6b10e4bf48e121f32614a26b400706ca8f64736f6c634300081a0033\n}\n",
				"bytecode": {
					"linkReferences": {},
					"object": "6080604052348015600e575f80fd5b506103c98061001c5f395ff3fe608060405260043610610028575f3560e01c80634a2ad99f1461002c57806351e1f60514610054575b5f80fd5b348015610037575f80fd5b50610052600480360381019061004d9190610289565b610070565b005b61006e60048036038101906100699190610289565b610128565b005b5f8273ffffffffffffffffffffffffffffffffffffffff16634018d9aa836040518263ffffffff1660e01b81526004016100aa91906102d6565b6020604051808303815f875af11580156100c6573d5f803e3d5ffd5b505050506040513d601f19601f820116820180604052508101906100ea9190610303565b90507f117da416e4d9e92d4881eefcc602d159bfcdf2184ec754f768cbbac61bb1a2148160405161011b91906102d6565b60405180910390a1505050565b5f808373ffffffffffffffffffffffffffffffffffffffff16634081802034856040518363ffffffff1660e01b815260040161016491906102d6565b604080518083038185885af115801561017f573d5f803e3d5ffd5b50505050506040513d601f19601f820116820180604052508101906101a4919061032e565b915091507fdf13bbc627e55aac47555060cb708ba49f740ef2593578905baf5da436689f6182826040516101d992919061036c565b60405180910390a150505050565b5f80fd5b5f73ffffffffffffffffffffffffffffffffffffffff82169050919050565b5f610214826101eb565b9050919050565b5f6102258261020a565b9050919050565b6102358161021b565b811461023f575f80fd5b50565b5f813590506102508161022c565b92915050565b5f819050919050565b61026881610256565b8114610272575f80fd5b50565b5f813590506102838161025f565b92915050565b5f806040838503121561029f5761029e6101e7565b5b5f6102ac85828601610242565b92505060206102bd85828601610275565b9150509250929050565b6102d081610256565b82525050565b5f6020820190506102e95f8301846102c7565b92915050565b5f815190506102fd8161025f565b92915050565b5f60208284031215610318576103176101e7565b5b5f610325848285016102ef565b91505092915050565b5f8060408385031215610344576103436101e7565b5b5f610351858286016102ef565b9250506020610362858286016102ef565b9150509250929050565b5f60408201905061037f5f8301856102c7565b61038c60208301846102c7565b939250505056fea26469706673582212202149a92f05a30ecde6eb53f3637bcf6b10e4bf48e121f32614a26b400706ca8f64736f6c634300081a0033",
					"opcodes": "PUSH1 0x80 PUSH1 0x40 MSTORE CALLVALUE DUP1 ISZERO PUSH1 0xE JUMPI PUSH0 DUP1 REVERT JUMPDEST POP PUSH2 0x3C9 DUP1 PUSH2 0x1C PUSH0 CODECOPY PUSH0 RETURN INVALID PUSH1 0x80 PUSH1 0x40 MSTORE PUSH1 0x4 CALLDATASIZE LT PUSH2 0x28 JUMPI PUSH0 CALLDATALOAD PUSH1 0xE0 SHR DUP1 PUSH4 0x4A2AD99F EQ PUSH2 0x2C JUMPI DUP1 PUSH4 0x51E1F605 EQ PUSH2 0x54 JUMPI JUMPDEST PUSH0 DUP1 REVERT JUMPDEST CALLVALUE DUP1 ISZERO PUSH2 0x37 JUMPI PUSH0 DUP1 REVERT JUMPDEST POP PUSH2 0x52 PUSH1 0x4 DUP1 CALLDATASIZE SUB DUP2 ADD SWAP1 PUSH2 0x4D SWAP2 SWAP1 PUSH2 0x289 JUMP JUMPDEST PUSH2 0x70 JUMP JUMPDEST STOP JUMPDEST PUSH2 0x6E PUSH1 0x4 DUP1 CALLDATASIZE SUB DUP2 ADD SWAP1 PUSH2 0x69 SWAP2 SWAP1 PUSH2 0x289 JUMP JUMPDEST PUSH2 0x128 JUMP JUMPDEST STOP JUMPDEST PUSH0 DUP3 PUSH20 0xFFFFFFFFFFFFFFFFFFFFFFFFFFFFFFFFFFFFFFFF AND PUSH4 0x4018D9AA DUP4 PUSH1 0x40 MLOAD DUP3 PUSH4 0xFFFFFFFF AND PUSH1 0xE0 SHL DUP2 MSTORE PUSH1 0x4 ADD PUSH2 0xAA SWAP2 SWAP1 PUSH2 0x2D6 JUMP JUMPDEST PUSH1 0x20 PUSH1 0x40 MLOAD DUP1 DUP4 SUB DUP2 PUSH0 DUP8 GAS CALL ISZERO DUP1 ISZERO PUSH2 0xC6 JUMPI RETURNDATASIZE PUSH0 DUP1 RETURNDATACOPY RETURNDATASIZE PUSH0 REVERT JUMPDEST POP POP POP POP PUSH1 0x40 MLOAD RETURNDATASIZE PUSH1 0x1F NOT PUSH1 0x1F DUP3 ADD AND DUP3 ADD DUP1 PUSH1 0x40 MSTORE POP DUP2 ADD SWAP1 PUSH2 0xEA SWAP2 SWAP1 PUSH2 0x303 JUMP JUMPDEST SWAP1 POP PUSH32 0x117DA416E4D9E92D4881EEFCC602D159BFCDF2184EC754F768CBBAC61BB1A214 DUP2 PUSH1 0x40 MLOAD PUSH2 0x11B SWAP2 SWAP1 PUSH2 0x2D6 JUMP JUMPDEST PUSH1 0x40 MLOAD DUP1 SWAP2 SUB SWAP1 LOG1 POP POP POP JUMP JUMPDEST PUSH0 DUP1 DUP4 PUSH20 0xFFFFFFFFFFFFFFFFFFFFFFFFFFFFFFFFFFFFFFFF AND PUSH4 0x40818020 CALLVALUE DUP6 PUSH1 0x40 MLOAD DUP4 PUSH4 0xFFFFFFFF AND PUSH1 0xE0 SHL DUP2 MSTORE PUSH1 0x4 ADD PUSH2 0x164 SWAP2 SWAP1 PUSH2 0x2D6 JUMP JUMPDEST PUSH1 0x40 DUP1 MLOAD DUP1 DUP4 SUB DUP2 DUP6 DUP9 GAS CALL ISZERO DUP1 ISZERO PUSH2 0x17F JUMPI RETURNDATASIZE PUSH0 DUP1 RETURNDATACOPY RETURNDATASIZE PUSH0 REVERT JUMPDEST POP POP POP POP POP PUSH1 0x40 MLOAD RETURNDATASIZE PUSH1 0x1F NOT PUSH1 0x1F DUP3 ADD AND DUP3 ADD DUP1 PUSH1 0x40 MSTORE POP DUP2 ADD SWAP1 PUSH2 0x1A4 SWAP2 SWAP1 PUSH2 0x32E JUMP JUMPDEST SWAP2 POP SWAP2 POP PUSH32 0xDF13BBC627E55AAC47555060CB708BA49F740EF2593578905BAF5DA436689F61 DUP3 DUP3 PUSH1 0x40 MLOAD PUSH2 0x1D9 SWAP3 SWAP2 SWAP1 PUSH2 0x36C JUMP JUMPDEST PUSH1 0x40 MLOAD DUP1 SWAP2 SUB SWAP1 LOG1 POP POP POP POP JUMP JUMPDEST PUSH0 DUP1 REVERT JUMPDEST PUSH0 PUSH20 0xFFFFFFFFFFFFFFFFFFFFFFFFFFFFFFFFFFFFFFFF DUP3 AND SWAP1 POP SWAP2 SWAP1 POP JUMP JUMPDEST PUSH0 PUSH2 0x214 DUP3 PUSH2 0x1EB JUMP JUMPDEST SWAP1 POP SWAP2 SWAP1 POP JUMP JUMPDEST PUSH0 PUSH2 0x225 DUP3 PUSH2 0x20A JUMP JUMPDEST SWAP1 POP SWAP2 SWAP1 POP JUMP JUMPDEST PUSH2 0x235 DUP2 PUSH2 0x21B JUMP JUMPDEST DUP2 EQ PUSH2 0x23F JUMPI PUSH0 DUP1 REVERT JUMPDEST POP JUMP JUMPDEST PUSH0 DUP2 CALLDATALOAD SWAP1 POP PUSH2 0x250 DUP2 PUSH2 0x22C JUMP JUMPDEST SWAP3 SWAP2 POP POP JUMP JUMPDEST PUSH0 DUP2 SWAP1 POP SWAP2 SWAP1 POP JUMP JUMPDEST PUSH2 0x268 DUP2 PUSH2 0x256 JUMP JUMPDEST DUP2 EQ PUSH2 0x272 JUMPI PUSH0 DUP1 REVERT JUMPDEST POP JUMP JUMPDEST PUSH0 DUP2 CALLDATALOAD SWAP1 POP PUSH2 0x283 DUP2 PUSH2 0x25F JUMP JUMPDEST SWAP3 SWAP2 POP POP JUMP JUMPDEST PUSH0 DUP1 PUSH1 0x40 DUP4 DUP6 SUB SLT ISZERO PUSH2 0x29F JUMPI PUSH2 0x29E PUSH2 0x1E7 JUMP JUMPDEST JUMPDEST PUSH0 PUSH2 0x2AC DUP6 DUP3 DUP7 ADD PUSH2 0x242 JUMP JUMPDEST SWAP3 POP POP PUSH1 0x20 PUSH2 0x2BD DUP6 DUP3 DUP7 ADD PUSH2 0x275 JUMP JUMPDEST SWAP2 POP POP SWAP3 POP SWAP3 SWAP1 POP JUMP JUMPDEST PUSH2 0x2D0 DUP2 PUSH2 0x256 JUMP JUMPDEST DUP3 MSTORE POP POP JUMP JUMPDEST PUSH0 PUSH1 0x20 DUP3 ADD SWAP1 POP PUSH2 0x2E9 PUSH0 DUP4 ADD DUP5 PUSH2 0x2C7 JUMP JUMPDEST SWAP3 SWAP2 POP POP JUMP JUMPDEST PUSH0 DUP2 MLOAD SWAP1 POP PUSH2 0x2FD DUP2 PUSH2 0x25F JUMP JUMPDEST SWAP3 SWAP2 POP POP JUMP JUMPDEST PUSH0 PUSH1 0x20 DUP3 DUP5 SUB SLT ISZERO PUSH2 0x318 JUMPI PUSH2 0x317 PUSH2 0x1E7 JUMP JUMPDEST JUMPDEST PUSH0 PUSH2 0x325 DUP5 DUP3 DUP6 ADD PUSH2 0x2EF JUMP JUMPDEST SWAP2 POP POP SWAP3 SWAP2 POP POP JUMP JUMPDEST PUSH0 DUP1 PUSH1 0x40 DUP4 DUP6 SUB SLT ISZERO PUSH2 0x344 JUMPI PUSH2 0x343 PUSH2 0x1E7 JUMP JUMPDEST JUMPDEST PUSH0 PUSH2 0x351 DUP6 DUP3 DUP7 ADD PUSH2 0x2EF JUMP JUMPDEST SWAP3 POP POP PUSH1 0x20 PUSH2 0x362 DUP6 DUP3 DUP7 ADD PUSH2 0x2EF JUMP JUMPDEST SWAP2 POP POP SWAP3 POP SWAP3 SWAP1 POP JUMP JUMPDEST PUSH0 PUSH1 0x40 DUP3 ADD SWAP1 POP PUSH2 0x37F PUSH0 DUP4 ADD DUP6 PUSH2 0x2C7 JUMP JUMPDEST PUSH2 0x38C PUSH1 0x20 DUP4 ADD DUP5 PUSH2 0x2C7 JUMP JUMPDEST SWAP4 SWAP3 POP POP POP JUMP INVALID LOG2 PUSH5 0x6970667358 0x22 SLT KECCAK256 0x21 BLOBHASH 0xA9 0x2F SDIV LOG3 0xE 0xCD 0xE6 0xEB MSTORE8 RETURN PUSH4 0x7BCF6B10 0xE4 0xBF BASEFEE 0xE1 0x21 RETURN 0x26 EQ LOG2 PUSH12 0x400706CA8F64736F6C634300 ADDMOD BYTE STOP CALLER "
				},
				"gasEstimates": {
					"creation": {
						"codeDepositCost": "193800",
						"executionCost": "236",
						"totalCost": "194036"
					},
					"external": {
						"setX(address,uint256)": "infinite",
						"setXandsendEther(address,uint256)": "infinite"
					}
				},
				"methodIdentifiers": {
					"setX(address,uint256)": "4a2ad99f",
					"setXandsendEther(address,uint256)": "51e1f605"
				}
			},
			"storageLayout": {
				"storage": [],
				"types": null
			},
			"userdoc": {
				"kind": "user",
				"methods": {},
				"version": 1
			}
		}
	}
}