{
	"contracts/CallFunction.sol": {
		"Receiver": {
			"abi": [
				{
					"anonymous": false,
					"inputs": [
						{
							"indexed": false,
							"internalType": "address",
							"name": "caller",
							"type": "address"
						},
						{
							"indexed": false,
							"internalType": "uint256",
							"name": "amount",
							"type": "uint256"
						},
						{
							"indexed": false,
							"internalType": "string",
							"name": "message",
							"type": "string"
						}
					],
					"name": "Received",
					"type": "event"
				},
				{
					"stateMutability": "payable",
					"type": "fallback"
				},
				{
					"inputs": [
						{
							"internalType": "string",
							"name": "_message",
							"type": "string"
						},
						{
							"internalType": "uint256",
							"name": "_x",
							"type": "uint256"
						}
					],
					"name": "foo",
					"outputs": [
						{
							"internalType": "uint256",
							"name": "",
							"type": "uint256"
						}
					],
					"stateMutability": "payable",
					"type": "function"
				},
				{
					"stateMutability": "payable",
					"type": "receive"
				}
			],
			"devdoc": {
				"kind": "dev",
				"methods": {},
				"version": 1
			},
			"evm": {
				"assembly": "    /* \"contracts/CallFunction.sol\":63:643  contract Receiver {... */\n  mstore(0x40, 0x80)\n  callvalue\n  dup1\n  iszero\n  tag_1\n  jumpi\n  0x00\n  dup1\n  revert\ntag_1:\n  pop\n  dataSize(sub_0)\n  dup1\n  dataOffset(sub_0)\n  0x00\n  codecopy\n  0x00\n  return\nstop\n\nsub_0: assembly {\n        /* \"contracts/CallFunction.sol\":63:643  contract Receiver {... */\n      mstore(0x40, 0x80)\n      jumpi(tag_1, lt(calldatasize, 0x04))\n      shr(0xe0, calldataload(0x00))\n      dup1\n      0x24ccab8f\n      eq\n      tag_3\n      jumpi\n      jump(tag_2)\n    tag_1:\n      jumpi(tag_2, calldatasize)\n        /* \"contracts/CallFunction.sol\":252:301  Received(msg.sender, msg.value, \"Ether received\") */\n      0x59e04c3f0d44b7caf6e8ef854b61d9a51cf1960d7a88ff6356cc5e946b4b5832\n        /* \"contracts/CallFunction.sol\":261:271  msg.sender */\n      caller\n        /* \"contracts/CallFunction.sol\":273:282  msg.value */\n      callvalue\n        /* \"contracts/CallFunction.sol\":252:301  Received(msg.sender, msg.value, \"Ether received\") */\n      mload(0x40)\n      tag_6\n      swap3\n      swap2\n      swap1\n      tag_7\n      jump\t// in\n    tag_6:\n      mload(0x40)\n      dup1\n      swap2\n      sub\n      swap1\n      log1\n        /* \"contracts/CallFunction.sol\":63:643  contract Receiver {... */\n      stop\n    tag_2:\n        /* \"contracts/CallFunction.sol\":403:457  Received(msg.sender, msg.value, \"Fallback was called\") */\n      0x59e04c3f0d44b7caf6e8ef854b61d9a51cf1960d7a88ff6356cc5e946b4b5832\n        /* \"contracts/CallFunction.sol\":412:422  msg.sender */\n      caller\n        /* \"contracts/CallFunction.sol\":424:433  msg.value */\n      callvalue\n        /* \"contracts/CallFunction.sol\":403:457  Received(msg.sender, msg.value, \"Fallback was called\") */\n      mload(0x40)\n      tag_10\n      swap3\n      swap2\n      swap1\n      tag_11\n      jump\t// in\n    tag_10:\n      mload(0x40)\n      dup1\n      swap2\n      sub\n      swap1\n      log1\n        /* \"contracts/CallFunction.sol\":63:643  contract Receiver {... */\n      stop\n        /* \"contracts/CallFunction.sol\":473:640  function foo(string memory _message, uint _x) public payable returns (uint) {... */\n    tag_3:\n      tag_12\n      0x04\n      dup1\n      calldatasize\n      sub\n      dup2\n      add\n      swap1\n      tag_13\n      swap2\n      swap1\n      tag_14\n      jump\t// in\n    tag_13:\n      tag_15\n      jump\t// in\n    tag_12:\n      mload(0x40)\n      tag_16\n      swap2\n      swap1\n      tag_17\n      jump\t// in\n    tag_16:\n      mload(0x40)\n      dup1\n      swap2\n      sub\n      swap1\n      return\n    tag_15:\n        /* \"contracts/CallFunction.sol\":543:547  uint */\n      0x00\n        /* \"contracts/CallFunction.sol\":565:606  Received(msg.sender, msg.value, _message) */\n      0x59e04c3f0d44b7caf6e8ef854b61d9a51cf1960d7a88ff6356cc5e946b4b5832\n        /* \"contracts/CallFunction.sol\":574:584  msg.sender */\n      caller\n        /* \"contracts/CallFunction.sol\":586:595  msg.value */\n      callvalue\n        /* \"contracts/CallFunction.sol\":597:605  _message */\n      dup6\n        /* \"contracts/CallFunction.sol\":565:606  Received(msg.sender, msg.value, _message) */\n      mload(0x40)\n      tag_19\n      swap4\n      swap3\n      swap2\n      swap1\n      tag_20\n      jump\t// in\n    tag_19:\n      mload(0x40)\n      dup1\n      swap2\n      sub\n      swap1\n      log1\n        /* \"contracts/CallFunction.sol\":631:632  1 */\n      0x01\n        /* \"contracts/CallFunction.sol\":626:628  _x */\n      dup3\n        /* \"contracts/CallFunction.sol\":626:632  _x + 1 */\n      tag_21\n      swap2\n      swap1\n      tag_22\n      jump\t// in\n    tag_21:\n        /* \"contracts/CallFunction.sol\":619:632  return _x + 1 */\n      swap1\n      pop\n        /* \"contracts/CallFunction.sol\":473:640  function foo(string memory _message, uint _x) public payable returns (uint) {... */\n      swap3\n      swap2\n      pop\n      pop\n      jump\t// out\n        /* \"#utility.yul\":7:133   */\n    tag_23:\n        /* \"#utility.yul\":44:51   */\n      0x00\n        /* \"#utility.yul\":84:126   */\n      0xffffffffffffffffffffffffffffffffffffffff\n        /* \"#utility.yul\":77:82   */\n      dup3\n        /* \"#utility.yul\":73:127   */\n      and\n        /* \"#utility.yul\":62:127   */\n      swap1\n      pop\n        /* \"#utility.yul\":7:133   */\n      swap2\n      swap1\n      pop\n      jump\t// out\n        /* \"#utility.yul\":139:235   */\n    tag_24:\n        /* \"#utility.yul\":176:183   */\n      0x00\n        /* \"#utility.yul\":205:229   */\n      tag_55\n        /* \"#utility.yul\":223:228   */\n      dup3\n        /* \"#utility.yul\":205:229   */\n      tag_23\n      jump\t// in\n    tag_55:\n        /* \"#utility.yul\":194:229   */\n      swap1\n      pop\n        /* \"#utility.yul\":139:235   */\n      swap2\n      swap1\n      pop\n      jump\t// out\n        /* \"#utility.yul\":241:359   */\n    tag_25:\n        /* \"#utility.yul\":328:352   */\n      tag_57\n        /* \"#utility.yul\":346:351   */\n      dup2\n        /* \"#utility.yul\":328:352   */\n      tag_24\n      jump\t// in\n    tag_57:\n        /* \"#utility.yul\":323:326   */\n      dup3\n        /* \"#utility.yul\":316:353   */\n      mstore\n        /* \"#utility.yul\":241:359   */\n      pop\n      pop\n      jump\t// out\n        /* \"#utility.yul\":365:442   */\n    tag_26:\n        /* \"#utility.yul\":402:409   */\n      0x00\n        /* \"#utility.yul\":431:436   */\n      dup2\n        /* \"#utility.yul\":420:436   */\n      swap1\n      pop\n        /* \"#utility.yul\":365:442   */\n      swap2\n      swap1\n      pop\n      jump\t// out\n        /* \"#utility.yul\":448:566   */\n    tag_27:\n        /* \"#utility.yul\":535:559   */\n      tag_60\n        /* \"#utility.yul\":553:558   */\n      dup2\n        /* \"#utility.yul\":535:559   */\n      tag_26\n      jump\t// in\n    tag_60:\n        /* \"#utility.yul\":530:533   */\n      dup3\n        /* \"#utility.yul\":523:560   */\n      mstore\n        /* \"#utility.yul\":448:566   */\n      pop\n      pop\n      jump\t// out\n        /* \"#utility.yul\":572:741   */\n    tag_28:\n        /* \"#utility.yul\":656:667   */\n      0x00\n        /* \"#utility.yul\":690:696   */\n      dup3\n        /* \"#utility.yul\":685:688   */\n      dup3\n        /* \"#utility.yul\":678:697   */\n      mstore\n        /* \"#utility.yul\":730:734   */\n      0x20\n        /* \"#utility.yul\":725:728   */\n      dup3\n        /* \"#utility.yul\":721:735   */\n      add\n        /* \"#utility.yul\":706:735   */\n      swap1\n      pop\n        /* \"#utility.yul\":572:741   */\n      swap3\n      swap2\n      pop\n      pop\n      jump\t// out\n        /* \"#utility.yul\":747:911   */\n    tag_29:\n        /* \"#utility.yul\":887:903   */\n      0x4574686572207265636569766564000000000000000000000000000000000000\n        /* \"#utility.yul\":883:884   */\n      0x00\n        /* \"#utility.yul\":875:881   */\n      dup3\n        /* \"#utility.yul\":871:885   */\n      add\n        /* \"#utility.yul\":864:904   */\n      mstore\n        /* \"#utility.yul\":747:911   */\n      pop\n      jump\t// out\n        /* \"#utility.yul\":917:1283   */\n    tag_30:\n        /* \"#utility.yul\":1059:1062   */\n      0x00\n        /* \"#utility.yul\":1080:1147   */\n      tag_64\n        /* \"#utility.yul\":1144:1146   */\n      0x0e\n        /* \"#utility.yul\":1139:1142   */\n      dup4\n        /* \"#utility.yul\":1080:1147   */\n      tag_28\n      jump\t// in\n    tag_64:\n        /* \"#utility.yul\":1073:1147   */\n      swap2\n      pop\n        /* \"#utility.yul\":1156:1249   */\n      tag_65\n        /* \"#utility.yul\":1245:1248   */\n      dup3\n        /* \"#utility.yul\":1156:1249   */\n      tag_29\n      jump\t// in\n    tag_65:\n        /* \"#utility.yul\":1274:1276   */\n      0x20\n        /* \"#utility.yul\":1269:1272   */\n      dup3\n        /* \"#utility.yul\":1265:1277   */\n      add\n        /* \"#utility.yul\":1258:1277   */\n      swap1\n      pop\n        /* \"#utility.yul\":917:1283   */\n      swap2\n      swap1\n      pop\n      jump\t// out\n        /* \"#utility.yul\":1289:1928   */\n    tag_7:\n        /* \"#utility.yul\":1511:1515   */\n      0x00\n        /* \"#utility.yul\":1549:1551   */\n      0x60\n        /* \"#utility.yul\":1538:1547   */\n      dup3\n        /* \"#utility.yul\":1534:1552   */\n      add\n        /* \"#utility.yul\":1526:1552   */\n      swap1\n      pop\n        /* \"#utility.yul\":1562:1633   */\n      tag_67\n        /* \"#utility.yul\":1630:1631   */\n      0x00\n        /* \"#utility.yul\":1619:1628   */\n      dup4\n        /* \"#utility.yul\":1615:1632   */\n      add\n        /* \"#utility.yul\":1606:1612   */\n      dup6\n        /* \"#utility.yul\":1562:1633   */\n      tag_25\n      jump\t// in\n    tag_67:\n        /* \"#utility.yul\":1643:1715   */\n      tag_68\n        /* \"#utility.yul\":1711:1713   */\n      0x20\n        /* \"#utility.yul\":1700:1709   */\n      dup4\n        /* \"#utility.yul\":1696:1714   */\n      add\n        /* \"#utility.yul\":1687:1693   */\n      dup5\n        /* \"#utility.yul\":1643:1715   */\n      tag_27\n      jump\t// in\n    tag_68:\n        /* \"#utility.yul\":1762:1771   */\n      dup2\n        /* \"#utility.yul\":1756:1760   */\n      dup2\n        /* \"#utility.yul\":1752:1772   */\n      sub\n        /* \"#utility.yul\":1747:1749   */\n      0x40\n        /* \"#utility.yul\":1736:1745   */\n      dup4\n        /* \"#utility.yul\":1732:1750   */\n      add\n        /* \"#utility.yul\":1725:1773   */\n      mstore\n        /* \"#utility.yul\":1790:1921   */\n      tag_69\n        /* \"#utility.yul\":1916:1920   */\n      dup2\n        /* \"#utility.yul\":1790:1921   */\n      tag_30\n      jump\t// in\n    tag_69:\n        /* \"#utility.yul\":1782:1921   */\n      swap1\n      pop\n        /* \"#utility.yul\":1289:1928   */\n      swap4\n      swap3\n      pop\n      pop\n      pop\n      jump\t// out\n        /* \"#utility.yul\":1934:2103   */\n    tag_31:\n        /* \"#utility.yul\":2074:2095   */\n      0x46616c6c6261636b207761732063616c6c656400000000000000000000000000\n        /* \"#utility.yul\":2070:2071   */\n      0x00\n        /* \"#utility.yul\":2062:2068   */\n      dup3\n        /* \"#utility.yul\":2058:2072   */\n      add\n        /* \"#utility.yul\":2051:2096   */\n      mstore\n        /* \"#utility.yul\":1934:2103   */\n      pop\n      jump\t// out\n        /* \"#utility.yul\":2109:2475   */\n    tag_32:\n        /* \"#utility.yul\":2251:2254   */\n      0x00\n        /* \"#utility.yul\":2272:2339   */\n      tag_72\n        /* \"#utility.yul\":2336:2338   */\n      0x13\n        /* \"#utility.yul\":2331:2334   */\n      dup4\n        /* \"#utility.yul\":2272:2339   */\n      tag_28\n      jump\t// in\n    tag_72:\n        /* \"#utility.yul\":2265:2339   */\n      swap2\n      pop\n        /* \"#utility.yul\":2348:2441   */\n      tag_73\n        /* \"#utility.yul\":2437:2440   */\n      dup3\n        /* \"#utility.yul\":2348:2441   */\n      tag_31\n      jump\t// in\n    tag_73:\n        /* \"#utility.yul\":2466:2468   */\n      0x20\n        /* \"#utility.yul\":2461:2464   */\n      dup3\n        /* \"#utility.yul\":2457:2469   */\n      add\n        /* \"#utility.yul\":2450:2469   */\n      swap1\n      pop\n        /* \"#utility.yul\":2109:2475   */\n      swap2\n      swap1\n      pop\n      jump\t// out\n        /* \"#utility.yul\":2481:3120   */\n    tag_11:\n        /* \"#utility.yul\":2703:2707   */\n      0x00\n        /* \"#utility.yul\":2741:2743   */\n      0x60\n        /* \"#utility.yul\":2730:2739   */\n      dup3\n        /* \"#utility.yul\":2726:2744   */\n      add\n        /* \"#utility.yul\":2718:2744   */\n      swap1\n      pop\n        /* \"#utility.yul\":2754:2825   */\n      tag_75\n        /* \"#utility.yul\":2822:2823   */\n      0x00\n        /* \"#utility.yul\":2811:2820   */\n      dup4\n        /* \"#utility.yul\":2807:2824   */\n      add\n        /* \"#utility.yul\":2798:2804   */\n      dup6\n        /* \"#utility.yul\":2754:2825   */\n      tag_25\n      jump\t// in\n    tag_75:\n        /* \"#utility.yul\":2835:2907   */\n      tag_76\n        /* \"#utility.yul\":2903:2905   */\n      0x20\n        /* \"#utility.yul\":2892:2901   */\n      dup4\n        /* \"#utility.yul\":2888:2906   */\n      add\n        /* \"#utility.yul\":2879:2885   */\n      dup5\n        /* \"#utility.yul\":2835:2907   */\n      tag_27\n      jump\t// in\n    tag_76:\n        /* \"#utility.yul\":2954:2963   */\n      dup2\n        /* \"#utility.yul\":2948:2952   */\n      dup2\n        /* \"#utility.yul\":2944:2964   */\n      sub\n        /* \"#utility.yul\":2939:2941   */\n      0x40\n        /* \"#utility.yul\":2928:2937   */\n      dup4\n        /* \"#utility.yul\":2924:2942   */\n      add\n        /* \"#utility.yul\":2917:2965   */\n      mstore\n        /* \"#utility.yul\":2982:3113   */\n      tag_77\n        /* \"#utility.yul\":3108:3112   */\n      dup2\n        /* \"#utility.yul\":2982:3113   */\n      tag_32\n      jump\t// in\n    tag_77:\n        /* \"#utility.yul\":2974:3113   */\n      swap1\n      pop\n        /* \"#utility.yul\":2481:3120   */\n      swap4\n      swap3\n      pop\n      pop\n      pop\n      jump\t// out\n        /* \"#utility.yul\":3126:3201   */\n    tag_33:\n        /* \"#utility.yul\":3159:3165   */\n      0x00\n        /* \"#utility.yul\":3192:3194   */\n      0x40\n        /* \"#utility.yul\":3186:3195   */\n      mload\n        /* \"#utility.yul\":3176:3195   */\n      swap1\n      pop\n        /* \"#utility.yul\":3126:3201   */\n      swap1\n      jump\t// out\n        /* \"#utility.yul\":3207:3324   */\n    tag_34:\n        /* \"#utility.yul\":3316:3317   */\n      0x00\n        /* \"#utility.yul\":3313:3314   */\n      dup1\n        /* \"#utility.yul\":3306:3318   */\n      revert\n        /* \"#utility.yul\":3330:3447   */\n    tag_35:\n        /* \"#utility.yul\":3439:3440   */\n      0x00\n        /* \"#utility.yul\":3436:3437   */\n      dup1\n        /* \"#utility.yul\":3429:3441   */\n      revert\n        /* \"#utility.yul\":3453:3570   */\n    tag_36:\n        /* \"#utility.yul\":3562:3563   */\n      0x00\n        /* \"#utility.yul\":3559:3560   */\n      dup1\n        /* \"#utility.yul\":3552:3564   */\n      revert\n        /* \"#utility.yul\":3576:3693   */\n    tag_37:\n        /* \"#utility.yul\":3685:3686   */\n      0x00\n        /* \"#utility.yul\":3682:3683   */\n      dup1\n        /* \"#utility.yul\":3675:3687   */\n      revert\n        /* \"#utility.yul\":3699:3801   */\n    tag_38:\n        /* \"#utility.yul\":3740:3746   */\n      0x00\n        /* \"#utility.yul\":3791:3793   */\n      0x1f\n        /* \"#utility.yul\":3787:3794   */\n      not\n        /* \"#utility.yul\":3782:3784   */\n      0x1f\n        /* \"#utility.yul\":3775:3780   */\n      dup4\n        /* \"#utility.yul\":3771:3785   */\n      add\n        /* \"#utility.yul\":3767:3795   */\n      and\n        /* \"#utility.yul\":3757:3795   */\n      swap1\n      pop\n        /* \"#utility.yul\":3699:3801   */\n      swap2\n      swap1\n      pop\n      jump\t// out\n        /* \"#utility.yul\":3807:3987   */\n    tag_39:\n        /* \"#utility.yul\":3855:3932   */\n      0x4e487b7100000000000000000000000000000000000000000000000000000000\n        /* \"#utility.yul\":3852:3853   */\n      0x00\n        /* \"#utility.yul\":3845:3933   */\n      mstore\n        /* \"#utility.yul\":3952:3956   */\n      0x41\n        /* \"#utility.yul\":3949:3950   */\n      0x04\n        /* \"#utility.yul\":3942:3957   */\n      mstore\n        /* \"#utility.yul\":3976:3980   */\n      0x24\n        /* \"#utility.yul\":3973:3974   */\n      0x00\n        /* \"#utility.yul\":3966:3981   */\n      revert\n        /* \"#utility.yul\":3993:4274   */\n    tag_40:\n        /* \"#utility.yul\":4076:4103   */\n      tag_86\n        /* \"#utility.yul\":4098:4102   */\n      dup3\n        /* \"#utility.yul\":4076:4103   */\n      tag_38\n      jump\t// in\n    tag_86:\n        /* \"#utility.yul\":4068:4074   */\n      dup2\n        /* \"#utility.yul\":4064:4104   */\n      add\n        /* \"#utility.yul\":4206:4212   */\n      dup2\n        /* \"#utility.yul\":4194:4204   */\n      dup2\n        /* \"#utility.yul\":4191:4213   */\n      lt\n        /* \"#utility.yul\":4170:4188   */\n      0xffffffffffffffff\n        /* \"#utility.yul\":4158:4168   */\n      dup3\n        /* \"#utility.yul\":4155:4189   */\n      gt\n        /* \"#utility.yul\":4152:4214   */\n      or\n        /* \"#utility.yul\":4149:4237   */\n      iszero\n      tag_87\n      jumpi\n        /* \"#utility.yul\":4217:4235   */\n      tag_88\n      tag_39\n      jump\t// in\n    tag_88:\n        /* \"#utility.yul\":4149:4237   */\n    tag_87:\n        /* \"#utility.yul\":4257:4267   */\n      dup1\n        /* \"#utility.yul\":4253:4255   */\n      0x40\n        /* \"#utility.yul\":4246:4268   */\n      mstore\n        /* \"#utility.yul\":4036:4274   */\n      pop\n        /* \"#utility.yul\":3993:4274   */\n      pop\n      pop\n      jump\t// out\n        /* \"#utility.yul\":4280:4409   */\n    tag_41:\n        /* \"#utility.yul\":4314:4320   */\n      0x00\n        /* \"#utility.yul\":4341:4361   */\n      tag_90\n      tag_33\n      jump\t// in\n    tag_90:\n        /* \"#utility.yul\":4331:4361   */\n      swap1\n      pop\n        /* \"#utility.yul\":4370:4403   */\n      tag_91\n        /* \"#utility.yul\":4398:4402   */\n      dup3\n        /* \"#utility.yul\":4390:4396   */\n      dup3\n        /* \"#utility.yul\":4370:4403   */\n      tag_40\n      jump\t// in\n    tag_91:\n        /* \"#utility.yul\":4280:4409   */\n      swap2\n      swap1\n      pop\n      jump\t// out\n        /* \"#utility.yul\":4415:4723   */\n    tag_42:\n        /* \"#utility.yul\":4477:4481   */\n      0x00\n        /* \"#utility.yul\":4567:4585   */\n      0xffffffffffffffff\n        /* \"#utility.yul\":4559:4565   */\n      dup3\n        /* \"#utility.yul\":4556:4586   */\n      gt\n        /* \"#utility.yul\":4553:4609   */\n      iszero\n      tag_93\n      jumpi\n        /* \"#utility.yul\":4589:4607   */\n      tag_94\n      tag_39\n      jump\t// in\n    tag_94:\n        /* \"#utility.yul\":4553:4609   */\n    tag_93:\n        /* \"#utility.yul\":4627:4656   */\n      tag_95\n        /* \"#utility.yul\":4649:4655   */\n      dup3\n        /* \"#utility.yul\":4627:4656   */\n      tag_38\n      jump\t// in\n    tag_95:\n        /* \"#utility.yul\":4619:4656   */\n      swap1\n      pop\n        /* \"#utility.yul\":4711:4715   */\n      0x20\n        /* \"#utility.yul\":4705:4709   */\n      dup2\n        /* \"#utility.yul\":4701:4716   */\n      add\n        /* \"#utility.yul\":4693:4716   */\n      swap1\n      pop\n        /* \"#utility.yul\":4415:4723   */\n      swap2\n      swap1\n      pop\n      jump\t// out\n        /* \"#utility.yul\":4729:4877   */\n    tag_43:\n        /* \"#utility.yul\":4827:4833   */\n      dup3\n        /* \"#utility.yul\":4822:4825   */\n      dup2\n        /* \"#utility.yul\":4817:4820   */\n      dup4\n        /* \"#utility.yul\":4804:4834   */\n      calldatacopy\n        /* \"#utility.yul\":4868:4869   */\n      0x00\n        /* \"#utility.yul\":4859:4865   */\n      dup4\n        /* \"#utility.yul\":4854:4857   */\n      dup4\n        /* \"#utility.yul\":4850:4866   */\n      add\n        /* \"#utility.yul\":4843:4870   */\n      mstore\n        /* \"#utility.yul\":4729:4877   */\n      pop\n      pop\n      pop\n      jump\t// out\n        /* \"#utility.yul\":4883:5308   */\n    tag_44:\n        /* \"#utility.yul\":4961:4966   */\n      0x00\n        /* \"#utility.yul\":4986:5052   */\n      tag_98\n        /* \"#utility.yul\":5002:5051   */\n      tag_99\n        /* \"#utility.yul\":5044:5050   */\n      dup5\n        /* \"#utility.yul\":5002:5051   */\n      tag_42\n      jump\t// in\n    tag_99:\n        /* \"#utility.yul\":4986:5052   */\n      tag_41\n      jump\t// in\n    tag_98:\n        /* \"#utility.yul\":4977:5052   */\n      swap1\n      pop\n        /* \"#utility.yul\":5075:5081   */\n      dup3\n        /* \"#utility.yul\":5068:5073   */\n      dup2\n        /* \"#utility.yul\":5061:5082   */\n      mstore\n        /* \"#utility.yul\":5113:5117   */\n      0x20\n        /* \"#utility.yul\":5106:5111   */\n      dup2\n        /* \"#utility.yul\":5102:5118   */\n      add\n        /* \"#utility.yul\":5151:5154   */\n      dup5\n        /* \"#utility.yul\":5142:5148   */\n      dup5\n        /* \"#utility.yul\":5137:5140   */\n      dup5\n        /* \"#utility.yul\":5133:5149   */\n      add\n        /* \"#utility.yul\":5130:5155   */\n      gt\n        /* \"#utility.yul\":5127:5239   */\n      iszero\n      tag_100\n      jumpi\n        /* \"#utility.yul\":5158:5237   */\n      tag_101\n      tag_37\n      jump\t// in\n    tag_101:\n        /* \"#utility.yul\":5127:5239   */\n    tag_100:\n        /* \"#utility.yul\":5248:5302   */\n      tag_102\n        /* \"#utility.yul\":5295:5301   */\n      dup5\n        /* \"#utility.yul\":5290:5293   */\n      dup3\n        /* \"#utility.yul\":5285:5288   */\n      dup6\n        /* \"#utility.yul\":5248:5302   */\n      tag_43\n      jump\t// in\n    tag_102:\n        /* \"#utility.yul\":4967:5308   */\n      pop\n        /* \"#utility.yul\":4883:5308   */\n      swap4\n      swap3\n      pop\n      pop\n      pop\n      jump\t// out\n        /* \"#utility.yul\":5328:5668   */\n    tag_45:\n        /* \"#utility.yul\":5384:5389   */\n      0x00\n        /* \"#utility.yul\":5433:5436   */\n      dup3\n        /* \"#utility.yul\":5426:5430   */\n      0x1f\n        /* \"#utility.yul\":5418:5424   */\n      dup4\n        /* \"#utility.yul\":5414:5431   */\n      add\n        /* \"#utility.yul\":5410:5437   */\n      slt\n        /* \"#utility.yul\":5400:5522   */\n      tag_104\n      jumpi\n        /* \"#utility.yul\":5441:5520   */\n      tag_105\n      tag_36\n      jump\t// in\n    tag_105:\n        /* \"#utility.yul\":5400:5522   */\n    tag_104:\n        /* \"#utility.yul\":5558:5564   */\n      dup2\n        /* \"#utility.yul\":5545:5565   */\n      calldataload\n        /* \"#utility.yul\":5583:5662   */\n      tag_106\n        /* \"#utility.yul\":5658:5661   */\n      dup5\n        /* \"#utility.yul\":5650:5656   */\n      dup3\n        /* \"#utility.yul\":5643:5647   */\n      0x20\n        /* \"#utility.yul\":5635:5641   */\n      dup7\n        /* \"#utility.yul\":5631:5648   */\n      add\n        /* \"#utility.yul\":5583:5662   */\n      tag_44\n      jump\t// in\n    tag_106:\n        /* \"#utility.yul\":5574:5662   */\n      swap2\n      pop\n        /* \"#utility.yul\":5390:5668   */\n      pop\n        /* \"#utility.yul\":5328:5668   */\n      swap3\n      swap2\n      pop\n      pop\n      jump\t// out\n        /* \"#utility.yul\":5674:5796   */\n    tag_46:\n        /* \"#utility.yul\":5747:5771   */\n      tag_108\n        /* \"#utility.yul\":5765:5770   */\n      dup2\n        /* \"#utility.yul\":5747:5771   */\n      tag_26\n      jump\t// in\n    tag_108:\n        /* \"#utility.yul\":5740:5745   */\n      dup2\n        /* \"#utility.yul\":5737:5772   */\n      eq\n        /* \"#utility.yul\":5727:5790   */\n      tag_109\n      jumpi\n        /* \"#utility.yul\":5786:5787   */\n      0x00\n        /* \"#utility.yul\":5783:5784   */\n      dup1\n        /* \"#utility.yul\":5776:5788   */\n      revert\n        /* \"#utility.yul\":5727:5790   */\n    tag_109:\n        /* \"#utility.yul\":5674:5796   */\n      pop\n      jump\t// out\n        /* \"#utility.yul\":5802:5941   */\n    tag_47:\n        /* \"#utility.yul\":5848:5853   */\n      0x00\n        /* \"#utility.yul\":5886:5892   */\n      dup2\n        /* \"#utility.yul\":5873:5893   */\n      calldataload\n        /* \"#utility.yul\":5864:5893   */\n      swap1\n      pop\n        /* \"#utility.yul\":5902:5935   */\n      tag_111\n        /* \"#utility.yul\":5929:5934   */\n      dup2\n        /* \"#utility.yul\":5902:5935   */\n      tag_46\n      jump\t// in\n    tag_111:\n        /* \"#utility.yul\":5802:5941   */\n      swap3\n      swap2\n      pop\n      pop\n      jump\t// out\n        /* \"#utility.yul\":5947:6601   */\n    tag_14:\n        /* \"#utility.yul\":6025:6031   */\n      0x00\n        /* \"#utility.yul\":6033:6039   */\n      dup1\n        /* \"#utility.yul\":6082:6084   */\n      0x40\n        /* \"#utility.yul\":6070:6079   */\n      dup4\n        /* \"#utility.yul\":6061:6068   */\n      dup6\n        /* \"#utility.yul\":6057:6080   */\n      sub\n        /* \"#utility.yul\":6053:6085   */\n      slt\n        /* \"#utility.yul\":6050:6169   */\n      iszero\n      tag_113\n      jumpi\n        /* \"#utility.yul\":6088:6167   */\n      tag_114\n      tag_34\n      jump\t// in\n    tag_114:\n        /* \"#utility.yul\":6050:6169   */\n    tag_113:\n        /* \"#utility.yul\":6236:6237   */\n      0x00\n        /* \"#utility.yul\":6225:6234   */\n      dup4\n        /* \"#utility.yul\":6221:6238   */\n      add\n        /* \"#utility.yul\":6208:6239   */\n      calldataload\n        /* \"#utility.yul\":6266:6284   */\n      0xffffffffffffffff\n        /* \"#utility.yul\":6258:6264   */\n      dup2\n        /* \"#utility.yul\":6255:6285   */\n      gt\n        /* \"#utility.yul\":6252:6369   */\n      iszero\n      tag_115\n      jumpi\n        /* \"#utility.yul\":6288:6367   */\n      tag_116\n      tag_35\n      jump\t// in\n    tag_116:\n        /* \"#utility.yul\":6252:6369   */\n    tag_115:\n        /* \"#utility.yul\":6393:6456   */\n      tag_117\n        /* \"#utility.yul\":6448:6455   */\n      dup6\n        /* \"#utility.yul\":6439:6445   */\n      dup3\n        /* \"#utility.yul\":6428:6437   */\n      dup7\n        /* \"#utility.yul\":6424:6446   */\n      add\n        /* \"#utility.yul\":6393:6456   */\n      tag_45\n      jump\t// in\n    tag_117:\n        /* \"#utility.yul\":6383:6456   */\n      swap3\n      pop\n        /* \"#utility.yul\":6179:6466   */\n      pop\n        /* \"#utility.yul\":6505:6507   */\n      0x20\n        /* \"#utility.yul\":6531:6584   */\n      tag_118\n        /* \"#utility.yul\":6576:6583   */\n      dup6\n        /* \"#utility.yul\":6567:6573   */\n      dup3\n        /* \"#utility.yul\":6556:6565   */\n      dup7\n        /* \"#utility.yul\":6552:6574   */\n      add\n        /* \"#utility.yul\":6531:6584   */\n      tag_47\n      jump\t// in\n    tag_118:\n        /* \"#utility.yul\":6521:6584   */\n      swap2\n      pop\n        /* \"#utility.yul\":6476:6594   */\n      pop\n        /* \"#utility.yul\":5947:6601   */\n      swap3\n      pop\n      swap3\n      swap1\n      pop\n      jump\t// out\n        /* \"#utility.yul\":6607:6829   */\n    tag_17:\n        /* \"#utility.yul\":6700:6704   */\n      0x00\n        /* \"#utility.yul\":6738:6740   */\n      0x20\n        /* \"#utility.yul\":6727:6736   */\n      dup3\n        /* \"#utility.yul\":6723:6741   */\n      add\n        /* \"#utility.yul\":6715:6741   */\n      swap1\n      pop\n        /* \"#utility.yul\":6751:6822   */\n      tag_120\n        /* \"#utility.yul\":6819:6820   */\n      0x00\n        /* \"#utility.yul\":6808:6817   */\n      dup4\n        /* \"#utility.yul\":6804:6821   */\n      add\n        /* \"#utility.yul\":6795:6801   */\n      dup5\n        /* \"#utility.yul\":6751:6822   */\n      tag_27\n      jump\t// in\n    tag_120:\n        /* \"#utility.yul\":6607:6829   */\n      swap3\n      swap2\n      pop\n      pop\n      jump\t// out\n        /* \"#utility.yul\":6835:6934   */\n    tag_48:\n        /* \"#utility.yul\":6887:6893   */\n      0x00\n        /* \"#utility.yul\":6921:6926   */\n      dup2\n        /* \"#utility.yul\":6915:6927   */\n      mload\n        /* \"#utility.yul\":6905:6927   */\n      swap1\n      pop\n        /* \"#utility.yul\":6835:6934   */\n      swap2\n      swap1\n      pop\n      jump\t// out\n        /* \"#utility.yul\":6940:7079   */\n    tag_49:\n        /* \"#utility.yul\":7029:7035   */\n      dup3\n        /* \"#utility.yul\":7024:7027   */\n      dup2\n        /* \"#utility.yul\":7019:7022   */\n      dup4\n        /* \"#utility.yul\":7013:7036   */\n      mcopy\n        /* \"#utility.yul\":7070:7071   */\n      0x00\n        /* \"#utility.yul\":7061:7067   */\n      dup4\n        /* \"#utility.yul\":7056:7059   */\n      dup4\n        /* \"#utility.yul\":7052:7068   */\n      add\n        /* \"#utility.yul\":7045:7072   */\n      mstore\n        /* \"#utility.yul\":6940:7079   */\n      pop\n      pop\n      pop\n      jump\t// out\n        /* \"#utility.yul\":7085:7462   */\n    tag_50:\n        /* \"#utility.yul\":7173:7176   */\n      0x00\n        /* \"#utility.yul\":7201:7240   */\n      tag_124\n        /* \"#utility.yul\":7234:7239   */\n      dup3\n        /* \"#utility.yul\":7201:7240   */\n      tag_48\n      jump\t// in\n    tag_124:\n        /* \"#utility.yul\":7256:7327   */\n      tag_125\n        /* \"#utility.yul\":7320:7326   */\n      dup2\n        /* \"#utility.yul\":7315:7318   */\n      dup6\n        /* \"#utility.yul\":7256:7327   */\n      tag_28\n      jump\t// in\n    tag_125:\n        /* \"#utility.yul\":7249:7327   */\n      swap4\n      pop\n        /* \"#utility.yul\":7336:7401   */\n      tag_126\n        /* \"#utility.yul\":7394:7400   */\n      dup2\n        /* \"#utility.yul\":7389:7392   */\n      dup6\n        /* \"#utility.yul\":7382:7386   */\n      0x20\n        /* \"#utility.yul\":7375:7380   */\n      dup7\n        /* \"#utility.yul\":7371:7387   */\n      add\n        /* \"#utility.yul\":7336:7401   */\n      tag_49\n      jump\t// in\n    tag_126:\n        /* \"#utility.yul\":7426:7455   */\n      tag_127\n        /* \"#utility.yul\":7448:7454   */\n      dup2\n        /* \"#utility.yul\":7426:7455   */\n      tag_38\n      jump\t// in\n    tag_127:\n        /* \"#utility.yul\":7421:7424   */\n      dup5\n        /* \"#utility.yul\":7417:7456   */\n      add\n        /* \"#utility.yul\":7410:7456   */\n      swap2\n      pop\n        /* \"#utility.yul\":7177:7462   */\n      pop\n        /* \"#utility.yul\":7085:7462   */\n      swap3\n      swap2\n      pop\n      pop\n      jump\t// out\n        /* \"#utility.yul\":7468:8001   */\n    tag_20:\n        /* \"#utility.yul\":7637:7641   */\n      0x00\n        /* \"#utility.yul\":7675:7677   */\n      0x60\n        /* \"#utility.yul\":7664:7673   */\n      dup3\n        /* \"#utility.yul\":7660:7678   */\n      add\n        /* \"#utility.yul\":7652:7678   */\n      swap1\n      pop\n        /* \"#utility.yul\":7688:7759   */\n      tag_129\n        /* \"#utility.yul\":7756:7757   */\n      0x00\n        /* \"#utility.yul\":7745:7754   */\n      dup4\n        /* \"#utility.yul\":7741:7758   */\n      add\n        /* \"#utility.yul\":7732:7738   */\n      dup7\n        /* \"#utility.yul\":7688:7759   */\n      tag_25\n      jump\t// in\n    tag_129:\n        /* \"#utility.yul\":7769:7841   */\n      tag_130\n        /* \"#utility.yul\":7837:7839   */\n      0x20\n        /* \"#utility.yul\":7826:7835   */\n      dup4\n        /* \"#utility.yul\":7822:7840   */\n      add\n        /* \"#utility.yul\":7813:7819   */\n      dup6\n        /* \"#utility.yul\":7769:7841   */\n      tag_27\n      jump\t// in\n    tag_130:\n        /* \"#utility.yul\":7888:7897   */\n      dup2\n        /* \"#utility.yul\":7882:7886   */\n      dup2\n        /* \"#utility.yul\":7878:7898   */\n      sub\n        /* \"#utility.yul\":7873:7875   */\n      0x40\n        /* \"#utility.yul\":7862:7871   */\n      dup4\n        /* \"#utility.yul\":7858:7876   */\n      add\n        /* \"#utility.yul\":7851:7899   */\n      mstore\n        /* \"#utility.yul\":7916:7994   */\n      tag_131\n        /* \"#utility.yul\":7989:7993   */\n      dup2\n        /* \"#utility.yul\":7980:7986   */\n      dup5\n        /* \"#utility.yul\":7916:7994   */\n      tag_50\n      jump\t// in\n    tag_131:\n        /* \"#utility.yul\":7908:7994   */\n      swap1\n      pop\n        /* \"#utility.yul\":7468:8001   */\n      swap5\n      swap4\n      pop\n      pop\n      pop\n      pop\n      jump\t// out\n        /* \"#utility.yul\":8007:8187   */\n    tag_51:\n        /* \"#utility.yul\":8055:8132   */\n      0x4e487b7100000000000000000000000000000000000000000000000000000000\n        /* \"#utility.yul\":8052:8053   */\n      0x00\n        /* \"#utility.yul\":8045:8133   */\n      mstore\n        /* \"#utility.yul\":8152:8156   */\n      0x11\n        /* \"#utility.yul\":8149:8150   */\n      0x04\n        /* \"#utility.yul\":8142:8157   */\n      mstore\n        /* \"#utility.yul\":8176:8180   */\n      0x24\n        /* \"#utility.yul\":8173:8174   */\n      0x00\n        /* \"#utility.yul\":8166:8181   */\n      revert\n        /* \"#utility.yul\":8193:8384   */\n    tag_22:\n        /* \"#utility.yul\":8233:8236   */\n      0x00\n        /* \"#utility.yul\":8252:8272   */\n      tag_134\n        /* \"#utility.yul\":8270:8271   */\n      dup3\n        /* \"#utility.yul\":8252:8272   */\n      tag_26\n      jump\t// in\n    tag_134:\n        /* \"#utility.yul\":8247:8272   */\n      swap2\n      pop\n        /* \"#utility.yul\":8286:8306   */\n      tag_135\n        /* \"#utility.yul\":8304:8305   */\n      dup4\n        /* \"#utility.yul\":8286:8306   */\n      tag_26\n      jump\t// in\n    tag_135:\n        /* \"#utility.yul\":8281:8306   */\n      swap3\n      pop\n        /* \"#utility.yul\":8329:8330   */\n      dup3\n        /* \"#utility.yul\":8326:8327   */\n      dup3\n        /* \"#utility.yul\":8322:8331   */\n      add\n        /* \"#utility.yul\":8315:8331   */\n      swap1\n      pop\n        /* \"#utility.yul\":8350:8353   */\n      dup1\n        /* \"#utility.yul\":8347:8348   */\n      dup3\n        /* \"#utility.yul\":8344:8354   */\n      gt\n        /* \"#utility.yul\":8341:8377   */\n      iszero\n      tag_136\n      jumpi\n        /* \"#utility.yul\":8357:8375   */\n      tag_137\n      tag_51\n      jump\t// in\n    tag_137:\n        /* \"#utility.yul\":8341:8377   */\n    tag_136:\n        /* \"#utility.yul\":8193:8384   */\n      swap3\n      swap2\n      pop\n      pop\n      jump\t// out\n\n    auxdata: 0xa26469706673582212204e8325be6b324807c0052e3a9e38a5279403768de26fece9c9de8787d808b98164736f6c634300081a0033\n}\n",
				"bytecode": {
					"linkReferences": {},
					"object": "6080604052348015600e575f80fd5b506105988061001c5f395ff3fe608060405260043610610021575f3560e01c806324ccab8f1461009c57610061565b36610061577f59e04c3f0d44b7caf6e8ef854b61d9a51cf1960d7a88ff6356cc5e946b4b583233346040516100579291906101ce565b60405180910390a1005b7f59e04c3f0d44b7caf6e8ef854b61d9a51cf1960d7a88ff6356cc5e946b4b58323334604051610092929190610252565b60405180910390a1005b6100b660048036038101906100b19190610403565b6100cc565b6040516100c3919061045d565b60405180910390f35b5f7f59e04c3f0d44b7caf6e8ef854b61d9a51cf1960d7a88ff6356cc5e946b4b5832333485604051610100939291906104c6565b60405180910390a1600182610115919061052f565b905092915050565b5f73ffffffffffffffffffffffffffffffffffffffff82169050919050565b5f6101468261011d565b9050919050565b6101568161013c565b82525050565b5f819050919050565b61016e8161015c565b82525050565b5f82825260208201905092915050565b7f45746865722072656365697665640000000000000000000000000000000000005f82015250565b5f6101b8600e83610174565b91506101c382610184565b602082019050919050565b5f6060820190506101e15f83018561014d565b6101ee6020830184610165565b81810360408301526101ff816101ac565b90509392505050565b7f46616c6c6261636b207761732063616c6c6564000000000000000000000000005f82015250565b5f61023c601383610174565b915061024782610208565b602082019050919050565b5f6060820190506102655f83018561014d565b6102726020830184610165565b818103604083015261028381610230565b90509392505050565b5f604051905090565b5f80fd5b5f80fd5b5f80fd5b5f80fd5b5f601f19601f8301169050919050565b7f4e487b71000000000000000000000000000000000000000000000000000000005f52604160045260245ffd5b6102eb826102a5565b810181811067ffffffffffffffff8211171561030a576103096102b5565b5b80604052505050565b5f61031c61028c565b905061032882826102e2565b919050565b5f67ffffffffffffffff821115610347576103466102b5565b5b610350826102a5565b9050602081019050919050565b828183375f83830152505050565b5f61037d6103788461032d565b610313565b905082815260208101848484011115610399576103986102a1565b5b6103a484828561035d565b509392505050565b5f82601f8301126103c0576103bf61029d565b5b81356103d084826020860161036b565b91505092915050565b6103e28161015c565b81146103ec575f80fd5b50565b5f813590506103fd816103d9565b92915050565b5f806040838503121561041957610418610295565b5b5f83013567ffffffffffffffff81111561043657610435610299565b5b610442858286016103ac565b9250506020610453858286016103ef565b9150509250929050565b5f6020820190506104705f830184610165565b92915050565b5f81519050919050565b8281835e5f83830152505050565b5f61049882610476565b6104a28185610174565b93506104b2818560208601610480565b6104bb816102a5565b840191505092915050565b5f6060820190506104d95f83018661014d565b6104e66020830185610165565b81810360408301526104f8818461048e565b9050949350505050565b7f4e487b71000000000000000000000000000000000000000000000000000000005f52601160045260245ffd5b5f6105398261015c565b91506105448361015c565b925082820190508082111561055c5761055b610502565b5b9291505056fea26469706673582212204e8325be6b324807c0052e3a9e38a5279403768de26fece9c9de8787d808b98164736f6c634300081a0033",
					"opcodes": "PUSH1 0x80 PUSH1 0x40 MSTORE CALLVALUE DUP1 ISZERO PUSH1 0xE JUMPI PUSH0 DUP1 REVERT JUMPDEST POP PUSH2 0x598 DUP1 PUSH2 0x1C PUSH0 CODECOPY PUSH0 RETURN INVALID PUSH1 0x80 PUSH1 0x40 MSTORE PUSH1 0x4 CALLDATASIZE LT PUSH2 0x21 JUMPI PUSH0 CALLDATALOAD PUSH1 0xE0 SHR DUP1 PUSH4 0x24CCAB8F EQ PUSH2 0x9C JUMPI PUSH2 0x61 JUMP JUMPDEST CALLDATASIZE PUSH2 0x61 JUMPI PUSH32 0x59E04C3F0D44B7CAF6E8EF854B61D9A51CF1960D7A88FF6356CC5E946B4B5832 CALLER CALLVALUE PUSH1 0x40 MLOAD PUSH2 0x57 SWAP3 SWAP2 SWAP1 PUSH2 0x1CE JUMP JUMPDEST PUSH1 0x40 MLOAD DUP1 SWAP2 SUB SWAP1 LOG1 STOP JUMPDEST PUSH32 0x59E04C3F0D44B7CAF6E8EF854B61D9A51CF1960D7A88FF6356CC5E946B4B5832 CALLER CALLVALUE PUSH1 0x40 MLOAD PUSH2 0x92 SWAP3 SWAP2 SWAP1 PUSH2 0x252 JUMP JUMPDEST PUSH1 0x40 MLOAD DUP1 SWAP2 SUB SWAP1 LOG1 STOP JUMPDEST PUSH2 0xB6 PUSH1 0x4 DUP1 CALLDATASIZE SUB DUP2 ADD SWAP1 PUSH2 0xB1 SWAP2 SWAP1 PUSH2 0x403 JUMP JUMPDEST PUSH2 0xCC JUMP JUMPDEST PUSH1 0x40 MLOAD PUSH2 0xC3 SWAP2 SWAP1 PUSH2 0x45D JUMP JUMPDEST PUSH1 0x40 MLOAD DUP1 SWAP2 SUB SWAP1 RETURN JUMPDEST PUSH0 PUSH32 0x59E04C3F0D44B7CAF6E8EF854B61D9A51CF1960D7A88FF6356CC5E946B4B5832 CALLER CALLVALUE DUP6 PUSH1 0x40 MLOAD PUSH2 0x100 SWAP4 SWAP3 SWAP2 SWAP1 PUSH2 0x4C6 JUMP JUMPDEST PUSH1 0x40 MLOAD DUP1 SWAP2 SUB SWAP1 LOG1 PUSH1 0x1 DUP3 PUSH2 0x115 SWAP2 SWAP1 PUSH2 0x52F JUMP JUMPDEST SWAP1 POP SWAP3 SWAP2 POP POP JUMP JUMPDEST PUSH0 PUSH20 0xFFFFFFFFFFFFFFFFFFFFFFFFFFFFFFFFFFFFFFFF DUP3 AND SWAP1 POP SWAP2 SWAP1 POP JUMP JUMPDEST PUSH0 PUSH2 0x146 DUP3 PUSH2 0x11D JUMP JUMPDEST SWAP1 POP SWAP2 SWAP1 POP JUMP JUMPDEST PUSH2 0x156 DUP2 PUSH2 0x13C JUMP JUMPDEST DUP3 MSTORE POP POP JUMP JUMPDEST PUSH0 DUP2 SWAP1 POP SWAP2 SWAP1 POP JUMP JUMPDEST PUSH2 0x16E DUP2 PUSH2 0x15C JUMP JUMPDEST DUP3 MSTORE POP POP JUMP JUMPDEST PUSH0 DUP3 DUP3 MSTORE PUSH1 0x20 DUP3 ADD SWAP1 POP SWAP3 SWAP2 POP POP JUMP JUMPDEST PUSH32 0x4574686572207265636569766564000000000000000000000000000000000000 PUSH0 DUP3 ADD MSTORE POP JUMP JUMPDEST PUSH0 PUSH2 0x1B8 PUSH1 0xE DUP4 PUSH2 0x174 JUMP JUMPDEST SWAP2 POP PUSH2 0x1C3 DUP3 PUSH2 0x184 JUMP JUMPDEST PUSH1 0x20 DUP3 ADD SWAP1 POP SWAP2 SWAP1 POP JUMP JUMPDEST PUSH0 PUSH1 0x60 DUP3 ADD SWAP1 POP PUSH2 0x1E1 PUSH0 DUP4 ADD DUP6 PUSH2 0x14D JUMP JUMPDEST PUSH2 0x1EE PUSH1 0x20 DUP4 ADD DUP5 PUSH2 0x165 JUMP JUMPDEST DUP2 DUP2 SUB PUSH1 0x40 DUP4 ADD MSTORE PUSH2 0x1FF DUP2 PUSH2 0x1AC JUMP JUMPDEST SWAP1 POP SWAP4 SWAP3 POP POP POP JUMP JUMPDEST PUSH32 0x46616C6C6261636B207761732063616C6C656400000000000000000000000000 PUSH0 DUP3 ADD MSTORE POP JUMP JUMPDEST PUSH0 PUSH2 0x23C PUSH1 0x13 DUP4 PUSH2 0x174 JUMP JUMPDEST SWAP2 POP PUSH2 0x247 DUP3 PUSH2 0x208 JUMP JUMPDEST PUSH1 0x20 DUP3 ADD SWAP1 POP SWAP2 SWAP1 POP JUMP JUMPDEST PUSH0 PUSH1 0x60 DUP3 ADD SWAP1 POP PUSH2 0x265 PUSH0 DUP4 ADD DUP6 PUSH2 0x14D JUMP JUMPDEST PUSH2 0x272 PUSH1 0x20 DUP4 ADD DUP5 PUSH2 0x165 JUMP JUMPDEST DUP2 DUP2 SUB PUSH1 0x40 DUP4 ADD MSTORE PUSH2 0x283 DUP2 PUSH2 0x230 JUMP JUMPDEST SWAP1 POP SWAP4 SWAP3 POP POP POP JUMP JUMPDEST PUSH0 PUSH1 0x40 MLOAD SWAP1 POP SWAP1 JUMP JUMPDEST PUSH0 DUP1 REVERT JUMPDEST PUSH0 DUP1 REVERT JUMPDEST PUSH0 DUP1 REVERT JUMPDEST PUSH0 DUP1 REVERT JUMPDEST PUSH0 PUSH1 0x1F NOT PUSH1 0x1F DUP4 ADD AND SWAP1 POP SWAP2 SWAP1 POP JUMP JUMPDEST PUSH32 0x4E487B7100000000000000000000000000000000000000000000000000000000 PUSH0 MSTORE PUSH1 0x41 PUSH1 0x4 MSTORE PUSH1 0x24 PUSH0 REVERT JUMPDEST PUSH2 0x2EB DUP3 PUSH2 0x2A5 JUMP JUMPDEST DUP2 ADD DUP2 DUP2 LT PUSH8 0xFFFFFFFFFFFFFFFF DUP3 GT OR ISZERO PUSH2 0x30A JUMPI PUSH2 0x309 PUSH2 0x2B5 JUMP JUMPDEST JUMPDEST DUP1 PUSH1 0x40 MSTORE POP POP POP JUMP JUMPDEST PUSH0 PUSH2 0x31C PUSH2 0x28C JUMP JUMPDEST SWAP1 POP PUSH2 0x328 DUP3 DUP3 PUSH2 0x2E2 JUMP JUMPDEST SWAP2 SWAP1 POP JUMP JUMPDEST PUSH0 PUSH8 0xFFFFFFFFFFFFFFFF DUP3 GT ISZERO PUSH2 0x347 JUMPI PUSH2 0x346 PUSH2 0x2B5 JUMP JUMPDEST JUMPDEST PUSH2 0x350 DUP3 PUSH2 0x2A5 JUMP JUMPDEST SWAP1 POP PUSH1 0x20 DUP2 ADD SWAP1 POP SWAP2 SWAP1 POP JUMP JUMPDEST DUP3 DUP2 DUP4 CALLDATACOPY PUSH0 DUP4 DUP4 ADD MSTORE POP POP POP JUMP JUMPDEST PUSH0 PUSH2 0x37D PUSH2 0x378 DUP5 PUSH2 0x32D JUMP JUMPDEST PUSH2 0x313 JUMP JUMPDEST SWAP1 POP DUP3 DUP2 MSTORE PUSH1 0x20 DUP2 ADD DUP5 DUP5 DUP5 ADD GT ISZERO PUSH2 0x399 JUMPI PUSH2 0x398 PUSH2 0x2A1 JUMP JUMPDEST JUMPDEST PUSH2 0x3A4 DUP5 DUP3 DUP6 PUSH2 0x35D JUMP JUMPDEST POP SWAP4 SWAP3 POP POP POP JUMP JUMPDEST PUSH0 DUP3 PUSH1 0x1F DUP4 ADD SLT PUSH2 0x3C0 JUMPI PUSH2 0x3BF PUSH2 0x29D JUMP JUMPDEST JUMPDEST DUP2 CALLDATALOAD PUSH2 0x3D0 DUP5 DUP3 PUSH1 0x20 DUP7 ADD PUSH2 0x36B JUMP JUMPDEST SWAP2 POP POP SWAP3 SWAP2 POP POP JUMP JUMPDEST PUSH2 0x3E2 DUP2 PUSH2 0x15C JUMP JUMPDEST DUP2 EQ PUSH2 0x3EC JUMPI PUSH0 DUP1 REVERT JUMPDEST POP JUMP JUMPDEST PUSH0 DUP2 CALLDATALOAD SWAP1 POP PUSH2 0x3FD DUP2 PUSH2 0x3D9 JUMP JUMPDEST SWAP3 SWAP2 POP POP JUMP JUMPDEST PUSH0 DUP1 PUSH1 0x40 DUP4 DUP6 SUB SLT ISZERO PUSH2 0x419 JUMPI PUSH2 0x418 PUSH2 0x295 JUMP JUMPDEST JUMPDEST PUSH0 DUP4 ADD CALLDATALOAD PUSH8 0xFFFFFFFFFFFFFFFF DUP2 GT ISZERO PUSH2 0x436 JUMPI PUSH2 0x435 PUSH2 0x299 JUMP JUMPDEST JUMPDEST PUSH2 0x442 DUP6 DUP3 DUP7 ADD PUSH2 0x3AC JUMP JUMPDEST SWAP3 POP POP PUSH1 0x20 PUSH2 0x453 DUP6 DUP3 DUP7 ADD PUSH2 0x3EF JUMP JUMPDEST SWAP2 POP POP SWAP3 POP SWAP3 SWAP1 POP JUMP JUMPDEST PUSH0 PUSH1 0x20 DUP3 ADD SWAP1 POP PUSH2 0x470 PUSH0 DUP4 ADD DUP5 PUSH2 0x165 JUMP JUMPDEST SWAP3 SWAP2 POP POP JUMP JUMPDEST PUSH0 DUP2 MLOAD SWAP1 POP SWAP2 SWAP1 POP JUMP JUMPDEST DUP3 DUP2 DUP4 MCOPY PUSH0 DUP4 DUP4 ADD MSTORE POP POP POP JUMP JUMPDEST PUSH0 PUSH2 0x498 DUP3 PUSH2 0x476 JUMP JUMPDEST PUSH2 0x4A2 DUP2 DUP6 PUSH2 0x174 JUMP JUMPDEST SWAP4 POP PUSH2 0x4B2 DUP2 DUP6 PUSH1 0x20 DUP7 ADD PUSH2 0x480 JUMP JUMPDEST PUSH2 0x4BB DUP2 PUSH2 0x2A5 JUMP JUMPDEST DUP5 ADD SWAP2 POP POP SWAP3 SWAP2 POP POP JUMP JUMPDEST PUSH0 PUSH1 0x60 DUP3 ADD SWAP1 POP PUSH2 0x4D9 PUSH0 DUP4 ADD DUP7 PUSH2 0x14D JUMP JUMPDEST PUSH2 0x4E6 PUSH1 0x20 DUP4 ADD DUP6 PUSH2 0x165 JUMP JUMPDEST DUP2 DUP2 SUB PUSH1 0x40 DUP4 ADD MSTORE PUSH2 0x4F8 DUP2 DUP5 PUSH2 0x48E JUMP JUMPDEST SWAP1 POP SWAP5 SWAP4 POP POP POP POP JUMP JUMPDEST PUSH32 0x4E487B7100000000000000000000000000000000000000000000000000000000 PUSH0 MSTORE PUSH1 0x11 PUSH1 0x4 MSTORE PUSH1 0x24 PUSH0 REVERT JUMPDEST PUSH0 PUSH2 0x539 DUP3 PUSH2 0x15C JUMP JUMPDEST SWAP2 POP PUSH2 0x544 DUP4 PUSH2 0x15C JUMP JUMPDEST SWAP3 POP DUP3 DUP3 ADD SWAP1 POP DUP1 DUP3 GT ISZERO PUSH2 0x55C JUMPI PUSH2 0x55B PUSH2 0x502 JUMP JUMPDEST JUMPDEST SWAP3 SWAP2 POP POP JUMP INVALID LOG2 PUSH5 0x6970667358 0x22 SLT KECCAK256 0x4E DUP4 0x25 0xBE PUSH12 0x324807C0052E3A9E38A52794 SUB PUSH23 0x8DE26FECE9C9DE8787D808B98164736F6C634300081A00 CALLER "
				},
				"gasEstimates": {
					"creation": {
						"codeDepositCost": "286400",
						"executionCost": "322",
						"totalCost": "286722"
					},
					"external": {
						"": "2643",
						"foo(string,uint256)": "infinite"
					}
				},
				"methodIdentifiers": {
					"foo(string,uint256)": "24ccab8f"
				}
			},
			"storageLayout": {
				"storage": [],
				"types": null
			},
			"userdoc": {
				"kind": "user",
				"methods": {},
				"version": 1
			}
		}
	}
}