{
	"contracts/LibraryMath.sol": {
		"TestMath": {
			"abi": [
				{
					"inputs": [
						{
							"internalType": "uint256",
							"name": "x",
							"type": "uint256"
						}
					],
					"name": "testSquareRoot",
					"outputs": [
						{
							"internalType": "uint256",
							"name": "",
							"type": "uint256"
						}
					],
					"stateMutability": "pure",
					"type": "function"
				}
			],
			"devdoc": {
				"kind": "dev",
				"methods": {},
				"version": 1
			},
			"evm": {
				"assembly": "    /* \"contracts/LibraryMath.sol\":392:516  contract TestMath{... */\n  mstore(0x40, 0x80)\n  callvalue\n  dup1\n  iszero\n  tag_1\n  jumpi\n  0x00\n  dup1\n  revert\ntag_1:\n  pop\n  dataSize(sub_0)\n  dup1\n  dataOffset(sub_0)\n  0x00\n  codecopy\n  0x00\n  return\nstop\n\nsub_0: assembly {\n        /* \"contracts/LibraryMath.sol\":392:516  contract TestMath{... */\n      mstore(0x40, 0x80)\n      callvalue\n      dup1\n      iszero\n      tag_1\n      jumpi\n      0x00\n      dup1\n      revert\n    tag_1:\n      pop\n      jumpi(tag_2, lt(calldatasize, 0x04))\n      shr(0xe0, calldataload(0x00))\n      dup1\n      0x6039b0bd\n      eq\n      tag_3\n      jumpi\n    tag_2:\n      0x00\n      dup1\n      revert\n        /* \"contracts/LibraryMath.sol\":416:513  function testSquareRoot(uint x) public pure returns (uint) {... */\n    tag_3:\n      tag_4\n      0x04\n      dup1\n      calldatasize\n      sub\n      dup2\n      add\n      swap1\n      tag_5\n      swap2\n      swap1\n      tag_6\n      jump\t// in\n    tag_5:\n      tag_7\n      jump\t// in\n    tag_4:\n      mload(0x40)\n      tag_8\n      swap2\n      swap1\n      tag_9\n      jump\t// in\n    tag_8:\n      mload(0x40)\n      dup1\n      swap2\n      sub\n      swap1\n      return\n    tag_7:\n        /* \"contracts/LibraryMath.sol\":469:473  uint */\n      0x00\n        /* \"contracts/LibraryMath.sol\":493:505  Math.sqrt(x) */\n      tag_11\n        /* \"contracts/LibraryMath.sol\":503:504  x */\n      dup3\n        /* \"contracts/LibraryMath.sol\":493:502  Math.sqrt */\n      tag_12\n        /* \"contracts/LibraryMath.sol\":493:505  Math.sqrt(x) */\n      jump\t// in\n    tag_11:\n        /* \"contracts/LibraryMath.sol\":486:505  return Math.sqrt(x) */\n      swap1\n      pop\n        /* \"contracts/LibraryMath.sol\":416:513  function testSquareRoot(uint x) public pure returns (uint) {... */\n      swap2\n      swap1\n      pop\n      jump\t// out\n        /* \"contracts/LibraryMath.sol\":83:385  function sqrt(uint y) internal pure returns (uint z) {... */\n    tag_12:\n        /* \"contracts/LibraryMath.sol\":128:134  uint z */\n      0x00\n        /* \"contracts/LibraryMath.sol\":155:156  3 */\n      0x03\n        /* \"contracts/LibraryMath.sol\":151:152  y */\n      dup3\n        /* \"contracts/LibraryMath.sol\":151:156  y > 3 */\n      gt\n        /* \"contracts/LibraryMath.sol\":147:378  if (y > 3) {... */\n      iszero\n      tag_14\n      jumpi\n        /* \"contracts/LibraryMath.sol\":177:178  y */\n      dup2\n        /* \"contracts/LibraryMath.sol\":173:178  z = y */\n      swap1\n      pop\n        /* \"contracts/LibraryMath.sol\":193:199  uint x */\n      0x00\n        /* \"contracts/LibraryMath.sol\":210:211  1 */\n      0x01\n        /* \"contracts/LibraryMath.sol\":206:207  2 */\n      0x02\n        /* \"contracts/LibraryMath.sol\":202:203  y */\n      dup5\n        /* \"contracts/LibraryMath.sol\":202:207  y / 2 */\n      tag_15\n      swap2\n      swap1\n      tag_16\n      jump\t// in\n    tag_15:\n        /* \"contracts/LibraryMath.sol\":202:211  y / 2 + 1 */\n      tag_17\n      swap2\n      swap1\n      tag_18\n      jump\t// in\n    tag_17:\n        /* \"contracts/LibraryMath.sol\":193:211  uint x = y / 2 + 1 */\n      swap1\n      pop\n        /* \"contracts/LibraryMath.sol\":226:318  while (x < z) {... */\n    tag_19:\n        /* \"contracts/LibraryMath.sol\":237:238  z */\n      dup2\n        /* \"contracts/LibraryMath.sol\":233:234  x */\n      dup2\n        /* \"contracts/LibraryMath.sol\":233:238  x < z */\n      lt\n        /* \"contracts/LibraryMath.sol\":226:318  while (x < z) {... */\n      iszero\n      tag_20\n      jumpi\n        /* \"contracts/LibraryMath.sol\":263:264  x */\n      dup1\n        /* \"contracts/LibraryMath.sol\":259:264  z = x */\n      swap2\n      pop\n        /* \"contracts/LibraryMath.sol\":301:302  2 */\n      0x02\n        /* \"contracts/LibraryMath.sol\":296:297  x */\n      dup2\n        /* \"contracts/LibraryMath.sol\":292:293  x */\n      dup3\n        /* \"contracts/LibraryMath.sol\":288:289  y */\n      dup6\n        /* \"contracts/LibraryMath.sol\":288:293  y / x */\n      tag_21\n      swap2\n      swap1\n      tag_16\n      jump\t// in\n    tag_21:\n        /* \"contracts/LibraryMath.sol\":288:297  y / x + x */\n      tag_22\n      swap2\n      swap1\n      tag_18\n      jump\t// in\n    tag_22:\n        /* \"contracts/LibraryMath.sol\":287:302  (y / x + x) / 2 */\n      tag_23\n      swap2\n      swap1\n      tag_16\n      jump\t// in\n    tag_23:\n        /* \"contracts/LibraryMath.sol\":283:302  x = (y / x + x) / 2 */\n      swap1\n      pop\n        /* \"contracts/LibraryMath.sol\":226:318  while (x < z) {... */\n      jump(tag_19)\n    tag_20:\n        /* \"contracts/LibraryMath.sol\":158:329  {... */\n      pop\n        /* \"contracts/LibraryMath.sol\":147:378  if (y > 3) {... */\n      jump(tag_24)\n    tag_14:\n        /* \"contracts/LibraryMath.sol\":344:345  0 */\n      0x00\n        /* \"contracts/LibraryMath.sol\":339:340  y */\n      dup3\n        /* \"contracts/LibraryMath.sol\":339:345  y != 0 */\n      eq\n        /* \"contracts/LibraryMath.sol\":335:378  if (y != 0){... */\n      tag_25\n      jumpi\n        /* \"contracts/LibraryMath.sol\":365:366  1 */\n      0x01\n        /* \"contracts/LibraryMath.sol\":361:366  z = 1 */\n      swap1\n      pop\n        /* \"contracts/LibraryMath.sol\":335:378  if (y != 0){... */\n    tag_25:\n        /* \"contracts/LibraryMath.sol\":147:378  if (y > 3) {... */\n    tag_24:\n        /* \"contracts/LibraryMath.sol\":83:385  function sqrt(uint y) internal pure returns (uint z) {... */\n      swap2\n      swap1\n      pop\n      jump\t// out\n        /* \"#utility.yul\":88:205   */\n    tag_27:\n        /* \"#utility.yul\":197:198   */\n      0x00\n        /* \"#utility.yul\":194:195   */\n      dup1\n        /* \"#utility.yul\":187:199   */\n      revert\n        /* \"#utility.yul\":334:411   */\n    tag_29:\n        /* \"#utility.yul\":371:378   */\n      0x00\n        /* \"#utility.yul\":400:405   */\n      dup2\n        /* \"#utility.yul\":389:405   */\n      swap1\n      pop\n        /* \"#utility.yul\":334:411   */\n      swap2\n      swap1\n      pop\n      jump\t// out\n        /* \"#utility.yul\":417:539   */\n    tag_30:\n        /* \"#utility.yul\":490:514   */\n      tag_41\n        /* \"#utility.yul\":508:513   */\n      dup2\n        /* \"#utility.yul\":490:514   */\n      tag_29\n      jump\t// in\n    tag_41:\n        /* \"#utility.yul\":483:488   */\n      dup2\n        /* \"#utility.yul\":480:515   */\n      eq\n        /* \"#utility.yul\":470:533   */\n      tag_42\n      jumpi\n        /* \"#utility.yul\":529:530   */\n      0x00\n        /* \"#utility.yul\":526:527   */\n      dup1\n        /* \"#utility.yul\":519:531   */\n      revert\n        /* \"#utility.yul\":470:533   */\n    tag_42:\n        /* \"#utility.yul\":417:539   */\n      pop\n      jump\t// out\n        /* \"#utility.yul\":545:684   */\n    tag_31:\n        /* \"#utility.yul\":591:596   */\n      0x00\n        /* \"#utility.yul\":629:635   */\n      dup2\n        /* \"#utility.yul\":616:636   */\n      calldataload\n        /* \"#utility.yul\":607:636   */\n      swap1\n      pop\n        /* \"#utility.yul\":645:678   */\n      tag_44\n        /* \"#utility.yul\":672:677   */\n      dup2\n        /* \"#utility.yul\":645:678   */\n      tag_30\n      jump\t// in\n    tag_44:\n        /* \"#utility.yul\":545:684   */\n      swap3\n      swap2\n      pop\n      pop\n      jump\t// out\n        /* \"#utility.yul\":690:1019   */\n    tag_6:\n        /* \"#utility.yul\":749:755   */\n      0x00\n        /* \"#utility.yul\":798:800   */\n      0x20\n        /* \"#utility.yul\":786:795   */\n      dup3\n        /* \"#utility.yul\":777:784   */\n      dup5\n        /* \"#utility.yul\":773:796   */\n      sub\n        /* \"#utility.yul\":769:801   */\n      slt\n        /* \"#utility.yul\":766:885   */\n      iszero\n      tag_46\n      jumpi\n        /* \"#utility.yul\":804:883   */\n      tag_47\n      tag_27\n      jump\t// in\n    tag_47:\n        /* \"#utility.yul\":766:885   */\n    tag_46:\n        /* \"#utility.yul\":924:925   */\n      0x00\n        /* \"#utility.yul\":949:1002   */\n      tag_48\n        /* \"#utility.yul\":994:1001   */\n      dup5\n        /* \"#utility.yul\":985:991   */\n      dup3\n        /* \"#utility.yul\":974:983   */\n      dup6\n        /* \"#utility.yul\":970:992   */\n      add\n        /* \"#utility.yul\":949:1002   */\n      tag_31\n      jump\t// in\n    tag_48:\n        /* \"#utility.yul\":939:1002   */\n      swap2\n      pop\n        /* \"#utility.yul\":895:1012   */\n      pop\n        /* \"#utility.yul\":690:1019   */\n      swap3\n      swap2\n      pop\n      pop\n      jump\t// out\n        /* \"#utility.yul\":1025:1143   */\n    tag_32:\n        /* \"#utility.yul\":1112:1136   */\n      tag_50\n        /* \"#utility.yul\":1130:1135   */\n      dup2\n        /* \"#utility.yul\":1112:1136   */\n      tag_29\n      jump\t// in\n    tag_50:\n        /* \"#utility.yul\":1107:1110   */\n      dup3\n        /* \"#utility.yul\":1100:1137   */\n      mstore\n        /* \"#utility.yul\":1025:1143   */\n      pop\n      pop\n      jump\t// out\n        /* \"#utility.yul\":1149:1371   */\n    tag_9:\n        /* \"#utility.yul\":1242:1246   */\n      0x00\n        /* \"#utility.yul\":1280:1282   */\n      0x20\n        /* \"#utility.yul\":1269:1278   */\n      dup3\n        /* \"#utility.yul\":1265:1283   */\n      add\n        /* \"#utility.yul\":1257:1283   */\n      swap1\n      pop\n        /* \"#utility.yul\":1293:1364   */\n      tag_52\n        /* \"#utility.yul\":1361:1362   */\n      0x00\n        /* \"#utility.yul\":1350:1359   */\n      dup4\n        /* \"#utility.yul\":1346:1363   */\n      add\n        /* \"#utility.yul\":1337:1343   */\n      dup5\n        /* \"#utility.yul\":1293:1364   */\n      tag_32\n      jump\t// in\n    tag_52:\n        /* \"#utility.yul\":1149:1371   */\n      swap3\n      swap2\n      pop\n      pop\n      jump\t// out\n        /* \"#utility.yul\":1377:1557   */\n    tag_33:\n        /* \"#utility.yul\":1425:1502   */\n      0x4e487b7100000000000000000000000000000000000000000000000000000000\n        /* \"#utility.yul\":1422:1423   */\n      0x00\n        /* \"#utility.yul\":1415:1503   */\n      mstore\n        /* \"#utility.yul\":1522:1526   */\n      0x12\n        /* \"#utility.yul\":1519:1520   */\n      0x04\n        /* \"#utility.yul\":1512:1527   */\n      mstore\n        /* \"#utility.yul\":1546:1550   */\n      0x24\n        /* \"#utility.yul\":1543:1544   */\n      0x00\n        /* \"#utility.yul\":1536:1551   */\n      revert\n        /* \"#utility.yul\":1563:1743   */\n    tag_34:\n        /* \"#utility.yul\":1611:1688   */\n      0x4e487b7100000000000000000000000000000000000000000000000000000000\n        /* \"#utility.yul\":1608:1609   */\n      0x00\n        /* \"#utility.yul\":1601:1689   */\n      mstore\n        /* \"#utility.yul\":1708:1712   */\n      0x11\n        /* \"#utility.yul\":1705:1706   */\n      0x04\n        /* \"#utility.yul\":1698:1713   */\n      mstore\n        /* \"#utility.yul\":1732:1736   */\n      0x24\n        /* \"#utility.yul\":1729:1730   */\n      0x00\n        /* \"#utility.yul\":1722:1737   */\n      revert\n        /* \"#utility.yul\":1749:1934   */\n    tag_16:\n        /* \"#utility.yul\":1789:1790   */\n      0x00\n        /* \"#utility.yul\":1806:1826   */\n      tag_56\n        /* \"#utility.yul\":1824:1825   */\n      dup3\n        /* \"#utility.yul\":1806:1826   */\n      tag_29\n      jump\t// in\n    tag_56:\n        /* \"#utility.yul\":1801:1826   */\n      swap2\n      pop\n        /* \"#utility.yul\":1840:1860   */\n      tag_57\n        /* \"#utility.yul\":1858:1859   */\n      dup4\n        /* \"#utility.yul\":1840:1860   */\n      tag_29\n      jump\t// in\n    tag_57:\n        /* \"#utility.yul\":1835:1860   */\n      swap3\n      pop\n        /* \"#utility.yul\":1879:1880   */\n      dup3\n        /* \"#utility.yul\":1869:1904   */\n      tag_58\n      jumpi\n        /* \"#utility.yul\":1884:1902   */\n      tag_59\n      tag_33\n      jump\t// in\n    tag_59:\n        /* \"#utility.yul\":1869:1904   */\n    tag_58:\n        /* \"#utility.yul\":1926:1927   */\n      dup3\n        /* \"#utility.yul\":1923:1924   */\n      dup3\n        /* \"#utility.yul\":1919:1928   */\n      div\n        /* \"#utility.yul\":1914:1928   */\n      swap1\n      pop\n        /* \"#utility.yul\":1749:1934   */\n      swap3\n      swap2\n      pop\n      pop\n      jump\t// out\n        /* \"#utility.yul\":1940:2131   */\n    tag_18:\n        /* \"#utility.yul\":1980:1983   */\n      0x00\n        /* \"#utility.yul\":1999:2019   */\n      tag_61\n        /* \"#utility.yul\":2017:2018   */\n      dup3\n        /* \"#utility.yul\":1999:2019   */\n      tag_29\n      jump\t// in\n    tag_61:\n        /* \"#utility.yul\":1994:2019   */\n      swap2\n      pop\n        /* \"#utility.yul\":2033:2053   */\n      tag_62\n        /* \"#utility.yul\":2051:2052   */\n      dup4\n        /* \"#utility.yul\":2033:2053   */\n      tag_29\n      jump\t// in\n    tag_62:\n        /* \"#utility.yul\":2028:2053   */\n      swap3\n      pop\n        /* \"#utility.yul\":2076:2077   */\n      dup3\n        /* \"#utility.yul\":2073:2074   */\n      dup3\n        /* \"#utility.yul\":2069:2078   */\n      add\n        /* \"#utility.yul\":2062:2078   */\n      swap1\n      pop\n        /* \"#utility.yul\":2097:2100   */\n      dup1\n        /* \"#utility.yul\":2094:2095   */\n      dup3\n        /* \"#utility.yul\":2091:2101   */\n      gt\n        /* \"#utility.yul\":2088:2124   */\n      iszero\n      tag_63\n      jumpi\n        /* \"#utility.yul\":2104:2122   */\n      tag_64\n      tag_34\n      jump\t// in\n    tag_64:\n        /* \"#utility.yul\":2088:2124   */\n    tag_63:\n        /* \"#utility.yul\":1940:2131   */\n      swap3\n      swap2\n      pop\n      pop\n      jump\t// out\n\n    auxdata: 0xa26469706673582212208387fab94b702736245595d6dbd0862c9c37d1006125a67cb7c3f2fb45020d6a64736f6c634300081a0033\n}\n",
				"bytecode": {
					"linkReferences": {},
					"object": "6080604052348015600e575f80fd5b506102628061001c5f395ff3fe608060405234801561000f575f80fd5b5060043610610029575f3560e01c80636039b0bd1461002d575b5f80fd5b6100476004803603810190610042919061011c565b61005d565b6040516100549190610156565b60405180910390f35b5f6100678261006e565b9050919050565b5f60038211156100d3578190505f600160028461008b91906101c9565b61009591906101f9565b90505b818110156100cd5780915060028182856100b291906101c9565b6100bc91906101f9565b6100c691906101c9565b9050610098565b506100e0565b5f82146100df57600190505b5b919050565b5f80fd5b5f819050919050565b6100fb816100e9565b8114610105575f80fd5b50565b5f81359050610116816100f2565b92915050565b5f60208284031215610131576101306100e5565b5b5f61013e84828501610108565b91505092915050565b610150816100e9565b82525050565b5f6020820190506101695f830184610147565b92915050565b7f4e487b71000000000000000000000000000000000000000000000000000000005f52601260045260245ffd5b7f4e487b71000000000000000000000000000000000000000000000000000000005f52601160045260245ffd5b5f6101d3826100e9565b91506101de836100e9565b9250826101ee576101ed61016f565b5b828204905092915050565b5f610203826100e9565b915061020e836100e9565b92508282019050808211156102265761022561019c565b5b9291505056fea26469706673582212208387fab94b702736245595d6dbd0862c9c37d1006125a67cb7c3f2fb45020d6a64736f6c634300081a0033",
					"opcodes": "PUSH1 0x80 PUSH1 0x40 MSTORE CALLVALUE DUP1 ISZERO PUSH1 0xE JUMPI PUSH0 DUP1 REVERT JUMPDEST POP PUSH2 0x262 DUP1 PUSH2 0x1C PUSH0 CODECOPY PUSH0 RETURN INVALID PUSH1 0x80 PUSH1 0x40 MSTORE CALLVALUE DUP1 ISZERO PUSH2 0xF JUMPI PUSH0 DUP1 REVERT JUMPDEST POP PUSH1 0x4 CALLDATASIZE LT PUSH2 0x29 JUMPI PUSH0 CALLDATALOAD PUSH1 0xE0 SHR DUP1 PUSH4 0x6039B0BD EQ PUSH2 0x2D JUMPI JUMPDEST PUSH0 DUP1 REVERT JUMPDEST PUSH2 0x47 PUSH1 0x4 DUP1 CALLDATASIZE SUB DUP2 ADD SWAP1 PUSH2 0x42 SWAP2 SWAP1 PUSH2 0x11C JUMP JUMPDEST PUSH2 0x5D JUMP JUMPDEST PUSH1 0x40 MLOAD PUSH2 0x54 SWAP2 SWAP1 PUSH2 0x156 JUMP JUMPDEST PUSH1 0x40 MLOAD DUP1 SWAP2 SUB SWAP1 RETURN JUMPDEST PUSH0 PUSH2 0x67 DUP3 PUSH2 0x6E JUMP JUMPDEST SWAP1 POP SWAP2 SWAP1 POP JUMP JUMPDEST PUSH0 PUSH1 0x3 DUP3 GT ISZERO PUSH2 0xD3 JUMPI DUP2 SWAP1 POP PUSH0 PUSH1 0x1 PUSH1 0x2 DUP5 PUSH2 0x8B SWAP2 SWAP1 PUSH2 0x1C9 JUMP JUMPDEST PUSH2 0x95 SWAP2 SWAP1 PUSH2 0x1F9 JUMP JUMPDEST SWAP1 POP JUMPDEST DUP2 DUP2 LT ISZERO PUSH2 0xCD JUMPI DUP1 SWAP2 POP PUSH1 0x2 DUP2 DUP3 DUP6 PUSH2 0xB2 SWAP2 SWAP1 PUSH2 0x1C9 JUMP JUMPDEST PUSH2 0xBC SWAP2 SWAP1 PUSH2 0x1F9 JUMP JUMPDEST PUSH2 0xC6 SWAP2 SWAP1 PUSH2 0x1C9 JUMP JUMPDEST SWAP1 POP PUSH2 0x98 JUMP JUMPDEST POP PUSH2 0xE0 JUMP JUMPDEST PUSH0 DUP3 EQ PUSH2 0xDF JUMPI PUSH1 0x1 SWAP1 POP JUMPDEST JUMPDEST SWAP2 SWAP1 POP JUMP JUMPDEST PUSH0 DUP1 REVERT JUMPDEST PUSH0 DUP2 SWAP1 POP SWAP2 SWAP1 POP JUMP JUMPDEST PUSH2 0xFB DUP2 PUSH2 0xE9 JUMP JUMPDEST DUP2 EQ PUSH2 0x105 JUMPI PUSH0 DUP1 REVERT JUMPDEST POP JUMP JUMPDEST PUSH0 DUP2 CALLDATALOAD SWAP1 POP PUSH2 0x116 DUP2 PUSH2 0xF2 JUMP JUMPDEST SWAP3 SWAP2 POP POP JUMP JUMPDEST PUSH0 PUSH1 0x20 DUP3 DUP5 SUB SLT ISZERO PUSH2 0x131 JUMPI PUSH2 0x130 PUSH2 0xE5 JUMP JUMPDEST JUMPDEST PUSH0 PUSH2 0x13E DUP5 DUP3 DUP6 ADD PUSH2 0x108 JUMP JUMPDEST SWAP2 POP POP SWAP3 SWAP2 POP POP JUMP JUMPDEST PUSH2 0x150 DUP2 PUSH2 0xE9 JUMP JUMPDEST DUP3 MSTORE POP POP JUMP JUMPDEST PUSH0 PUSH1 0x20 DUP3 ADD SWAP1 POP PUSH2 0x169 PUSH0 DUP4 ADD DUP5 PUSH2 0x147 JUMP JUMPDEST SWAP3 SWAP2 POP POP JUMP JUMPDEST PUSH32 0x4E487B7100000000000000000000000000000000000000000000000000000000 PUSH0 MSTORE PUSH1 0x12 PUSH1 0x4 MSTORE PUSH1 0x24 PUSH0 REVERT JUMPDEST PUSH32 0x4E487B7100000000000000000000000000000000000000000000000000000000 PUSH0 MSTORE PUSH1 0x11 PUSH1 0x4 MSTORE PUSH1 0x24 PUSH0 REVERT JUMPDEST PUSH0 PUSH2 0x1D3 DUP3 PUSH2 0xE9 JUMP JUMPDEST SWAP2 POP PUSH2 0x1DE DUP4 PUSH2 0xE9 JUMP JUMPDEST SWAP3 POP DUP3 PUSH2 0x1EE JUMPI PUSH2 0x1ED PUSH2 0x16F JUMP JUMPDEST JUMPDEST DUP3 DUP3 DIV SWAP1 POP SWAP3 SWAP2 POP POP JUMP JUMPDEST PUSH0 PUSH2 0x203 DUP3 PUSH2 0xE9 JUMP JUMPDEST SWAP2 POP PUSH2 0x20E DUP4 PUSH2 0xE9 JUMP JUMPDEST SWAP3 POP DUP3 DUP3 ADD SWAP1 POP DUP1 DUP3 GT ISZERO PUSH2 0x226 JUMPI PUSH2 0x225 PUSH2 0x19C JUMP JUMPDEST JUMPDEST SWAP3 SWAP2 POP POP JUMP INVALID LOG2 PUSH5 0x6970667358 0x22 SLT KECCAK256 DUP4 DUP8 STATICCALL 0xB9 0x4B PUSH17 0x2736245595D6DBD0862C9C37D1006125A6 PUSH29 0xB7C3F2FB45020D6A64736F6C634300081A003300000000000000000000 "
				},
				"gasEstimates": {
					"creation": {
						"codeDepositCost": "122000",
						"executionCost": "169",
						"totalCost": "122169"
					},
					"external": {
						"testSquareRoot(uint256)": "infinite"
					}
				},
				"methodIdentifiers": {
					"testSquareRoot(uint256)": "6039b0bd"
				}
			},
			"storageLayout": {
				"storage": [],
				"types": null
			},
			"userdoc": {
				"kind": "user",
				"methods": {},
				"version": 1
			}
		}
	}
}