{
	"contracts/View_keyword.sol": {
		"View": {
			"abi": [
				{
					"inputs": [],
					"name": "getProduct",
					"outputs": [
						{
							"internalType": "uint256",
							"name": "product",
							"type": "uint256"
						},
						{
							"internalType": "uint256",
							"name": "total",
							"type": "uint256"
						}
					],
					"stateMutability": "view",
					"type": "function"
				},
				{
					"inputs": [],
					"name": "getResult",
					"outputs": [
						{
							"internalType": "uint256",
							"name": "",
							"type": "uint256"
						},
						{
							"internalType": "uint256",
							"name": "",
							"type": "uint256"
						}
					],
					"stateMutability": "view",
					"type": "function"
				}
			],
			"devdoc": {
				"kind": "dev",
				"methods": {},
				"version": 1
			},
			"evm": {
				"assembly": "    /* \"contracts/View_keyword.sol\":74:451  contract View{... */\n  mstore(0x40, 0x80)\n    /* \"contracts/View_keyword.sol\":109:110  2 */\n  0x02\n    /* \"contracts/View_keyword.sol\":94:110  uint256 num1 = 2 */\n  0x00\n  sstore\n    /* \"contracts/View_keyword.sol\":132:133  7 */\n  0x07\n    /* \"contracts/View_keyword.sol\":117:133  uint256 num2 = 7 */\n  0x01\n  sstore\n    /* \"contracts/View_keyword.sol\":74:451  contract View{... */\n  callvalue\n  dup1\n  iszero\n  tag_1\n  jumpi\n  0x00\n  dup1\n  revert\ntag_1:\n  pop\n  dataSize(sub_0)\n  dup1\n  dataOffset(sub_0)\n  0x00\n  codecopy\n  0x00\n  return\nstop\n\nsub_0: assembly {\n        /* \"contracts/View_keyword.sol\":74:451  contract View{... */\n      mstore(0x40, 0x80)\n      callvalue\n      dup1\n      iszero\n      tag_1\n      jumpi\n      0x00\n      dup1\n      revert\n    tag_1:\n      pop\n      jumpi(tag_2, lt(calldatasize, 0x04))\n      shr(0xe0, calldataload(0x00))\n      dup1\n      0x4ba20050\n      eq\n      tag_3\n      jumpi\n      dup1\n      0xde292789\n      eq\n      tag_4\n      jumpi\n    tag_2:\n      0x00\n      dup1\n      revert\n        /* \"contracts/View_keyword.sol\":295:446  function getProduct() public view returns(uint256 product, uint256 total){... */\n    tag_3:\n      tag_5\n      tag_6\n      jump\t// in\n    tag_5:\n      mload(0x40)\n      tag_7\n      swap3\n      swap2\n      swap1\n      tag_8\n      jump\t// in\n    tag_7:\n      mload(0x40)\n      dup1\n      swap2\n      sub\n      swap1\n      return\n        /* \"contracts/View_keyword.sol\":191:287  function getResult() public view returns(uint256, uint256){... */\n    tag_4:\n      tag_9\n      tag_10\n      jump\t// in\n    tag_9:\n      mload(0x40)\n      tag_11\n      swap3\n      swap2\n      swap1\n      tag_8\n      jump\t// in\n    tag_11:\n      mload(0x40)\n      dup1\n      swap2\n      sub\n      swap1\n      return\n        /* \"contracts/View_keyword.sol\":295:446  function getProduct() public view returns(uint256 product, uint256 total){... */\n    tag_6:\n        /* \"contracts/View_keyword.sol\":337:352  uint256 product */\n      0x00\n        /* \"contracts/View_keyword.sol\":354:367  uint256 total */\n      dup1\n        /* \"contracts/View_keyword.sol\":396:400  num2 */\n      sload(0x01)\n        /* \"contracts/View_keyword.sol\":391:395  num1 */\n      sload(0x00)\n        /* \"contracts/View_keyword.sol\":391:400  num1*num2 */\n      tag_13\n      swap2\n      swap1\n      tag_14\n      jump\t// in\n    tag_13:\n        /* \"contracts/View_keyword.sol\":381:400  product = num1*num2 */\n      swap2\n      pop\n        /* \"contracts/View_keyword.sol\":424:428  num2 */\n      sload(0x01)\n        /* \"contracts/View_keyword.sol\":419:423  num1 */\n      sload(0x00)\n        /* \"contracts/View_keyword.sol\":419:428  num1+num2 */\n      tag_15\n      swap2\n      swap1\n      tag_16\n      jump\t// in\n    tag_15:\n        /* \"contracts/View_keyword.sol\":411:428  total = num1+num2 */\n      swap1\n      pop\n        /* \"contracts/View_keyword.sol\":295:446  function getProduct() public view returns(uint256 product, uint256 total){... */\n      swap1\n      swap2\n      jump\t// out\n        /* \"contracts/View_keyword.sol\":191:287  function getResult() public view returns(uint256, uint256){... */\n    tag_10:\n        /* \"contracts/View_keyword.sol\":232:239  uint256 */\n      0x00\n        /* \"contracts/View_keyword.sol\":241:248  uint256 */\n      dup1\n        /* \"contracts/View_keyword.sol\":268:272  num1 */\n      sload(0x00)\n        /* \"contracts/View_keyword.sol\":274:278  num2 */\n      sload(0x01)\n        /* \"contracts/View_keyword.sol\":260:279  return (num1, num2) */\n      swap2\n      pop\n      swap2\n      pop\n        /* \"contracts/View_keyword.sol\":191:287  function getResult() public view returns(uint256, uint256){... */\n      swap1\n      swap2\n      jump\t// out\n        /* \"#utility.yul\":7:84   */\n    tag_18:\n        /* \"#utility.yul\":44:51   */\n      0x00\n        /* \"#utility.yul\":73:78   */\n      dup2\n        /* \"#utility.yul\":62:78   */\n      swap1\n      pop\n        /* \"#utility.yul\":7:84   */\n      swap2\n      swap1\n      pop\n      jump\t// out\n        /* \"#utility.yul\":90:208   */\n    tag_19:\n        /* \"#utility.yul\":177:201   */\n      tag_24\n        /* \"#utility.yul\":195:200   */\n      dup2\n        /* \"#utility.yul\":177:201   */\n      tag_18\n      jump\t// in\n    tag_24:\n        /* \"#utility.yul\":172:175   */\n      dup3\n        /* \"#utility.yul\":165:202   */\n      mstore\n        /* \"#utility.yul\":90:208   */\n      pop\n      pop\n      jump\t// out\n        /* \"#utility.yul\":214:546   */\n    tag_8:\n        /* \"#utility.yul\":335:339   */\n      0x00\n        /* \"#utility.yul\":373:375   */\n      0x40\n        /* \"#utility.yul\":362:371   */\n      dup3\n        /* \"#utility.yul\":358:376   */\n      add\n        /* \"#utility.yul\":350:376   */\n      swap1\n      pop\n        /* \"#utility.yul\":386:457   */\n      tag_26\n        /* \"#utility.yul\":454:455   */\n      0x00\n        /* \"#utility.yul\":443:452   */\n      dup4\n        /* \"#utility.yul\":439:456   */\n      add\n        /* \"#utility.yul\":430:436   */\n      dup6\n        /* \"#utility.yul\":386:457   */\n      tag_19\n      jump\t// in\n    tag_26:\n        /* \"#utility.yul\":467:539   */\n      tag_27\n        /* \"#utility.yul\":535:537   */\n      0x20\n        /* \"#utility.yul\":524:533   */\n      dup4\n        /* \"#utility.yul\":520:538   */\n      add\n        /* \"#utility.yul\":511:517   */\n      dup5\n        /* \"#utility.yul\":467:539   */\n      tag_19\n      jump\t// in\n    tag_27:\n        /* \"#utility.yul\":214:546   */\n      swap4\n      swap3\n      pop\n      pop\n      pop\n      jump\t// out\n        /* \"#utility.yul\":552:732   */\n    tag_20:\n        /* \"#utility.yul\":600:677   */\n      0x4e487b7100000000000000000000000000000000000000000000000000000000\n        /* \"#utility.yul\":597:598   */\n      0x00\n        /* \"#utility.yul\":590:678   */\n      mstore\n        /* \"#utility.yul\":697:701   */\n      0x11\n        /* \"#utility.yul\":694:695   */\n      0x04\n        /* \"#utility.yul\":687:702   */\n      mstore\n        /* \"#utility.yul\":721:725   */\n      0x24\n        /* \"#utility.yul\":718:719   */\n      0x00\n        /* \"#utility.yul\":711:726   */\n      revert\n        /* \"#utility.yul\":738:1086   */\n    tag_14:\n        /* \"#utility.yul\":778:785   */\n      0x00\n        /* \"#utility.yul\":801:821   */\n      tag_30\n        /* \"#utility.yul\":819:820   */\n      dup3\n        /* \"#utility.yul\":801:821   */\n      tag_18\n      jump\t// in\n    tag_30:\n        /* \"#utility.yul\":796:821   */\n      swap2\n      pop\n        /* \"#utility.yul\":835:855   */\n      tag_31\n        /* \"#utility.yul\":853:854   */\n      dup4\n        /* \"#utility.yul\":835:855   */\n      tag_18\n      jump\t// in\n    tag_31:\n        /* \"#utility.yul\":830:855   */\n      swap3\n      pop\n        /* \"#utility.yul\":1023:1024   */\n      dup2\n        /* \"#utility.yul\":955:1021   */\n      0xffffffffffffffffffffffffffffffffffffffffffffffffffffffffffffffff\n        /* \"#utility.yul\":951:1025   */\n      div\n        /* \"#utility.yul\":948:949   */\n      dup4\n        /* \"#utility.yul\":945:1026   */\n      gt\n        /* \"#utility.yul\":940:941   */\n      dup3\n        /* \"#utility.yul\":933:942   */\n      iszero\n        /* \"#utility.yul\":926:943   */\n      iszero\n        /* \"#utility.yul\":922:1027   */\n      and\n        /* \"#utility.yul\":919:1050   */\n      iszero\n      tag_32\n      jumpi\n        /* \"#utility.yul\":1030:1048   */\n      tag_33\n      tag_20\n      jump\t// in\n    tag_33:\n        /* \"#utility.yul\":919:1050   */\n    tag_32:\n        /* \"#utility.yul\":1078:1079   */\n      dup3\n        /* \"#utility.yul\":1075:1076   */\n      dup3\n        /* \"#utility.yul\":1071:1080   */\n      mul\n        /* \"#utility.yul\":1060:1080   */\n      swap1\n      pop\n        /* \"#utility.yul\":738:1086   */\n      swap3\n      swap2\n      pop\n      pop\n      jump\t// out\n        /* \"#utility.yul\":1092:1397   */\n    tag_16:\n        /* \"#utility.yul\":1132:1135   */\n      0x00\n        /* \"#utility.yul\":1151:1171   */\n      tag_35\n        /* \"#utility.yul\":1169:1170   */\n      dup3\n        /* \"#utility.yul\":1151:1171   */\n      tag_18\n      jump\t// in\n    tag_35:\n        /* \"#utility.yul\":1146:1171   */\n      swap2\n      pop\n        /* \"#utility.yul\":1185:1205   */\n      tag_36\n        /* \"#utility.yul\":1203:1204   */\n      dup4\n        /* \"#utility.yul\":1185:1205   */\n      tag_18\n      jump\t// in\n    tag_36:\n        /* \"#utility.yul\":1180:1205   */\n      swap3\n      pop\n        /* \"#utility.yul\":1339:1340   */\n      dup3\n        /* \"#utility.yul\":1271:1337   */\n      0xffffffffffffffffffffffffffffffffffffffffffffffffffffffffffffffff\n        /* \"#utility.yul\":1267:1341   */\n      sub\n        /* \"#utility.yul\":1264:1265   */\n      dup3\n        /* \"#utility.yul\":1261:1342   */\n      gt\n        /* \"#utility.yul\":1258:1365   */\n      iszero\n      tag_37\n      jumpi\n        /* \"#utility.yul\":1345:1363   */\n      tag_38\n      tag_20\n      jump\t// in\n    tag_38:\n        /* \"#utility.yul\":1258:1365   */\n    tag_37:\n        /* \"#utility.yul\":1389:1390   */\n      dup3\n        /* \"#utility.yul\":1386:1387   */\n      dup3\n        /* \"#utility.yul\":1382:1391   */\n      add\n        /* \"#utility.yul\":1375:1391   */\n      swap1\n      pop\n        /* \"#utility.yul\":1092:1397   */\n      swap3\n      swap2\n      pop\n      pop\n      jump\t// out\n\n    auxdata: 0xa26469706673582212205eee4be03a3a25c510c452c86d8b01b0a701efaaba41906ec05837700d779ace64736f6c634300080d0033\n}\n",
				"bytecode": {
					"linkReferences": {},
					"object": "60806040526002600055600760015534801561001a57600080fd5b5061020c8061002a6000396000f3fe608060405234801561001057600080fd5b50600436106100365760003560e01c80634ba200501461003b578063de2927891461005a575b600080fd5b610043610079565b6040516100519291906100ce565b60405180910390f35b6100626100a4565b6040516100709291906100ce565b60405180910390f35b60008060015460005461008c9190610126565b915060015460005461009e9190610180565b90509091565b600080600054600154915091509091565b6000819050919050565b6100c8816100b5565b82525050565b60006040820190506100e360008301856100bf565b6100f060208301846100bf565b9392505050565b7f4e487b7100000000000000000000000000000000000000000000000000000000600052601160045260246000fd5b6000610131826100b5565b915061013c836100b5565b9250817fffffffffffffffffffffffffffffffffffffffffffffffffffffffffffffffff0483118215151615610175576101746100f7565b5b828202905092915050565b600061018b826100b5565b9150610196836100b5565b9250827fffffffffffffffffffffffffffffffffffffffffffffffffffffffffffffffff038211156101cb576101ca6100f7565b5b82820190509291505056fea26469706673582212205eee4be03a3a25c510c452c86d8b01b0a701efaaba41906ec05837700d779ace64736f6c634300080d0033",
					"opcodes": "PUSH1 0x80 PUSH1 0x40 MSTORE PUSH1 0x2 PUSH1 0x0 SSTORE PUSH1 0x7 PUSH1 0x1 SSTORE CALLVALUE DUP1 ISZERO PUSH2 0x1A JUMPI PUSH1 0x0 DUP1 REVERT JUMPDEST POP PUSH2 0x20C DUP1 PUSH2 0x2A PUSH1 0x0 CODECOPY PUSH1 0x0 RETURN INVALID PUSH1 0x80 PUSH1 0x40 MSTORE CALLVALUE DUP1 ISZERO PUSH2 0x10 JUMPI PUSH1 0x0 DUP1 REVERT JUMPDEST POP PUSH1 0x4 CALLDATASIZE LT PUSH2 0x36 JUMPI PUSH1 0x0 CALLDATALOAD PUSH1 0xE0 SHR DUP1 PUSH4 0x4BA20050 EQ PUSH2 0x3B JUMPI DUP1 PUSH4 0xDE292789 EQ PUSH2 0x5A JUMPI JUMPDEST PUSH1 0x0 DUP1 REVERT JUMPDEST PUSH2 0x43 PUSH2 0x79 JUMP JUMPDEST PUSH1 0x40 MLOAD PUSH2 0x51 SWAP3 SWAP2 SWAP1 PUSH2 0xCE JUMP JUMPDEST PUSH1 0x40 MLOAD DUP1 SWAP2 SUB SWAP1 RETURN JUMPDEST PUSH2 0x62 PUSH2 0xA4 JUMP JUMPDEST PUSH1 0x40 MLOAD PUSH2 0x70 SWAP3 SWAP2 SWAP1 PUSH2 0xCE JUMP JUMPDEST PUSH1 0x40 MLOAD DUP1 SWAP2 SUB SWAP1 RETURN JUMPDEST PUSH1 0x0 DUP1 PUSH1 0x1 SLOAD PUSH1 0x0 SLOAD PUSH2 0x8C SWAP2 SWAP1 PUSH2 0x126 JUMP JUMPDEST SWAP2 POP PUSH1 0x1 SLOAD PUSH1 0x0 SLOAD PUSH2 0x9E SWAP2 SWAP1 PUSH2 0x180 JUMP JUMPDEST SWAP1 POP SWAP1 SWAP2 JUMP JUMPDEST PUSH1 0x0 DUP1 PUSH1 0x0 SLOAD PUSH1 0x1 SLOAD SWAP2 POP SWAP2 POP SWAP1 SWAP2 JUMP JUMPDEST PUSH1 0x0 DUP2 SWAP1 POP SWAP2 SWAP1 POP JUMP JUMPDEST PUSH2 0xC8 DUP2 PUSH2 0xB5 JUMP JUMPDEST DUP3 MSTORE POP POP JUMP JUMPDEST PUSH1 0x0 PUSH1 0x40 DUP3 ADD SWAP1 POP PUSH2 0xE3 PUSH1 0x0 DUP4 ADD DUP6 PUSH2 0xBF JUMP JUMPDEST PUSH2 0xF0 PUSH1 0x20 DUP4 ADD DUP5 PUSH2 0xBF JUMP JUMPDEST SWAP4 SWAP3 POP POP POP JUMP JUMPDEST PUSH32 0x4E487B7100000000000000000000000000000000000000000000000000000000 PUSH1 0x0 MSTORE PUSH1 0x11 PUSH1 0x4 MSTORE PUSH1 0x24 PUSH1 0x0 REVERT JUMPDEST PUSH1 0x0 PUSH2 0x131 DUP3 PUSH2 0xB5 JUMP JUMPDEST SWAP2 POP PUSH2 0x13C DUP4 PUSH2 0xB5 JUMP JUMPDEST SWAP3 POP DUP2 PUSH32 0xFFFFFFFFFFFFFFFFFFFFFFFFFFFFFFFFFFFFFFFFFFFFFFFFFFFFFFFFFFFFFFFF DIV DUP4 GT DUP3 ISZERO ISZERO AND ISZERO PUSH2 0x175 JUMPI PUSH2 0x174 PUSH2 0xF7 JUMP JUMPDEST JUMPDEST DUP3 DUP3 MUL SWAP1 POP SWAP3 SWAP2 POP POP JUMP JUMPDEST PUSH1 0x0 PUSH2 0x18B DUP3 PUSH2 0xB5 JUMP JUMPDEST SWAP2 POP PUSH2 0x196 DUP4 PUSH2 0xB5 JUMP JUMPDEST SWAP3 POP DUP3 PUSH32 0xFFFFFFFFFFFFFFFFFFFFFFFFFFFFFFFFFFFFFFFFFFFFFFFFFFFFFFFFFFFFFFFF SUB DUP3 GT ISZERO PUSH2 0x1CB JUMPI PUSH2 0x1CA PUSH2 0xF7 JUMP JUMPDEST JUMPDEST DUP3 DUP3 ADD SWAP1 POP SWAP3 SWAP2 POP POP JUMP INVALID LOG2 PUSH5 0x6970667358 0x22 SLT KECCAK256 0x5E 0xEE 0x4B 0xE0 GASPRICE GASPRICE 0x25 0xC5 LT 0xC4 MSTORE 0xC8 PUSH14 0x8B01B0A701EFAABA41906EC05837 PUSH17 0xD779ACE64736F6C634300080D00330000 "
				},
				"gasEstimates": {
					"creation": {
						"codeDepositCost": "104800",
						"executionCost": "44365",
						"totalCost": "149165"
					},
					"external": {
						"getProduct()": "infinite",
						"getResult()": "infinite"
					}
				},
				"methodIdentifiers": {
					"getProduct()": "4ba20050",
					"getResult()": "de292789"
				}
			},
			"storageLayout": {
				"storage": [
					{
						"astId": 4,
						"contract": "contracts/View_keyword.sol:View",
						"label": "num1",
						"offset": 0,
						"slot": "0",
						"type": "t_uint256"
					},
					{
						"astId": 7,
						"contract": "contracts/View_keyword.sol:View",
						"label": "num2",
						"offset": 0,
						"slot": "1",
						"type": "t_uint256"
					}
				],
				"types": {
					"t_uint256": {
						"encoding": "inplace",
						"label": "uint256",
						"numberOfBytes": "32"
					}
				}
			},
			"userdoc": {
				"kind": "user",
				"methods": {},
				"version": 1
			}
		}
	}
}