{
	"contracts/AssertErrorHandler.sol": {
		"Assert": {
			"abi": [
				{
					"inputs": [
						{
							"internalType": "uint256",
							"name": "_num1",
							"type": "uint256"
						},
						{
							"internalType": "uint256",
							"name": "_num2",
							"type": "uint256"
						}
					],
					"name": "checkOverFlow",
					"outputs": [],
					"stateMutability": "nonpayable",
					"type": "function"
				},
				{
					"inputs": [],
					"name": "getresult",
					"outputs": [
						{
							"internalType": "string",
							"name": "",
							"type": "string"
						}
					],
					"stateMutability": "view",
					"type": "function"
				},
				{
					"inputs": [],
					"name": "result",
					"outputs": [
						{
							"internalType": "bool",
							"name": "",
							"type": "bool"
						}
					],
					"stateMutability": "view",
					"type": "function"
				}
			],
			"devdoc": {
				"kind": "dev",
				"methods": {},
				"version": 1
			},
			"evm": {
				"assembly": "    /* \"contracts/AssertErrorHandler.sol\":90:542  contract Assert{... */\n  mstore(0x40, 0x80)\n  callvalue\n  dup1\n  iszero\n  tag_1\n  jumpi\n  0x00\n  dup1\n  revert\ntag_1:\n  pop\n  dataSize(sub_0)\n  dup1\n  dataOffset(sub_0)\n  0x00\n  codecopy\n  0x00\n  return\nstop\n\nsub_0: assembly {\n        /* \"contracts/AssertErrorHandler.sol\":90:542  contract Assert{... */\n      mstore(0x40, 0x80)\n      callvalue\n      dup1\n      iszero\n      tag_1\n      jumpi\n      0x00\n      dup1\n      revert\n    tag_1:\n      pop\n      jumpi(tag_2, lt(calldatasize, 0x04))\n      shr(0xe0, calldataload(0x00))\n      dup1\n      0x0bfb0686\n      eq\n      tag_3\n      jumpi\n      dup1\n      0x40fc0502\n      eq\n      tag_4\n      jumpi\n      dup1\n      0x65372147\n      eq\n      tag_5\n      jumpi\n    tag_2:\n      0x00\n      dup1\n      revert\n        /* \"contracts/AssertErrorHandler.sol\":141:297  function checkOverFlow(uint256 _num1, uint256 _num2) public{... */\n    tag_3:\n      tag_6\n      0x04\n      dup1\n      calldatasize\n      sub\n      dup2\n      add\n      swap1\n      tag_7\n      swap2\n      swap1\n      tag_8\n      jump\t// in\n    tag_7:\n      tag_9\n      jump\t// in\n    tag_6:\n      stop\n        /* \"contracts/AssertErrorHandler.sol\":305:537  function getresult() public view returns(string memory){... */\n    tag_4:\n      tag_10\n      tag_11\n      jump\t// in\n    tag_10:\n      mload(0x40)\n      tag_12\n      swap2\n      swap1\n      tag_13\n      jump\t// in\n    tag_12:\n      mload(0x40)\n      dup1\n      swap2\n      sub\n      swap1\n      return\n        /* \"contracts/AssertErrorHandler.sol\":114:132  bool public result */\n    tag_5:\n      tag_14\n      tag_15\n      jump\t// in\n    tag_14:\n      mload(0x40)\n      tag_16\n      swap2\n      swap1\n      tag_17\n      jump\t// in\n    tag_16:\n      mload(0x40)\n      dup1\n      swap2\n      sub\n      swap1\n      return\n        /* \"contracts/AssertErrorHandler.sol\":141:297  function checkOverFlow(uint256 _num1, uint256 _num2) public{... */\n    tag_9:\n        /* \"contracts/AssertErrorHandler.sol\":211:222  uint256 sum */\n      0x00\n        /* \"contracts/AssertErrorHandler.sol\":233:238  _num2 */\n      dup2\n        /* \"contracts/AssertErrorHandler.sol\":225:230  _num1 */\n      dup4\n        /* \"contracts/AssertErrorHandler.sol\":225:238  _num1 + _num2 */\n      tag_19\n      swap2\n      swap1\n      tag_20\n      jump\t// in\n    tag_19:\n        /* \"contracts/AssertErrorHandler.sol\":211:238  uint256 sum = _num1 + _num2 */\n      swap1\n      pop\n        /* \"contracts/AssertErrorHandler.sol\":262:264  10 */\n      0x0a\n        /* \"contracts/AssertErrorHandler.sol\":256:259  sum */\n      dup2\n        /* \"contracts/AssertErrorHandler.sol\":256:264  sum > 10 */\n      gt\n        /* \"contracts/AssertErrorHandler.sol\":249:265  assert(sum > 10) */\n      tag_21\n      jumpi\n      tag_22\n      tag_23\n      jump\t// in\n    tag_22:\n    tag_21:\n        /* \"contracts/AssertErrorHandler.sol\":285:289  true */\n      0x01\n        /* \"contracts/AssertErrorHandler.sol\":276:282  result */\n      0x00\n      dup1\n        /* \"contracts/AssertErrorHandler.sol\":276:289  result = true */\n      0x0100\n      exp\n      dup2\n      sload\n      dup2\n      0xff\n      mul\n      not\n      and\n      swap1\n      dup4\n      iszero\n      iszero\n      mul\n      or\n      swap1\n      sstore\n      pop\n        /* \"contracts/AssertErrorHandler.sol\":200:297  {... */\n      pop\n        /* \"contracts/AssertErrorHandler.sol\":141:297  function checkOverFlow(uint256 _num1, uint256 _num2) public{... */\n      pop\n      pop\n      jump\t// out\n        /* \"contracts/AssertErrorHandler.sol\":305:537  function getresult() public view returns(string memory){... */\n    tag_11:\n        /* \"contracts/AssertErrorHandler.sol\":346:359  string memory */\n      0x60\n        /* \"contracts/AssertErrorHandler.sol\":384:388  true */\n      0x01\n        /* \"contracts/AssertErrorHandler.sol\":374:388  result == true */\n      iszero\n      iszero\n        /* \"contracts/AssertErrorHandler.sol\":374:380  result */\n      0x00\n      dup1\n      sload\n      swap1\n      0x0100\n      exp\n      swap1\n      div\n      0xff\n      and\n        /* \"contracts/AssertErrorHandler.sol\":374:388  result == true */\n      iszero\n      iszero\n      sub\n        /* \"contracts/AssertErrorHandler.sol\":371:530  if(result == true){... */\n      tag_25\n      jumpi\n        /* \"contracts/AssertErrorHandler.sol\":404:439  return \"The Sum is Greater than 10\" */\n      mload(0x40)\n      dup1\n      0x40\n      add\n      0x40\n      mstore\n      dup1\n      0x1a\n      dup2\n      mstore\n      0x20\n      add\n      0x5468652053756d2069732047726561746572207468616e203130000000000000\n      dup2\n      mstore\n      pop\n      swap1\n      pop\n      jump(tag_24)\n        /* \"contracts/AssertErrorHandler.sol\":371:530  if(result == true){... */\n    tag_25:\n        /* \"contracts/AssertErrorHandler.sol\":472:518  return \"The Sum is Lesser than or Equal to 10\" */\n      mload(0x40)\n      dup1\n      0x60\n      add\n      0x40\n      mstore\n      dup1\n      0x25\n      dup2\n      mstore\n      0x20\n      add\n      data_4b0cec2f669eae7f53f236ef4e87595e4072dca1d3fa66c6e811577b200d32d6\n      0x25\n      swap2\n      codecopy\n      swap1\n      pop\n        /* \"contracts/AssertErrorHandler.sol\":305:537  function getresult() public view returns(string memory){... */\n    tag_24:\n      swap1\n      jump\t// out\n        /* \"contracts/AssertErrorHandler.sol\":114:132  bool public result */\n    tag_15:\n      0x00\n      dup1\n      sload\n      swap1\n      0x0100\n      exp\n      swap1\n      div\n      0xff\n      and\n      dup2\n      jump\t// out\n        /* \"#utility.yul\":88:205   */\n    tag_28:\n        /* \"#utility.yul\":197:198   */\n      0x00\n        /* \"#utility.yul\":194:195   */\n      dup1\n        /* \"#utility.yul\":187:199   */\n      revert\n        /* \"#utility.yul\":334:411   */\n    tag_30:\n        /* \"#utility.yul\":371:378   */\n      0x00\n        /* \"#utility.yul\":400:405   */\n      dup2\n        /* \"#utility.yul\":389:405   */\n      swap1\n      pop\n        /* \"#utility.yul\":334:411   */\n      swap2\n      swap1\n      pop\n      jump\t// out\n        /* \"#utility.yul\":417:539   */\n    tag_31:\n        /* \"#utility.yul\":490:514   */\n      tag_47\n        /* \"#utility.yul\":508:513   */\n      dup2\n        /* \"#utility.yul\":490:514   */\n      tag_30\n      jump\t// in\n    tag_47:\n        /* \"#utility.yul\":483:488   */\n      dup2\n        /* \"#utility.yul\":480:515   */\n      eq\n        /* \"#utility.yul\":470:533   */\n      tag_48\n      jumpi\n        /* \"#utility.yul\":529:530   */\n      0x00\n        /* \"#utility.yul\":526:527   */\n      dup1\n        /* \"#utility.yul\":519:531   */\n      revert\n        /* \"#utility.yul\":470:533   */\n    tag_48:\n        /* \"#utility.yul\":417:539   */\n      pop\n      jump\t// out\n        /* \"#utility.yul\":545:684   */\n    tag_32:\n        /* \"#utility.yul\":591:596   */\n      0x00\n        /* \"#utility.yul\":629:635   */\n      dup2\n        /* \"#utility.yul\":616:636   */\n      calldataload\n        /* \"#utility.yul\":607:636   */\n      swap1\n      pop\n        /* \"#utility.yul\":645:678   */\n      tag_50\n        /* \"#utility.yul\":672:677   */\n      dup2\n        /* \"#utility.yul\":645:678   */\n      tag_31\n      jump\t// in\n    tag_50:\n        /* \"#utility.yul\":545:684   */\n      swap3\n      swap2\n      pop\n      pop\n      jump\t// out\n        /* \"#utility.yul\":690:1164   */\n    tag_8:\n        /* \"#utility.yul\":758:764   */\n      0x00\n        /* \"#utility.yul\":766:772   */\n      dup1\n        /* \"#utility.yul\":815:817   */\n      0x40\n        /* \"#utility.yul\":803:812   */\n      dup4\n        /* \"#utility.yul\":794:801   */\n      dup6\n        /* \"#utility.yul\":790:813   */\n      sub\n        /* \"#utility.yul\":786:818   */\n      slt\n        /* \"#utility.yul\":783:902   */\n      iszero\n      tag_52\n      jumpi\n        /* \"#utility.yul\":821:900   */\n      tag_53\n      tag_28\n      jump\t// in\n    tag_53:\n        /* \"#utility.yul\":783:902   */\n    tag_52:\n        /* \"#utility.yul\":941:942   */\n      0x00\n        /* \"#utility.yul\":966:1019   */\n      tag_54\n        /* \"#utility.yul\":1011:1018   */\n      dup6\n        /* \"#utility.yul\":1002:1008   */\n      dup3\n        /* \"#utility.yul\":991:1000   */\n      dup7\n        /* \"#utility.yul\":987:1009   */\n      add\n        /* \"#utility.yul\":966:1019   */\n      tag_32\n      jump\t// in\n    tag_54:\n        /* \"#utility.yul\":956:1019   */\n      swap3\n      pop\n        /* \"#utility.yul\":912:1029   */\n      pop\n        /* \"#utility.yul\":1068:1070   */\n      0x20\n        /* \"#utility.yul\":1094:1147   */\n      tag_55\n        /* \"#utility.yul\":1139:1146   */\n      dup6\n        /* \"#utility.yul\":1130:1136   */\n      dup3\n        /* \"#utility.yul\":1119:1128   */\n      dup7\n        /* \"#utility.yul\":1115:1137   */\n      add\n        /* \"#utility.yul\":1094:1147   */\n      tag_32\n      jump\t// in\n    tag_55:\n        /* \"#utility.yul\":1084:1147   */\n      swap2\n      pop\n        /* \"#utility.yul\":1039:1157   */\n      pop\n        /* \"#utility.yul\":690:1164   */\n      swap3\n      pop\n      swap3\n      swap1\n      pop\n      jump\t// out\n        /* \"#utility.yul\":1170:1269   */\n    tag_33:\n        /* \"#utility.yul\":1222:1228   */\n      0x00\n        /* \"#utility.yul\":1256:1261   */\n      dup2\n        /* \"#utility.yul\":1250:1262   */\n      mload\n        /* \"#utility.yul\":1240:1262   */\n      swap1\n      pop\n        /* \"#utility.yul\":1170:1269   */\n      swap2\n      swap1\n      pop\n      jump\t// out\n        /* \"#utility.yul\":1275:1444   */\n    tag_34:\n        /* \"#utility.yul\":1359:1370   */\n      0x00\n        /* \"#utility.yul\":1393:1399   */\n      dup3\n        /* \"#utility.yul\":1388:1391   */\n      dup3\n        /* \"#utility.yul\":1381:1400   */\n      mstore\n        /* \"#utility.yul\":1433:1437   */\n      0x20\n        /* \"#utility.yul\":1428:1431   */\n      dup3\n        /* \"#utility.yul\":1424:1438   */\n      add\n        /* \"#utility.yul\":1409:1438   */\n      swap1\n      pop\n        /* \"#utility.yul\":1275:1444   */\n      swap3\n      swap2\n      pop\n      pop\n      jump\t// out\n        /* \"#utility.yul\":1450:1757   */\n    tag_35:\n        /* \"#utility.yul\":1518:1519   */\n      0x00\n        /* \"#utility.yul\":1528:1641   */\n    tag_59:\n        /* \"#utility.yul\":1542:1548   */\n      dup4\n        /* \"#utility.yul\":1539:1540   */\n      dup2\n        /* \"#utility.yul\":1536:1549   */\n      lt\n        /* \"#utility.yul\":1528:1641   */\n      iszero\n      tag_61\n      jumpi\n        /* \"#utility.yul\":1627:1628   */\n      dup1\n        /* \"#utility.yul\":1622:1625   */\n      dup3\n        /* \"#utility.yul\":1618:1629   */\n      add\n        /* \"#utility.yul\":1612:1630   */\n      mload\n        /* \"#utility.yul\":1608:1609   */\n      dup2\n        /* \"#utility.yul\":1603:1606   */\n      dup5\n        /* \"#utility.yul\":1599:1610   */\n      add\n        /* \"#utility.yul\":1592:1631   */\n      mstore\n        /* \"#utility.yul\":1564:1566   */\n      0x20\n        /* \"#utility.yul\":1561:1562   */\n      dup2\n        /* \"#utility.yul\":1557:1567   */\n      add\n        /* \"#utility.yul\":1552:1567   */\n      swap1\n      pop\n        /* \"#utility.yul\":1528:1641   */\n      jump(tag_59)\n    tag_61:\n        /* \"#utility.yul\":1659:1665   */\n      dup4\n        /* \"#utility.yul\":1656:1657   */\n      dup2\n        /* \"#utility.yul\":1653:1666   */\n      gt\n        /* \"#utility.yul\":1650:1751   */\n      iszero\n      tag_62\n      jumpi\n        /* \"#utility.yul\":1739:1740   */\n      0x00\n        /* \"#utility.yul\":1730:1736   */\n      dup5\n        /* \"#utility.yul\":1725:1728   */\n      dup5\n        /* \"#utility.yul\":1721:1737   */\n      add\n        /* \"#utility.yul\":1714:1741   */\n      mstore\n        /* \"#utility.yul\":1650:1751   */\n    tag_62:\n        /* \"#utility.yul\":1499:1757   */\n      pop\n        /* \"#utility.yul\":1450:1757   */\n      pop\n      pop\n      pop\n      jump\t// out\n        /* \"#utility.yul\":1763:1865   */\n    tag_36:\n        /* \"#utility.yul\":1804:1810   */\n      0x00\n        /* \"#utility.yul\":1855:1857   */\n      0x1f\n        /* \"#utility.yul\":1851:1858   */\n      not\n        /* \"#utility.yul\":1846:1848   */\n      0x1f\n        /* \"#utility.yul\":1839:1844   */\n      dup4\n        /* \"#utility.yul\":1835:1849   */\n      add\n        /* \"#utility.yul\":1831:1859   */\n      and\n        /* \"#utility.yul\":1821:1859   */\n      swap1\n      pop\n        /* \"#utility.yul\":1763:1865   */\n      swap2\n      swap1\n      pop\n      jump\t// out\n        /* \"#utility.yul\":1871:2235   */\n    tag_37:\n        /* \"#utility.yul\":1959:1962   */\n      0x00\n        /* \"#utility.yul\":1987:2026   */\n      tag_65\n        /* \"#utility.yul\":2020:2025   */\n      dup3\n        /* \"#utility.yul\":1987:2026   */\n      tag_33\n      jump\t// in\n    tag_65:\n        /* \"#utility.yul\":2042:2113   */\n      tag_66\n        /* \"#utility.yul\":2106:2112   */\n      dup2\n        /* \"#utility.yul\":2101:2104   */\n      dup6\n        /* \"#utility.yul\":2042:2113   */\n      tag_34\n      jump\t// in\n    tag_66:\n        /* \"#utility.yul\":2035:2113   */\n      swap4\n      pop\n        /* \"#utility.yul\":2122:2174   */\n      tag_67\n        /* \"#utility.yul\":2167:2173   */\n      dup2\n        /* \"#utility.yul\":2162:2165   */\n      dup6\n        /* \"#utility.yul\":2155:2159   */\n      0x20\n        /* \"#utility.yul\":2148:2153   */\n      dup7\n        /* \"#utility.yul\":2144:2160   */\n      add\n        /* \"#utility.yul\":2122:2174   */\n      tag_35\n      jump\t// in\n    tag_67:\n        /* \"#utility.yul\":2199:2228   */\n      tag_68\n        /* \"#utility.yul\":2221:2227   */\n      dup2\n        /* \"#utility.yul\":2199:2228   */\n      tag_36\n      jump\t// in\n    tag_68:\n        /* \"#utility.yul\":2194:2197   */\n      dup5\n        /* \"#utility.yul\":2190:2229   */\n      add\n        /* \"#utility.yul\":2183:2229   */\n      swap2\n      pop\n        /* \"#utility.yul\":1963:2235   */\n      pop\n        /* \"#utility.yul\":1871:2235   */\n      swap3\n      swap2\n      pop\n      pop\n      jump\t// out\n        /* \"#utility.yul\":2241:2554   */\n    tag_13:\n        /* \"#utility.yul\":2354:2358   */\n      0x00\n        /* \"#utility.yul\":2392:2394   */\n      0x20\n        /* \"#utility.yul\":2381:2390   */\n      dup3\n        /* \"#utility.yul\":2377:2395   */\n      add\n        /* \"#utility.yul\":2369:2395   */\n      swap1\n      pop\n        /* \"#utility.yul\":2441:2450   */\n      dup2\n        /* \"#utility.yul\":2435:2439   */\n      dup2\n        /* \"#utility.yul\":2431:2451   */\n      sub\n        /* \"#utility.yul\":2427:2428   */\n      0x00\n        /* \"#utility.yul\":2416:2425   */\n      dup4\n        /* \"#utility.yul\":2412:2429   */\n      add\n        /* \"#utility.yul\":2405:2452   */\n      mstore\n        /* \"#utility.yul\":2469:2547   */\n      tag_70\n        /* \"#utility.yul\":2542:2546   */\n      dup2\n        /* \"#utility.yul\":2533:2539   */\n      dup5\n        /* \"#utility.yul\":2469:2547   */\n      tag_37\n      jump\t// in\n    tag_70:\n        /* \"#utility.yul\":2461:2547   */\n      swap1\n      pop\n        /* \"#utility.yul\":2241:2554   */\n      swap3\n      swap2\n      pop\n      pop\n      jump\t// out\n        /* \"#utility.yul\":2560:2650   */\n    tag_38:\n        /* \"#utility.yul\":2594:2601   */\n      0x00\n        /* \"#utility.yul\":2637:2642   */\n      dup2\n        /* \"#utility.yul\":2630:2643   */\n      iszero\n        /* \"#utility.yul\":2623:2644   */\n      iszero\n        /* \"#utility.yul\":2612:2644   */\n      swap1\n      pop\n        /* \"#utility.yul\":2560:2650   */\n      swap2\n      swap1\n      pop\n      jump\t// out\n        /* \"#utility.yul\":2656:2765   */\n    tag_39:\n        /* \"#utility.yul\":2737:2758   */\n      tag_73\n        /* \"#utility.yul\":2752:2757   */\n      dup2\n        /* \"#utility.yul\":2737:2758   */\n      tag_38\n      jump\t// in\n    tag_73:\n        /* \"#utility.yul\":2732:2735   */\n      dup3\n        /* \"#utility.yul\":2725:2759   */\n      mstore\n        /* \"#utility.yul\":2656:2765   */\n      pop\n      pop\n      jump\t// out\n        /* \"#utility.yul\":2771:2981   */\n    tag_17:\n        /* \"#utility.yul\":2858:2862   */\n      0x00\n        /* \"#utility.yul\":2896:2898   */\n      0x20\n        /* \"#utility.yul\":2885:2894   */\n      dup3\n        /* \"#utility.yul\":2881:2899   */\n      add\n        /* \"#utility.yul\":2873:2899   */\n      swap1\n      pop\n        /* \"#utility.yul\":2909:2974   */\n      tag_75\n        /* \"#utility.yul\":2971:2972   */\n      0x00\n        /* \"#utility.yul\":2960:2969   */\n      dup4\n        /* \"#utility.yul\":2956:2973   */\n      add\n        /* \"#utility.yul\":2947:2953   */\n      dup5\n        /* \"#utility.yul\":2909:2974   */\n      tag_39\n      jump\t// in\n    tag_75:\n        /* \"#utility.yul\":2771:2981   */\n      swap3\n      swap2\n      pop\n      pop\n      jump\t// out\n        /* \"#utility.yul\":2987:3167   */\n    tag_40:\n        /* \"#utility.yul\":3035:3112   */\n      0x4e487b7100000000000000000000000000000000000000000000000000000000\n        /* \"#utility.yul\":3032:3033   */\n      0x00\n        /* \"#utility.yul\":3025:3113   */\n      mstore\n        /* \"#utility.yul\":3132:3136   */\n      0x11\n        /* \"#utility.yul\":3129:3130   */\n      0x04\n        /* \"#utility.yul\":3122:3137   */\n      mstore\n        /* \"#utility.yul\":3156:3160   */\n      0x24\n        /* \"#utility.yul\":3153:3154   */\n      0x00\n        /* \"#utility.yul\":3146:3161   */\n      revert\n        /* \"#utility.yul\":3173:3478   */\n    tag_20:\n        /* \"#utility.yul\":3213:3216   */\n      0x00\n        /* \"#utility.yul\":3232:3252   */\n      tag_78\n        /* \"#utility.yul\":3250:3251   */\n      dup3\n        /* \"#utility.yul\":3232:3252   */\n      tag_30\n      jump\t// in\n    tag_78:\n        /* \"#utility.yul\":3227:3252   */\n      swap2\n      pop\n        /* \"#utility.yul\":3266:3286   */\n      tag_79\n        /* \"#utility.yul\":3284:3285   */\n      dup4\n        /* \"#utility.yul\":3266:3286   */\n      tag_30\n      jump\t// in\n    tag_79:\n        /* \"#utility.yul\":3261:3286   */\n      swap3\n      pop\n        /* \"#utility.yul\":3420:3421   */\n      dup3\n        /* \"#utility.yul\":3352:3418   */\n      0xffffffffffffffffffffffffffffffffffffffffffffffffffffffffffffffff\n        /* \"#utility.yul\":3348:3422   */\n      sub\n        /* \"#utility.yul\":3345:3346   */\n      dup3\n        /* \"#utility.yul\":3342:3423   */\n      gt\n        /* \"#utility.yul\":3339:3446   */\n      iszero\n      tag_80\n      jumpi\n        /* \"#utility.yul\":3426:3444   */\n      tag_81\n      tag_40\n      jump\t// in\n    tag_81:\n        /* \"#utility.yul\":3339:3446   */\n    tag_80:\n        /* \"#utility.yul\":3470:3471   */\n      dup3\n        /* \"#utility.yul\":3467:3468   */\n      dup3\n        /* \"#utility.yul\":3463:3472   */\n      add\n        /* \"#utility.yul\":3456:3472   */\n      swap1\n      pop\n        /* \"#utility.yul\":3173:3478   */\n      swap3\n      swap2\n      pop\n      pop\n      jump\t// out\n        /* \"#utility.yul\":3484:3664   */\n    tag_23:\n        /* \"#utility.yul\":3532:3609   */\n      0x4e487b7100000000000000000000000000000000000000000000000000000000\n        /* \"#utility.yul\":3529:3530   */\n      0x00\n        /* \"#utility.yul\":3522:3610   */\n      mstore\n        /* \"#utility.yul\":3629:3633   */\n      0x01\n        /* \"#utility.yul\":3626:3627   */\n      0x04\n        /* \"#utility.yul\":3619:3634   */\n      mstore\n        /* \"#utility.yul\":3653:3657   */\n      0x24\n        /* \"#utility.yul\":3650:3651   */\n      0x00\n        /* \"#utility.yul\":3643:3658   */\n      revert\n    stop\n    data_4b0cec2f669eae7f53f236ef4e87595e4072dca1d3fa66c6e811577b200d32d6 5468652053756d206973204c6573736572207468616e206f7220457175616c20746f203130\n\n    auxdata: 0xa26469706673582212208890c91217884a2993029dda5bbaea51bbc63437cfb0576873be0ea02e906b1464736f6c634300080d0033\n}\n",
				"bytecode": {
					"linkReferences": {},
					"object": "608060405234801561001057600080fd5b506103e1806100206000396000f3fe608060405234801561001057600080fd5b50600436106100415760003560e01c80630bfb06861461004657806340fc0502146100625780636537214714610080575b600080fd5b610060600480360381019061005b91906101a1565b61009e565b005b61006a6100de565b604051610077919061027a565b60405180910390f35b610088610155565b60405161009591906102b7565b60405180910390f35b600081836100ac9190610301565b9050600a81116100bf576100be610357565b5b60016000806101000a81548160ff021916908315150217905550505050565b60606001151560008054906101000a900460ff16151503610136576040518060400160405280601a81526020017f5468652053756d2069732047726561746572207468616e2031300000000000008152509050610152565b6040518060600160405280602581526020016103876025913990505b90565b60008054906101000a900460ff1681565b600080fd5b6000819050919050565b61017e8161016b565b811461018957600080fd5b50565b60008135905061019b81610175565b92915050565b600080604083850312156101b8576101b7610166565b5b60006101c68582860161018c565b92505060206101d78582860161018c565b9150509250929050565b600081519050919050565b600082825260208201905092915050565b60005b8381101561021b578082015181840152602081019050610200565b8381111561022a576000848401525b50505050565b6000601f19601f8301169050919050565b600061024c826101e1565b61025681856101ec565b93506102668185602086016101fd565b61026f81610230565b840191505092915050565b600060208201905081810360008301526102948184610241565b905092915050565b60008115159050919050565b6102b18161029c565b82525050565b60006020820190506102cc60008301846102a8565b92915050565b7f4e487b7100000000000000000000000000000000000000000000000000000000600052601160045260246000fd5b600061030c8261016b565b91506103178361016b565b9250827fffffffffffffffffffffffffffffffffffffffffffffffffffffffffffffffff0382111561034c5761034b6102d2565b5b828201905092915050565b7f4e487b7100000000000000000000000000000000000000000000000000000000600052600160045260246000fdfe5468652053756d206973204c6573736572207468616e206f7220457175616c20746f203130a26469706673582212208890c91217884a2993029dda5bbaea51bbc63437cfb0576873be0ea02e906b1464736f6c634300080d0033",
					"opcodes": "PUSH1 0x80 PUSH1 0x40 MSTORE CALLVALUE DUP1 ISZERO PUSH2 0x10 JUMPI PUSH1 0x0 DUP1 REVERT JUMPDEST POP PUSH2 0x3E1 DUP1 PUSH2 0x20 PUSH1 0x0 CODECOPY PUSH1 0x0 RETURN INVALID PUSH1 0x80 PUSH1 0x40 MSTORE CALLVALUE DUP1 ISZERO PUSH2 0x10 JUMPI PUSH1 0x0 DUP1 REVERT JUMPDEST POP PUSH1 0x4 CALLDATASIZE LT PUSH2 0x41 JUMPI PUSH1 0x0 CALLDATALOAD PUSH1 0xE0 SHR DUP1 PUSH4 0xBFB0686 EQ PUSH2 0x46 JUMPI DUP1 PUSH4 0x40FC0502 EQ PUSH2 0x62 JUMPI DUP1 PUSH4 0x65372147 EQ PUSH2 0x80 JUMPI JUMPDEST PUSH1 0x0 DUP1 REVERT JUMPDEST PUSH2 0x60 PUSH1 0x4 DUP1 CALLDATASIZE SUB DUP2 ADD SWAP1 PUSH2 0x5B SWAP2 SWAP1 PUSH2 0x1A1 JUMP JUMPDEST PUSH2 0x9E JUMP JUMPDEST STOP JUMPDEST PUSH2 0x6A PUSH2 0xDE JUMP JUMPDEST PUSH1 0x40 MLOAD PUSH2 0x77 SWAP2 SWAP1 PUSH2 0x27A JUMP JUMPDEST PUSH1 0x40 MLOAD DUP1 SWAP2 SUB SWAP1 RETURN JUMPDEST PUSH2 0x88 PUSH2 0x155 JUMP JUMPDEST PUSH1 0x40 MLOAD PUSH2 0x95 SWAP2 SWAP1 PUSH2 0x2B7 JUMP JUMPDEST PUSH1 0x40 MLOAD DUP1 SWAP2 SUB SWAP1 RETURN JUMPDEST PUSH1 0x0 DUP2 DUP4 PUSH2 0xAC SWAP2 SWAP1 PUSH2 0x301 JUMP JUMPDEST SWAP1 POP PUSH1 0xA DUP2 GT PUSH2 0xBF JUMPI PUSH2 0xBE PUSH2 0x357 JUMP JUMPDEST JUMPDEST PUSH1 0x1 PUSH1 0x0 DUP1 PUSH2 0x100 EXP DUP2 SLOAD DUP2 PUSH1 0xFF MUL NOT AND SWAP1 DUP4 ISZERO ISZERO MUL OR SWAP1 SSTORE POP POP POP POP JUMP JUMPDEST PUSH1 0x60 PUSH1 0x1 ISZERO ISZERO PUSH1 0x0 DUP1 SLOAD SWAP1 PUSH2 0x100 EXP SWAP1 DIV PUSH1 0xFF AND ISZERO ISZERO SUB PUSH2 0x136 JUMPI PUSH1 0x40 MLOAD DUP1 PUSH1 0x40 ADD PUSH1 0x40 MSTORE DUP1 PUSH1 0x1A DUP2 MSTORE PUSH1 0x20 ADD PUSH32 0x5468652053756D2069732047726561746572207468616E203130000000000000 DUP2 MSTORE POP SWAP1 POP PUSH2 0x152 JUMP JUMPDEST PUSH1 0x40 MLOAD DUP1 PUSH1 0x60 ADD PUSH1 0x40 MSTORE DUP1 PUSH1 0x25 DUP2 MSTORE PUSH1 0x20 ADD PUSH2 0x387 PUSH1 0x25 SWAP2 CODECOPY SWAP1 POP JUMPDEST SWAP1 JUMP JUMPDEST PUSH1 0x0 DUP1 SLOAD SWAP1 PUSH2 0x100 EXP SWAP1 DIV PUSH1 0xFF AND DUP2 JUMP JUMPDEST PUSH1 0x0 DUP1 REVERT JUMPDEST PUSH1 0x0 DUP2 SWAP1 POP SWAP2 SWAP1 POP JUMP JUMPDEST PUSH2 0x17E DUP2 PUSH2 0x16B JUMP JUMPDEST DUP2 EQ PUSH2 0x189 JUMPI PUSH1 0x0 DUP1 REVERT JUMPDEST POP JUMP JUMPDEST PUSH1 0x0 DUP2 CALLDATALOAD SWAP1 POP PUSH2 0x19B DUP2 PUSH2 0x175 JUMP JUMPDEST SWAP3 SWAP2 POP POP JUMP JUMPDEST PUSH1 0x0 DUP1 PUSH1 0x40 DUP4 DUP6 SUB SLT ISZERO PUSH2 0x1B8 JUMPI PUSH2 0x1B7 PUSH2 0x166 JUMP JUMPDEST JUMPDEST PUSH1 0x0 PUSH2 0x1C6 DUP6 DUP3 DUP7 ADD PUSH2 0x18C JUMP JUMPDEST SWAP3 POP POP PUSH1 0x20 PUSH2 0x1D7 DUP6 DUP3 DUP7 ADD PUSH2 0x18C JUMP JUMPDEST SWAP2 POP POP SWAP3 POP SWAP3 SWAP1 POP JUMP JUMPDEST PUSH1 0x0 DUP2 MLOAD SWAP1 POP SWAP2 SWAP1 POP JUMP JUMPDEST PUSH1 0x0 DUP3 DUP3 MSTORE PUSH1 0x20 DUP3 ADD SWAP1 POP SWAP3 SWAP2 POP POP JUMP JUMPDEST PUSH1 0x0 JUMPDEST DUP4 DUP2 LT ISZERO PUSH2 0x21B JUMPI DUP1 DUP3 ADD MLOAD DUP2 DUP5 ADD MSTORE PUSH1 0x20 DUP2 ADD SWAP1 POP PUSH2 0x200 JUMP JUMPDEST DUP4 DUP2 GT ISZERO PUSH2 0x22A JUMPI PUSH1 0x0 DUP5 DUP5 ADD MSTORE JUMPDEST POP POP POP POP JUMP JUMPDEST PUSH1 0x0 PUSH1 0x1F NOT PUSH1 0x1F DUP4 ADD AND SWAP1 POP SWAP2 SWAP1 POP JUMP JUMPDEST PUSH1 0x0 PUSH2 0x24C DUP3 PUSH2 0x1E1 JUMP JUMPDEST PUSH2 0x256 DUP2 DUP6 PUSH2 0x1EC JUMP JUMPDEST SWAP4 POP PUSH2 0x266 DUP2 DUP6 PUSH1 0x20 DUP7 ADD PUSH2 0x1FD JUMP JUMPDEST PUSH2 0x26F DUP2 PUSH2 0x230 JUMP JUMPDEST DUP5 ADD SWAP2 POP POP SWAP3 SWAP2 POP POP JUMP JUMPDEST PUSH1 0x0 PUSH1 0x20 DUP3 ADD SWAP1 POP DUP2 DUP2 SUB PUSH1 0x0 DUP4 ADD MSTORE PUSH2 0x294 DUP2 DUP5 PUSH2 0x241 JUMP JUMPDEST SWAP1 POP SWAP3 SWAP2 POP POP JUMP JUMPDEST PUSH1 0x0 DUP2 ISZERO ISZERO SWAP1 POP SWAP2 SWAP1 POP JUMP JUMPDEST PUSH2 0x2B1 DUP2 PUSH2 0x29C JUMP JUMPDEST DUP3 MSTORE POP POP JUMP JUMPDEST PUSH1 0x0 PUSH1 0x20 DUP3 ADD SWAP1 POP PUSH2 0x2CC PUSH1 0x0 DUP4 ADD DUP5 PUSH2 0x2A8 JUMP JUMPDEST SWAP3 SWAP2 POP POP JUMP JUMPDEST PUSH32 0x4E487B7100000000000000000000000000000000000000000000000000000000 PUSH1 0x0 MSTORE PUSH1 0x11 PUSH1 0x4 MSTORE PUSH1 0x24 PUSH1 0x0 REVERT JUMPDEST PUSH1 0x0 PUSH2 0x30C DUP3 PUSH2 0x16B JUMP JUMPDEST SWAP2 POP PUSH2 0x317 DUP4 PUSH2 0x16B JUMP JUMPDEST SWAP3 POP DUP3 PUSH32 0xFFFFFFFFFFFFFFFFFFFFFFFFFFFFFFFFFFFFFFFFFFFFFFFFFFFFFFFFFFFFFFFF SUB DUP3 GT ISZERO PUSH2 0x34C JUMPI PUSH2 0x34B PUSH2 0x2D2 JUMP JUMPDEST JUMPDEST DUP3 DUP3 ADD SWAP1 POP SWAP3 SWAP2 POP POP JUMP JUMPDEST PUSH32 0x4E487B7100000000000000000000000000000000000000000000000000000000 PUSH1 0x0 MSTORE PUSH1 0x1 PUSH1 0x4 MSTORE PUSH1 0x24 PUSH1 0x0 REVERT INVALID SLOAD PUSH9 0x652053756D20697320 0x4C PUSH6 0x737365722074 PUSH9 0x616E206F7220457175 PUSH2 0x6C20 PUSH21 0x6F203130A26469706673582212208890C91217884A 0x29 SWAP4 MUL SWAP14 0xDA JUMPDEST 0xBA 0xEA MLOAD 0xBB 0xC6 CALLVALUE CALLDATACOPY 0xCF 0xB0 JUMPI PUSH9 0x73BE0EA02E906B1464 PUSH20 0x6F6C634300080D00330000000000000000000000 "
				},
				"gasEstimates": {
					"creation": {
						"codeDepositCost": "198600",
						"executionCost": "245",
						"totalCost": "198845"
					},
					"external": {
						"checkOverFlow(uint256,uint256)": "infinite",
						"getresult()": "infinite",
						"result()": "2490"
					}
				},
				"methodIdentifiers": {
					"checkOverFlow(uint256,uint256)": "0bfb0686",
					"getresult()": "40fc0502",
					"result()": "65372147"
				}
			},
			"storageLayout": {
				"storage": [
					{
						"astId": 3,
						"contract": "contracts/AssertErrorHandler.sol:Assert",
						"label": "result",
						"offset": 0,
						"slot": "0",
						"type": "t_bool"
					}
				],
				"types": {
					"t_bool": {
						"encoding": "inplace",
						"label": "bool",
						"numberOfBytes": "1"
					}
				}
			},
			"userdoc": {
				"kind": "user",
				"methods": {},
				"version": 1
			}
		}
	}
}