{
	"contracts/pure_keyword.sol": {
		"Pure": {
			"abi": [
				{
					"inputs": [],
					"name": "getData",
					"outputs": [
						{
							"internalType": "uint256",
							"name": "",
							"type": "uint256"
						},
						{
							"internalType": "uint256",
							"name": "",
							"type": "uint256"
						}
					],
					"stateMutability": "pure",
					"type": "function"
				}
			],
			"devdoc": {
				"kind": "dev",
				"methods": {},
				"version": 1
			},
			"evm": {
				"assembly": "    /* \"contracts/pure_keyword.sol\":73:537  contract Pure{... */\n  mstore(0x40, 0x80)\n    /* \"contracts/pure_keyword.sol\":110:111  4 */\n  0x04\n    /* \"contracts/pure_keyword.sol\":95:111  uint256 num1 = 4 */\n  0x00\n  sstore\n    /* \"contracts/pure_keyword.sol\":133:134  6 */\n  0x06\n    /* \"contracts/pure_keyword.sol\":118:134  uint256 num2 = 6 */\n  0x01\n  sstore\n    /* \"contracts/pure_keyword.sol\":73:537  contract Pure{... */\n  callvalue\n  dup1\n  iszero\n  tag_1\n  jumpi\n  0x00\n  dup1\n  revert\ntag_1:\n  pop\n  dataSize(sub_0)\n  dup1\n  dataOffset(sub_0)\n  0x00\n  codecopy\n  0x00\n  return\nstop\n\nsub_0: assembly {\n        /* \"contracts/pure_keyword.sol\":73:537  contract Pure{... */\n      mstore(0x40, 0x80)\n      callvalue\n      dup1\n      iszero\n      tag_1\n      jumpi\n      0x00\n      dup1\n      revert\n    tag_1:\n      pop\n      jumpi(tag_2, lt(calldatasize, 0x04))\n      shr(0xe0, calldataload(0x00))\n      dup1\n      0x3bc5de30\n      eq\n      tag_3\n      jumpi\n    tag_2:\n      0x00\n      dup1\n      revert\n        /* \"contracts/pure_keyword.sol\":370:532  function getData() public pure returns(uint256, uint256){... */\n    tag_3:\n      tag_4\n      tag_5\n      jump\t// in\n    tag_4:\n      mload(0x40)\n      tag_6\n      swap3\n      swap2\n      swap1\n      tag_7\n      jump\t// in\n    tag_6:\n      mload(0x40)\n      dup1\n      swap2\n      sub\n      swap1\n      return\n    tag_5:\n        /* \"contracts/pure_keyword.sol\":409:416  uint256 */\n      0x00\n        /* \"contracts/pure_keyword.sol\":418:425  uint256 */\n      dup1\n        /* \"contracts/pure_keyword.sol\":439:453  uint256 mynum1 */\n      0x00\n        /* \"contracts/pure_keyword.sol\":456:458  30 */\n      0x1e\n        /* \"contracts/pure_keyword.sol\":439:458  uint256 mynum1 = 30 */\n      swap1\n      pop\n        /* \"contracts/pure_keyword.sol\":469:483  uint256 mynum2 */\n      0x00\n        /* \"contracts/pure_keyword.sol\":486:488  50 */\n      0x32\n        /* \"contracts/pure_keyword.sol\":469:488  uint256 mynum2 = 50 */\n      swap1\n      pop\n        /* \"contracts/pure_keyword.sol\":507:513  mynum1 */\n      dup2\n        /* \"contracts/pure_keyword.sol\":515:521  mynum2 */\n      dup2\n        /* \"contracts/pure_keyword.sol\":499:522  return (mynum1, mynum2) */\n      swap4\n      pop\n      swap4\n      pop\n      pop\n      pop\n        /* \"contracts/pure_keyword.sol\":370:532  function getData() public pure returns(uint256, uint256){... */\n      swap1\n      swap2\n      jump\t// out\n        /* \"#utility.yul\":7:84   */\n    tag_9:\n        /* \"#utility.yul\":44:51   */\n      0x00\n        /* \"#utility.yul\":73:78   */\n      dup2\n        /* \"#utility.yul\":62:78   */\n      swap1\n      pop\n        /* \"#utility.yul\":7:84   */\n      swap2\n      swap1\n      pop\n      jump\t// out\n        /* \"#utility.yul\":90:208   */\n    tag_10:\n        /* \"#utility.yul\":177:201   */\n      tag_14\n        /* \"#utility.yul\":195:200   */\n      dup2\n        /* \"#utility.yul\":177:201   */\n      tag_9\n      jump\t// in\n    tag_14:\n        /* \"#utility.yul\":172:175   */\n      dup3\n        /* \"#utility.yul\":165:202   */\n      mstore\n        /* \"#utility.yul\":90:208   */\n      pop\n      pop\n      jump\t// out\n        /* \"#utility.yul\":214:546   */\n    tag_7:\n        /* \"#utility.yul\":335:339   */\n      0x00\n        /* \"#utility.yul\":373:375   */\n      0x40\n        /* \"#utility.yul\":362:371   */\n      dup3\n        /* \"#utility.yul\":358:376   */\n      add\n        /* \"#utility.yul\":350:376   */\n      swap1\n      pop\n        /* \"#utility.yul\":386:457   */\n      tag_16\n        /* \"#utility.yul\":454:455   */\n      0x00\n        /* \"#utility.yul\":443:452   */\n      dup4\n        /* \"#utility.yul\":439:456   */\n      add\n        /* \"#utility.yul\":430:436   */\n      dup6\n        /* \"#utility.yul\":386:457   */\n      tag_10\n      jump\t// in\n    tag_16:\n        /* \"#utility.yul\":467:539   */\n      tag_17\n        /* \"#utility.yul\":535:537   */\n      0x20\n        /* \"#utility.yul\":524:533   */\n      dup4\n        /* \"#utility.yul\":520:538   */\n      add\n        /* \"#utility.yul\":511:517   */\n      dup5\n        /* \"#utility.yul\":467:539   */\n      tag_10\n      jump\t// in\n    tag_17:\n        /* \"#utility.yul\":214:546   */\n      swap4\n      swap3\n      pop\n      pop\n      pop\n      jump\t// out\n\n    auxdata: 0xa26469706673582212205905910a328204c86c3e554947616990cc1485ef06fb1f9899eabe9ba8f1df3864736f6c634300080d0033\n}\n",
				"bytecode": {
					"linkReferences": {},
					"object": "60806040526004600055600660015534801561001a57600080fd5b5060d5806100296000396000f3fe6080604052348015600f57600080fd5b506004361060285760003560e01c80633bc5de3014602d575b600080fd5b60336048565b604051603f929190607a565b60405180910390f35b6000806000601e905060006032905081819350935050509091565b6000819050919050565b6074816063565b82525050565b6000604082019050608d6000830185606d565b60986020830184606d565b939250505056fea26469706673582212205905910a328204c86c3e554947616990cc1485ef06fb1f9899eabe9ba8f1df3864736f6c634300080d0033",
					"opcodes": "PUSH1 0x80 PUSH1 0x40 MSTORE PUSH1 0x4 PUSH1 0x0 SSTORE PUSH1 0x6 PUSH1 0x1 SSTORE CALLVALUE DUP1 ISZERO PUSH2 0x1A JUMPI PUSH1 0x0 DUP1 REVERT JUMPDEST POP PUSH1 0xD5 DUP1 PUSH2 0x29 PUSH1 0x0 CODECOPY PUSH1 0x0 RETURN INVALID PUSH1 0x80 PUSH1 0x40 MSTORE CALLVALUE DUP1 ISZERO PUSH1 0xF JUMPI PUSH1 0x0 DUP1 REVERT JUMPDEST POP PUSH1 0x4 CALLDATASIZE LT PUSH1 0x28 JUMPI PUSH1 0x0 CALLDATALOAD PUSH1 0xE0 SHR DUP1 PUSH4 0x3BC5DE30 EQ PUSH1 0x2D JUMPI JUMPDEST PUSH1 0x0 DUP1 REVERT JUMPDEST PUSH1 0x33 PUSH1 0x48 JUMP JUMPDEST PUSH1 0x40 MLOAD PUSH1 0x3F SWAP3 SWAP2 SWAP1 PUSH1 0x7A JUMP JUMPDEST PUSH1 0x40 MLOAD DUP1 SWAP2 SUB SWAP1 RETURN JUMPDEST PUSH1 0x0 DUP1 PUSH1 0x0 PUSH1 0x1E SWAP1 POP PUSH1 0x0 PUSH1 0x32 SWAP1 POP DUP2 DUP2 SWAP4 POP SWAP4 POP POP POP SWAP1 SWAP2 JUMP JUMPDEST PUSH1 0x0 DUP2 SWAP1 POP SWAP2 SWAP1 POP JUMP JUMPDEST PUSH1 0x74 DUP2 PUSH1 0x63 JUMP JUMPDEST DUP3 MSTORE POP POP JUMP JUMPDEST PUSH1 0x0 PUSH1 0x40 DUP3 ADD SWAP1 POP PUSH1 0x8D PUSH1 0x0 DUP4 ADD DUP6 PUSH1 0x6D JUMP JUMPDEST PUSH1 0x98 PUSH1 0x20 DUP4 ADD DUP5 PUSH1 0x6D JUMP JUMPDEST SWAP4 SWAP3 POP POP POP JUMP INVALID LOG2 PUSH5 0x6970667358 0x22 SLT KECCAK256 MSIZE SDIV SWAP2 EXP ORIGIN DUP3 DIV 0xC8 PUSH13 0x3E554947616990CC1485EF06FB 0x1F SWAP9 SWAP10 0xEA 0xBE SWAP12 0xA8 CALL 0xDF CODESIZE PUSH5 0x736F6C6343 STOP ADDMOD 0xD STOP CALLER "
				},
				"gasEstimates": {
					"creation": {
						"codeDepositCost": "42600",
						"executionCost": "44305",
						"totalCost": "86905"
					},
					"external": {
						"getData()": "infinite"
					}
				},
				"methodIdentifiers": {
					"getData()": "3bc5de30"
				}
			},
			"storageLayout": {
				"storage": [
					{
						"astId": 4,
						"contract": "contracts/pure_keyword.sol:Pure",
						"label": "num1",
						"offset": 0,
						"slot": "0",
						"type": "t_uint256"
					},
					{
						"astId": 7,
						"contract": "contracts/pure_keyword.sol:Pure",
						"label": "num2",
						"offset": 0,
						"slot": "1",
						"type": "t_uint256"
					}
				],
				"types": {
					"t_uint256": {
						"encoding": "inplace",
						"label": "uint256",
						"numberOfBytes": "32"
					}
				}
			},
			"userdoc": {
				"kind": "user",
				"methods": {},
				"version": 1
			}
		}
	}
}