{
	"contracts/Visibility.sol": {
		"Child": {
			"abi": [
				{
					"inputs": [],
					"name": "externalFunc",
					"outputs": [
						{
							"internalType": "string",
							"name": "",
							"type": "string"
						}
					],
					"stateMutability": "pure",
					"type": "function"
				},
				{
					"inputs": [],
					"name": "publicFunc",
					"outputs": [
						{
							"internalType": "string",
							"name": "",
							"type": "string"
						}
					],
					"stateMutability": "pure",
					"type": "function"
				},
				{
					"inputs": [],
					"name": "publicVar",
					"outputs": [
						{
							"internalType": "string",
							"name": "",
							"type": "string"
						}
					],
					"stateMutability": "view",
					"type": "function"
				},
				{
					"inputs": [],
					"name": "testInternalFunc",
					"outputs": [
						{
							"internalType": "string",
							"name": "",
							"type": "string"
						}
					],
					"stateMutability": "pure",
					"type": "function"
				},
				{
					"inputs": [],
					"name": "testprivateFunc",
					"outputs": [
						{
							"internalType": "string",
							"name": "",
							"type": "string"
						}
					],
					"stateMutability": "pure",
					"type": "function"
				}
			],
			"devdoc": {
				"kind": "dev",
				"methods": {},
				"version": 1
			},
			"evm": {
				"assembly": "    /* \"contracts/Visibility.sol\":973:1117  contract Child is Base{... */\n  mstore(0x40, 0x80)\n    /* \"contracts/Visibility.sol\":804:853  string private privateVar = \"my private variable\" */\n  mload(0x40)\n  dup1\n  0x40\n  add\n  0x40\n  mstore\n  dup1\n  0x13\n  dup2\n  mstore\n  0x20\n  add\n  0x6d792070726976617465207661726961626c6500000000000000000000000000\n  dup2\n  mstore\n  pop\n  0x00\n  swap1\n  dup1\n  mload\n  swap1\n  0x20\n  add\n  swap1\n  tag_1\n  swap3\n  swap2\n  swap1\n  tag_2\n  jump\t// in\ntag_1:\n  pop\n    /* \"contracts/Visibility.sol\":860:912  string internal internalVar = \"my internal variable\" */\n  mload(0x40)\n  dup1\n  0x40\n  add\n  0x40\n  mstore\n  dup1\n  0x14\n  dup2\n  mstore\n  0x20\n  add\n  0x6d7920696e7465726e616c207661726961626c65000000000000000000000000\n  dup2\n  mstore\n  pop\n  0x01\n  swap1\n  dup1\n  mload\n  swap1\n  0x20\n  add\n  swap1\n  tag_3\n  swap3\n  swap2\n  swap1\n  tag_2\n  jump\t// in\ntag_3:\n  pop\n    /* \"contracts/Visibility.sol\":919:965  string public publicVar = \"my public variable\" */\n  mload(0x40)\n  dup1\n  0x40\n  add\n  0x40\n  mstore\n  dup1\n  0x12\n  dup2\n  mstore\n  0x20\n  add\n  0x6d79207075626c6963207661726961626c650000000000000000000000000000\n  dup2\n  mstore\n  pop\n  0x02\n  swap1\n  dup1\n  mload\n  swap1\n  0x20\n  add\n  swap1\n  tag_4\n  swap3\n  swap2\n  swap1\n  tag_2\n  jump\t// in\ntag_4:\n  pop\n    /* \"contracts/Visibility.sol\":973:1117  contract Child is Base{... */\n  callvalue\n  dup1\n  iszero\n  tag_5\n  jumpi\n  0x00\n  dup1\n  revert\ntag_5:\n  pop\n  jump(tag_6)\ntag_2:\n  dup3\n  dup1\n  sload\n  tag_7\n  swap1\n  tag_8\n  jump\t// in\ntag_7:\n  swap1\n  0x00\n  mstore\n  keccak256(0x00, 0x20)\n  swap1\n  0x1f\n  add\n  0x20\n  swap1\n  div\n  dup2\n  add\n  swap3\n  dup3\n  tag_10\n  jumpi\n  0x00\n  dup6\n  sstore\n  jump(tag_9)\ntag_10:\n  dup3\n  0x1f\n  lt\n  tag_11\n  jumpi\n  dup1\n  mload\n  not(0xff)\n  and\n  dup4\n  dup1\n  add\n  or\n  dup6\n  sstore\n  jump(tag_9)\ntag_11:\n  dup3\n  dup1\n  add\n  0x01\n  add\n  dup6\n  sstore\n  dup3\n  iszero\n  tag_9\n  jumpi\n  swap2\n  dup3\n  add\ntag_12:\n  dup3\n  dup2\n  gt\n  iszero\n  tag_13\n  jumpi\n  dup3\n  mload\n  dup3\n  sstore\n  swap2\n  0x20\n  add\n  swap2\n  swap1\n  0x01\n  add\n  swap1\n  jump(tag_12)\ntag_13:\ntag_9:\n  pop\n  swap1\n  pop\n  tag_14\n  swap2\n  swap1\n  tag_15\n  jump\t// in\ntag_14:\n  pop\n  swap1\n  jump\t// out\ntag_15:\ntag_16:\n  dup1\n  dup3\n  gt\n  iszero\n  tag_17\n  jumpi\n  0x00\n  dup2\n  0x00\n  swap1\n  sstore\n  pop\n  0x01\n  add\n  jump(tag_16)\ntag_17:\n  pop\n  swap1\n  jump\t// out\n    /* \"#utility.yul\":7:187   */\ntag_18:\n    /* \"#utility.yul\":55:132   */\n  0x4e487b7100000000000000000000000000000000000000000000000000000000\n    /* \"#utility.yul\":52:53   */\n  0x00\n    /* \"#utility.yul\":45:133   */\n  mstore\n    /* \"#utility.yul\":152:156   */\n  0x22\n    /* \"#utility.yul\":149:150   */\n  0x04\n    /* \"#utility.yul\":142:157   */\n  mstore\n    /* \"#utility.yul\":176:180   */\n  0x24\n    /* \"#utility.yul\":173:174   */\n  0x00\n    /* \"#utility.yul\":166:181   */\n  revert\n    /* \"#utility.yul\":193:513   */\ntag_8:\n    /* \"#utility.yul\":237:243   */\n  0x00\n    /* \"#utility.yul\":274:275   */\n  0x02\n    /* \"#utility.yul\":268:272   */\n  dup3\n    /* \"#utility.yul\":264:276   */\n  div\n    /* \"#utility.yul\":254:276   */\n  swap1\n  pop\n    /* \"#utility.yul\":321:322   */\n  0x01\n    /* \"#utility.yul\":315:319   */\n  dup3\n    /* \"#utility.yul\":311:323   */\n  and\n    /* \"#utility.yul\":342:360   */\n  dup1\n    /* \"#utility.yul\":332:413   */\n  tag_22\n  jumpi\n    /* \"#utility.yul\":398:402   */\n  0x7f\n    /* \"#utility.yul\":390:396   */\n  dup3\n    /* \"#utility.yul\":386:403   */\n  and\n    /* \"#utility.yul\":376:403   */\n  swap2\n  pop\n    /* \"#utility.yul\":332:413   */\ntag_22:\n    /* \"#utility.yul\":460:462   */\n  0x20\n    /* \"#utility.yul\":452:458   */\n  dup3\n    /* \"#utility.yul\":449:463   */\n  lt\n    /* \"#utility.yul\":429:447   */\n  dup2\n    /* \"#utility.yul\":426:464   */\n  sub\n    /* \"#utility.yul\":423:507   */\n  tag_23\n  jumpi\n    /* \"#utility.yul\":479:497   */\n  tag_24\n  tag_18\n  jump\t// in\ntag_24:\n    /* \"#utility.yul\":423:507   */\ntag_23:\n    /* \"#utility.yul\":244:513   */\n  pop\n    /* \"#utility.yul\":193:513   */\n  swap2\n  swap1\n  pop\n  jump\t// out\n    /* \"contracts/Visibility.sol\":973:1117  contract Child is Base{... */\ntag_6:\n  dataSize(sub_0)\n  dup1\n  dataOffset(sub_0)\n  0x00\n  codecopy\n  0x00\n  return\nstop\n\nsub_0: assembly {\n        /* \"contracts/Visibility.sol\":973:1117  contract Child is Base{... */\n      mstore(0x40, 0x80)\n      callvalue\n      dup1\n      iszero\n      tag_1\n      jumpi\n      0x00\n      dup1\n      revert\n    tag_1:\n      pop\n      jumpi(tag_2, lt(calldatasize, 0x04))\n      shr(0xe0, calldataload(0x00))\n      dup1\n      0x1151fad8\n      eq\n      tag_3\n      jumpi\n      dup1\n      0x2feb97df\n      eq\n      tag_4\n      jumpi\n      dup1\n      0x42b148aa\n      eq\n      tag_5\n      jumpi\n      dup1\n      0x4b73383f\n      eq\n      tag_6\n      jumpi\n      dup1\n      0xe8e46c41\n      eq\n      tag_7\n      jumpi\n    tag_2:\n      0x00\n      dup1\n      revert\n        /* \"contracts/Visibility.sol\":919:965  string public publicVar = \"my public variable\" */\n    tag_3:\n      tag_8\n      tag_9\n      jump\t// in\n    tag_8:\n      mload(0x40)\n      tag_10\n      swap2\n      swap1\n      tag_11\n      jump\t// in\n    tag_10:\n      mload(0x40)\n      dup1\n      swap2\n      sub\n      swap1\n      return\n        /* \"contracts/Visibility.sol\":204:305  function testprivateFunc() public pure returns(string memory) {... */\n    tag_4:\n      tag_12\n      tag_13\n      jump\t// in\n    tag_12:\n      mload(0x40)\n      tag_14\n      swap2\n      swap1\n      tag_11\n      jump\t// in\n    tag_14:\n      mload(0x40)\n      dup1\n      swap2\n      sub\n      swap1\n      return\n        /* \"contracts/Visibility.sol\":678:796  function externalFunc() external pure returns (string memory) {... */\n    tag_5:\n      tag_15\n      tag_16\n      jump\t// in\n    tag_15:\n      mload(0x40)\n      tag_17\n      swap2\n      swap1\n      tag_11\n      jump\t// in\n    tag_17:\n      mload(0x40)\n      dup1\n      swap2\n      sub\n      swap1\n      return\n        /* \"contracts/Visibility.sol\":560:670  function publicFunc() public pure returns(string memory) {... */\n    tag_6:\n      tag_18\n      tag_19\n      jump\t// in\n    tag_18:\n      mload(0x40)\n      tag_20\n      swap2\n      swap1\n      tag_11\n      jump\t// in\n    tag_20:\n      mload(0x40)\n      dup1\n      swap2\n      sub\n      swap1\n      return\n        /* \"contracts/Visibility.sol\":1002:1114  function testInternalFunc() public pure override returns (string memory){... */\n    tag_7:\n      tag_21\n      tag_22\n      jump\t// in\n    tag_21:\n      mload(0x40)\n      tag_23\n      swap2\n      swap1\n      tag_11\n      jump\t// in\n    tag_23:\n      mload(0x40)\n      dup1\n      swap2\n      sub\n      swap1\n      return\n        /* \"contracts/Visibility.sol\":919:965  string public publicVar = \"my public variable\" */\n    tag_9:\n      0x02\n      dup1\n      sload\n      tag_24\n      swap1\n      tag_25\n      jump\t// in\n    tag_24:\n      dup1\n      0x1f\n      add\n      0x20\n      dup1\n      swap2\n      div\n      mul\n      0x20\n      add\n      mload(0x40)\n      swap1\n      dup2\n      add\n      0x40\n      mstore\n      dup1\n      swap3\n      swap2\n      swap1\n      dup2\n      dup2\n      mstore\n      0x20\n      add\n      dup3\n      dup1\n      sload\n      tag_26\n      swap1\n      tag_25\n      jump\t// in\n    tag_26:\n      dup1\n      iszero\n      tag_27\n      jumpi\n      dup1\n      0x1f\n      lt\n      tag_28\n      jumpi\n      0x0100\n      dup1\n      dup4\n      sload\n      div\n      mul\n      dup4\n      mstore\n      swap2\n      0x20\n      add\n      swap2\n      jump(tag_27)\n    tag_28:\n      dup3\n      add\n      swap2\n      swap1\n      0x00\n      mstore\n      keccak256(0x00, 0x20)\n      swap1\n    tag_29:\n      dup2\n      sload\n      dup2\n      mstore\n      swap1\n      0x01\n      add\n      swap1\n      0x20\n      add\n      dup1\n      dup4\n      gt\n      tag_29\n      jumpi\n      dup3\n      swap1\n      sub\n      0x1f\n      and\n      dup3\n      add\n      swap2\n    tag_27:\n      pop\n      pop\n      pop\n      pop\n      pop\n      dup2\n      jump\t// out\n        /* \"contracts/Visibility.sol\":204:305  function testprivateFunc() public pure returns(string memory) {... */\n    tag_13:\n        /* \"contracts/Visibility.sol\":251:264  string memory */\n      0x60\n        /* \"contracts/Visibility.sol\":284:297  privateFunc() */\n      tag_31\n        /* \"contracts/Visibility.sol\":284:295  privateFunc */\n      tag_32\n        /* \"contracts/Visibility.sol\":284:297  privateFunc() */\n      jump\t// in\n    tag_31:\n        /* \"contracts/Visibility.sol\":277:297  return privateFunc() */\n      swap1\n      pop\n        /* \"contracts/Visibility.sol\":204:305  function testprivateFunc() public pure returns(string memory) {... */\n      swap1\n      jump\t// out\n        /* \"contracts/Visibility.sol\":678:796  function externalFunc() external pure returns (string memory) {... */\n    tag_16:\n        /* \"contracts/Visibility.sol\":725:738  string memory */\n      0x60\n        /* \"contracts/Visibility.sol\":751:788  return \"This is an External Function\" */\n      mload(0x40)\n      dup1\n      0x40\n      add\n      0x40\n      mstore\n      dup1\n      0x1c\n      dup2\n      mstore\n      0x20\n      add\n      0x5468697320697320616e2045787465726e616c2046756e6374696f6e00000000\n      dup2\n      mstore\n      pop\n      swap1\n      pop\n        /* \"contracts/Visibility.sol\":678:796  function externalFunc() external pure returns (string memory) {... */\n      swap1\n      jump\t// out\n        /* \"contracts/Visibility.sol\":560:670  function publicFunc() public pure returns(string memory) {... */\n    tag_19:\n        /* \"contracts/Visibility.sol\":602:615  string memory */\n      0x60\n        /* \"contracts/Visibility.sol\":628:662  return \"This is a Public Function\" */\n      mload(0x40)\n      dup1\n      0x40\n      add\n      0x40\n      mstore\n      dup1\n      0x19\n      dup2\n      mstore\n      0x20\n      add\n      0x546869732069732061205075626c69632046756e6374696f6e00000000000000\n      dup2\n      mstore\n      pop\n      swap1\n      pop\n        /* \"contracts/Visibility.sol\":560:670  function publicFunc() public pure returns(string memory) {... */\n      swap1\n      jump\t// out\n        /* \"contracts/Visibility.sol\":1002:1114  function testInternalFunc() public pure override returns (string memory){... */\n    tag_22:\n        /* \"contracts/Visibility.sol\":1060:1073  string memory */\n      0x60\n        /* \"contracts/Visibility.sol\":1092:1106  internalFunc() */\n      tag_36\n        /* \"contracts/Visibility.sol\":1092:1104  internalFunc */\n      tag_37\n        /* \"contracts/Visibility.sol\":1092:1106  internalFunc() */\n      jump\t// in\n    tag_36:\n        /* \"contracts/Visibility.sol\":1085:1106  return internalFunc() */\n      swap1\n      pop\n        /* \"contracts/Visibility.sol\":1002:1114  function testInternalFunc() public pure override returns (string memory){... */\n      swap1\n      jump\t// out\n        /* \"contracts/Visibility.sol\":83:196  function privateFunc() private pure returns(string memory) {... */\n    tag_32:\n        /* \"contracts/Visibility.sol\":127:140  string memory */\n      0x60\n        /* \"contracts/Visibility.sol\":153:188  return \"This is a Private Function\" */\n      mload(0x40)\n      dup1\n      0x40\n      add\n      0x40\n      mstore\n      dup1\n      0x1a\n      dup2\n      mstore\n      0x20\n      add\n      0x54686973206973206120507269766174652046756e6374696f6e000000000000\n      dup2\n      mstore\n      pop\n      swap1\n      pop\n        /* \"contracts/Visibility.sol\":83:196  function privateFunc() private pure returns(string memory) {... */\n      swap1\n      jump\t// out\n        /* \"contracts/Visibility.sol\":313:430  function internalFunc() internal pure returns(string memory) {... */\n    tag_37:\n        /* \"contracts/Visibility.sol\":359:372  string memory */\n      0x60\n        /* \"contracts/Visibility.sol\":385:422  return \"This is an Internal Function\" */\n      mload(0x40)\n      dup1\n      0x40\n      add\n      0x40\n      mstore\n      dup1\n      0x1c\n      dup2\n      mstore\n      0x20\n      add\n      0x5468697320697320616e20496e7465726e616c2046756e6374696f6e00000000\n      dup2\n      mstore\n      pop\n      swap1\n      pop\n        /* \"contracts/Visibility.sol\":313:430  function internalFunc() internal pure returns(string memory) {... */\n      swap1\n      jump\t// out\n        /* \"#utility.yul\":7:106   */\n    tag_40:\n        /* \"#utility.yul\":59:65   */\n      0x00\n        /* \"#utility.yul\":93:98   */\n      dup2\n        /* \"#utility.yul\":87:99   */\n      mload\n        /* \"#utility.yul\":77:99   */\n      swap1\n      pop\n        /* \"#utility.yul\":7:106   */\n      swap2\n      swap1\n      pop\n      jump\t// out\n        /* \"#utility.yul\":112:281   */\n    tag_41:\n        /* \"#utility.yul\":196:207   */\n      0x00\n        /* \"#utility.yul\":230:236   */\n      dup3\n        /* \"#utility.yul\":225:228   */\n      dup3\n        /* \"#utility.yul\":218:237   */\n      mstore\n        /* \"#utility.yul\":270:274   */\n      0x20\n        /* \"#utility.yul\":265:268   */\n      dup3\n        /* \"#utility.yul\":261:275   */\n      add\n        /* \"#utility.yul\":246:275   */\n      swap1\n      pop\n        /* \"#utility.yul\":112:281   */\n      swap3\n      swap2\n      pop\n      pop\n      jump\t// out\n        /* \"#utility.yul\":287:594   */\n    tag_42:\n        /* \"#utility.yul\":355:356   */\n      0x00\n        /* \"#utility.yul\":365:478   */\n    tag_50:\n        /* \"#utility.yul\":379:385   */\n      dup4\n        /* \"#utility.yul\":376:377   */\n      dup2\n        /* \"#utility.yul\":373:386   */\n      lt\n        /* \"#utility.yul\":365:478   */\n      iszero\n      tag_52\n      jumpi\n        /* \"#utility.yul\":464:465   */\n      dup1\n        /* \"#utility.yul\":459:462   */\n      dup3\n        /* \"#utility.yul\":455:466   */\n      add\n        /* \"#utility.yul\":449:467   */\n      mload\n        /* \"#utility.yul\":445:446   */\n      dup2\n        /* \"#utility.yul\":440:443   */\n      dup5\n        /* \"#utility.yul\":436:447   */\n      add\n        /* \"#utility.yul\":429:468   */\n      mstore\n        /* \"#utility.yul\":401:403   */\n      0x20\n        /* \"#utility.yul\":398:399   */\n      dup2\n        /* \"#utility.yul\":394:404   */\n      add\n        /* \"#utility.yul\":389:404   */\n      swap1\n      pop\n        /* \"#utility.yul\":365:478   */\n      jump(tag_50)\n    tag_52:\n        /* \"#utility.yul\":496:502   */\n      dup4\n        /* \"#utility.yul\":493:494   */\n      dup2\n        /* \"#utility.yul\":490:503   */\n      gt\n        /* \"#utility.yul\":487:588   */\n      iszero\n      tag_53\n      jumpi\n        /* \"#utility.yul\":576:577   */\n      0x00\n        /* \"#utility.yul\":567:573   */\n      dup5\n        /* \"#utility.yul\":562:565   */\n      dup5\n        /* \"#utility.yul\":558:574   */\n      add\n        /* \"#utility.yul\":551:578   */\n      mstore\n        /* \"#utility.yul\":487:588   */\n    tag_53:\n        /* \"#utility.yul\":336:594   */\n      pop\n        /* \"#utility.yul\":287:594   */\n      pop\n      pop\n      pop\n      jump\t// out\n        /* \"#utility.yul\":600:702   */\n    tag_43:\n        /* \"#utility.yul\":641:647   */\n      0x00\n        /* \"#utility.yul\":692:694   */\n      0x1f\n        /* \"#utility.yul\":688:695   */\n      not\n        /* \"#utility.yul\":683:685   */\n      0x1f\n        /* \"#utility.yul\":676:681   */\n      dup4\n        /* \"#utility.yul\":672:686   */\n      add\n        /* \"#utility.yul\":668:696   */\n      and\n        /* \"#utility.yul\":658:696   */\n      swap1\n      pop\n        /* \"#utility.yul\":600:702   */\n      swap2\n      swap1\n      pop\n      jump\t// out\n        /* \"#utility.yul\":708:1072   */\n    tag_44:\n        /* \"#utility.yul\":796:799   */\n      0x00\n        /* \"#utility.yul\":824:863   */\n      tag_56\n        /* \"#utility.yul\":857:862   */\n      dup3\n        /* \"#utility.yul\":824:863   */\n      tag_40\n      jump\t// in\n    tag_56:\n        /* \"#utility.yul\":879:950   */\n      tag_57\n        /* \"#utility.yul\":943:949   */\n      dup2\n        /* \"#utility.yul\":938:941   */\n      dup6\n        /* \"#utility.yul\":879:950   */\n      tag_41\n      jump\t// in\n    tag_57:\n        /* \"#utility.yul\":872:950   */\n      swap4\n      pop\n        /* \"#utility.yul\":959:1011   */\n      tag_58\n        /* \"#utility.yul\":1004:1010   */\n      dup2\n        /* \"#utility.yul\":999:1002   */\n      dup6\n        /* \"#utility.yul\":992:996   */\n      0x20\n        /* \"#utility.yul\":985:990   */\n      dup7\n        /* \"#utility.yul\":981:997   */\n      add\n        /* \"#utility.yul\":959:1011   */\n      tag_42\n      jump\t// in\n    tag_58:\n        /* \"#utility.yul\":1036:1065   */\n      tag_59\n        /* \"#utility.yul\":1058:1064   */\n      dup2\n        /* \"#utility.yul\":1036:1065   */\n      tag_43\n      jump\t// in\n    tag_59:\n        /* \"#utility.yul\":1031:1034   */\n      dup5\n        /* \"#utility.yul\":1027:1066   */\n      add\n        /* \"#utility.yul\":1020:1066   */\n      swap2\n      pop\n        /* \"#utility.yul\":800:1072   */\n      pop\n        /* \"#utility.yul\":708:1072   */\n      swap3\n      swap2\n      pop\n      pop\n      jump\t// out\n        /* \"#utility.yul\":1078:1391   */\n    tag_11:\n        /* \"#utility.yul\":1191:1195   */\n      0x00\n        /* \"#utility.yul\":1229:1231   */\n      0x20\n        /* \"#utility.yul\":1218:1227   */\n      dup3\n        /* \"#utility.yul\":1214:1232   */\n      add\n        /* \"#utility.yul\":1206:1232   */\n      swap1\n      pop\n        /* \"#utility.yul\":1278:1287   */\n      dup2\n        /* \"#utility.yul\":1272:1276   */\n      dup2\n        /* \"#utility.yul\":1268:1288   */\n      sub\n        /* \"#utility.yul\":1264:1265   */\n      0x00\n        /* \"#utility.yul\":1253:1262   */\n      dup4\n        /* \"#utility.yul\":1249:1266   */\n      add\n        /* \"#utility.yul\":1242:1289   */\n      mstore\n        /* \"#utility.yul\":1306:1384   */\n      tag_61\n        /* \"#utility.yul\":1379:1383   */\n      dup2\n        /* \"#utility.yul\":1370:1376   */\n      dup5\n        /* \"#utility.yul\":1306:1384   */\n      tag_44\n      jump\t// in\n    tag_61:\n        /* \"#utility.yul\":1298:1384   */\n      swap1\n      pop\n        /* \"#utility.yul\":1078:1391   */\n      swap3\n      swap2\n      pop\n      pop\n      jump\t// out\n        /* \"#utility.yul\":1397:1577   */\n    tag_45:\n        /* \"#utility.yul\":1445:1522   */\n      0x4e487b7100000000000000000000000000000000000000000000000000000000\n        /* \"#utility.yul\":1442:1443   */\n      0x00\n        /* \"#utility.yul\":1435:1523   */\n      mstore\n        /* \"#utility.yul\":1542:1546   */\n      0x22\n        /* \"#utility.yul\":1539:1540   */\n      0x04\n        /* \"#utility.yul\":1532:1547   */\n      mstore\n        /* \"#utility.yul\":1566:1570   */\n      0x24\n        /* \"#utility.yul\":1563:1564   */\n      0x00\n        /* \"#utility.yul\":1556:1571   */\n      revert\n        /* \"#utility.yul\":1583:1903   */\n    tag_25:\n        /* \"#utility.yul\":1627:1633   */\n      0x00\n        /* \"#utility.yul\":1664:1665   */\n      0x02\n        /* \"#utility.yul\":1658:1662   */\n      dup3\n        /* \"#utility.yul\":1654:1666   */\n      div\n        /* \"#utility.yul\":1644:1666   */\n      swap1\n      pop\n        /* \"#utility.yul\":1711:1712   */\n      0x01\n        /* \"#utility.yul\":1705:1709   */\n      dup3\n        /* \"#utility.yul\":1701:1713   */\n      and\n        /* \"#utility.yul\":1732:1750   */\n      dup1\n        /* \"#utility.yul\":1722:1803   */\n      tag_64\n      jumpi\n        /* \"#utility.yul\":1788:1792   */\n      0x7f\n        /* \"#utility.yul\":1780:1786   */\n      dup3\n        /* \"#utility.yul\":1776:1793   */\n      and\n        /* \"#utility.yul\":1766:1793   */\n      swap2\n      pop\n        /* \"#utility.yul\":1722:1803   */\n    tag_64:\n        /* \"#utility.yul\":1850:1852   */\n      0x20\n        /* \"#utility.yul\":1842:1848   */\n      dup3\n        /* \"#utility.yul\":1839:1853   */\n      lt\n        /* \"#utility.yul\":1819:1837   */\n      dup2\n        /* \"#utility.yul\":1816:1854   */\n      sub\n        /* \"#utility.yul\":1813:1897   */\n      tag_65\n      jumpi\n        /* \"#utility.yul\":1869:1887   */\n      tag_66\n      tag_45\n      jump\t// in\n    tag_66:\n        /* \"#utility.yul\":1813:1897   */\n    tag_65:\n        /* \"#utility.yul\":1634:1903   */\n      pop\n        /* \"#utility.yul\":1583:1903   */\n      swap2\n      swap1\n      pop\n      jump\t// out\n\n    auxdata: 0xa2646970667358221220dc952cabbb6984b44f701600ce98bdcabcf5f8cdc30cdc5dc58eb8e7146c303e64736f6c634300080d0033\n}\n",
				"bytecode": {
					"linkReferences": {},
					"object": "60806040526040518060400160405280601381526020017f6d792070726976617465207661726961626c65000000000000000000000000008152506000908051906020019061004f9291906100fa565b506040518060400160405280601481526020017f6d7920696e7465726e616c207661726961626c650000000000000000000000008152506001908051906020019061009b9291906100fa565b506040518060400160405280601281526020017f6d79207075626c6963207661726961626c650000000000000000000000000000815250600290805190602001906100e79291906100fa565b503480156100f457600080fd5b506101fd565b828054610106906101cc565b90600052602060002090601f016020900481019282610128576000855561016f565b82601f1061014157805160ff191683800117855561016f565b8280016001018555821561016f579182015b8281111561016e578251825591602001919060010190610153565b5b50905061017c9190610180565b5090565b5b80821115610199576000816000905550600101610181565b5090565b7f4e487b7100000000000000000000000000000000000000000000000000000000600052602260045260246000fd5b600060028204905060018216806101e457607f821691505b6020821081036101f7576101f661019d565b5b50919050565b6103e38061020c6000396000f3fe608060405234801561001057600080fd5b50600436106100575760003560e01c80631151fad81461005c5780632feb97df1461007a57806342b148aa146100985780634b73383f146100b6578063e8e46c41146100d4575b600080fd5b6100646100f2565b604051610071919061032b565b60405180910390f35b610082610180565b60405161008f919061032b565b60405180910390f35b6100a061018f565b6040516100ad919061032b565b60405180910390f35b6100be6101cc565b6040516100cb919061032b565b60405180910390f35b6100dc610209565b6040516100e9919061032b565b60405180910390f35b600280546100ff9061037c565b80601f016020809104026020016040519081016040528092919081815260200182805461012b9061037c565b80156101785780601f1061014d57610100808354040283529160200191610178565b820191906000526020600020905b81548152906001019060200180831161015b57829003601f168201915b505050505081565b606061018a610218565b905090565b60606040518060400160405280601c81526020017f5468697320697320616e2045787465726e616c2046756e6374696f6e00000000815250905090565b60606040518060400160405280601981526020017f546869732069732061205075626c69632046756e6374696f6e00000000000000815250905090565b6060610213610255565b905090565b60606040518060400160405280601a81526020017f54686973206973206120507269766174652046756e6374696f6e000000000000815250905090565b60606040518060400160405280601c81526020017f5468697320697320616e20496e7465726e616c2046756e6374696f6e00000000815250905090565b600081519050919050565b600082825260208201905092915050565b60005b838110156102cc5780820151818401526020810190506102b1565b838111156102db576000848401525b50505050565b6000601f19601f8301169050919050565b60006102fd82610292565b610307818561029d565b93506103178185602086016102ae565b610320816102e1565b840191505092915050565b6000602082019050818103600083015261034581846102f2565b905092915050565b7f4e487b7100000000000000000000000000000000000000000000000000000000600052602260045260246000fd5b6000600282049050600182168061039457607f821691505b6020821081036103a7576103a661034d565b5b5091905056fea2646970667358221220dc952cabbb6984b44f701600ce98bdcabcf5f8cdc30cdc5dc58eb8e7146c303e64736f6c634300080d0033",
					"opcodes": "PUSH1 0x80 PUSH1 0x40 MSTORE PUSH1 0x40 MLOAD DUP1 PUSH1 0x40 ADD PUSH1 0x40 MSTORE DUP1 PUSH1 0x13 DUP2 MSTORE PUSH1 0x20 ADD PUSH32 0x6D792070726976617465207661726961626C6500000000000000000000000000 DUP2 MSTORE POP PUSH1 0x0 SWAP1 DUP1 MLOAD SWAP1 PUSH1 0x20 ADD SWAP1 PUSH2 0x4F SWAP3 SWAP2 SWAP1 PUSH2 0xFA JUMP JUMPDEST POP PUSH1 0x40 MLOAD DUP1 PUSH1 0x40 ADD PUSH1 0x40 MSTORE DUP1 PUSH1 0x14 DUP2 MSTORE PUSH1 0x20 ADD PUSH32 0x6D7920696E7465726E616C207661726961626C65000000000000000000000000 DUP2 MSTORE POP PUSH1 0x1 SWAP1 DUP1 MLOAD SWAP1 PUSH1 0x20 ADD SWAP1 PUSH2 0x9B SWAP3 SWAP2 SWAP1 PUSH2 0xFA JUMP JUMPDEST POP PUSH1 0x40 MLOAD DUP1 PUSH1 0x40 ADD PUSH1 0x40 MSTORE DUP1 PUSH1 0x12 DUP2 MSTORE PUSH1 0x20 ADD PUSH32 0x6D79207075626C6963207661726961626C650000000000000000000000000000 DUP2 MSTORE POP PUSH1 0x2 SWAP1 DUP1 MLOAD SWAP1 PUSH1 0x20 ADD SWAP1 PUSH2 0xE7 SWAP3 SWAP2 SWAP1 PUSH2 0xFA JUMP JUMPDEST POP CALLVALUE DUP1 ISZERO PUSH2 0xF4 JUMPI PUSH1 0x0 DUP1 REVERT JUMPDEST POP PUSH2 0x1FD JUMP JUMPDEST DUP3 DUP1 SLOAD PUSH2 0x106 SWAP1 PUSH2 0x1CC JUMP JUMPDEST SWAP1 PUSH1 0x0 MSTORE PUSH1 0x20 PUSH1 0x0 KECCAK256 SWAP1 PUSH1 0x1F ADD PUSH1 0x20 SWAP1 DIV DUP2 ADD SWAP3 DUP3 PUSH2 0x128 JUMPI PUSH1 0x0 DUP6 SSTORE PUSH2 0x16F JUMP JUMPDEST DUP3 PUSH1 0x1F LT PUSH2 0x141 JUMPI DUP1 MLOAD PUSH1 0xFF NOT AND DUP4 DUP1 ADD OR DUP6 SSTORE PUSH2 0x16F JUMP JUMPDEST DUP3 DUP1 ADD PUSH1 0x1 ADD DUP6 SSTORE DUP3 ISZERO PUSH2 0x16F JUMPI SWAP2 DUP3 ADD JUMPDEST DUP3 DUP2 GT ISZERO PUSH2 0x16E JUMPI DUP3 MLOAD DUP3 SSTORE SWAP2 PUSH1 0x20 ADD SWAP2 SWAP1 PUSH1 0x1 ADD SWAP1 PUSH2 0x153 JUMP JUMPDEST JUMPDEST POP SWAP1 POP PUSH2 0x17C SWAP2 SWAP1 PUSH2 0x180 JUMP JUMPDEST POP SWAP1 JUMP JUMPDEST JUMPDEST DUP1 DUP3 GT ISZERO PUSH2 0x199 JUMPI PUSH1 0x0 DUP2 PUSH1 0x0 SWAP1 SSTORE POP PUSH1 0x1 ADD PUSH2 0x181 JUMP JUMPDEST POP SWAP1 JUMP JUMPDEST PUSH32 0x4E487B7100000000000000000000000000000000000000000000000000000000 PUSH1 0x0 MSTORE PUSH1 0x22 PUSH1 0x4 MSTORE PUSH1 0x24 PUSH1 0x0 REVERT JUMPDEST PUSH1 0x0 PUSH1 0x2 DUP3 DIV SWAP1 POP PUSH1 0x1 DUP3 AND DUP1 PUSH2 0x1E4 JUMPI PUSH1 0x7F DUP3 AND SWAP2 POP JUMPDEST PUSH1 0x20 DUP3 LT DUP2 SUB PUSH2 0x1F7 JUMPI PUSH2 0x1F6 PUSH2 0x19D JUMP JUMPDEST JUMPDEST POP SWAP2 SWAP1 POP JUMP JUMPDEST PUSH2 0x3E3 DUP1 PUSH2 0x20C PUSH1 0x0 CODECOPY PUSH1 0x0 RETURN INVALID PUSH1 0x80 PUSH1 0x40 MSTORE CALLVALUE DUP1 ISZERO PUSH2 0x10 JUMPI PUSH1 0x0 DUP1 REVERT JUMPDEST POP PUSH1 0x4 CALLDATASIZE LT PUSH2 0x57 JUMPI PUSH1 0x0 CALLDATALOAD PUSH1 0xE0 SHR DUP1 PUSH4 0x1151FAD8 EQ PUSH2 0x5C JUMPI DUP1 PUSH4 0x2FEB97DF EQ PUSH2 0x7A JUMPI DUP1 PUSH4 0x42B148AA EQ PUSH2 0x98 JUMPI DUP1 PUSH4 0x4B73383F EQ PUSH2 0xB6 JUMPI DUP1 PUSH4 0xE8E46C41 EQ PUSH2 0xD4 JUMPI JUMPDEST PUSH1 0x0 DUP1 REVERT JUMPDEST PUSH2 0x64 PUSH2 0xF2 JUMP JUMPDEST PUSH1 0x40 MLOAD PUSH2 0x71 SWAP2 SWAP1 PUSH2 0x32B JUMP JUMPDEST PUSH1 0x40 MLOAD DUP1 SWAP2 SUB SWAP1 RETURN JUMPDEST PUSH2 0x82 PUSH2 0x180 JUMP JUMPDEST PUSH1 0x40 MLOAD PUSH2 0x8F SWAP2 SWAP1 PUSH2 0x32B JUMP JUMPDEST PUSH1 0x40 MLOAD DUP1 SWAP2 SUB SWAP1 RETURN JUMPDEST PUSH2 0xA0 PUSH2 0x18F JUMP JUMPDEST PUSH1 0x40 MLOAD PUSH2 0xAD SWAP2 SWAP1 PUSH2 0x32B JUMP JUMPDEST PUSH1 0x40 MLOAD DUP1 SWAP2 SUB SWAP1 RETURN JUMPDEST PUSH2 0xBE PUSH2 0x1CC JUMP JUMPDEST PUSH1 0x40 MLOAD PUSH2 0xCB SWAP2 SWAP1 PUSH2 0x32B JUMP JUMPDEST PUSH1 0x40 MLOAD DUP1 SWAP2 SUB SWAP1 RETURN JUMPDEST PUSH2 0xDC PUSH2 0x209 JUMP JUMPDEST PUSH1 0x40 MLOAD PUSH2 0xE9 SWAP2 SWAP1 PUSH2 0x32B JUMP JUMPDEST PUSH1 0x40 MLOAD DUP1 SWAP2 SUB SWAP1 RETURN JUMPDEST PUSH1 0x2 DUP1 SLOAD PUSH2 0xFF SWAP1 PUSH2 0x37C JUMP JUMPDEST DUP1 PUSH1 0x1F ADD PUSH1 0x20 DUP1 SWAP2 DIV MUL PUSH1 0x20 ADD PUSH1 0x40 MLOAD SWAP1 DUP2 ADD PUSH1 0x40 MSTORE DUP1 SWAP3 SWAP2 SWAP1 DUP2 DUP2 MSTORE PUSH1 0x20 ADD DUP3 DUP1 SLOAD PUSH2 0x12B SWAP1 PUSH2 0x37C JUMP JUMPDEST DUP1 ISZERO PUSH2 0x178 JUMPI DUP1 PUSH1 0x1F LT PUSH2 0x14D JUMPI PUSH2 0x100 DUP1 DUP4 SLOAD DIV MUL DUP4 MSTORE SWAP2 PUSH1 0x20 ADD SWAP2 PUSH2 0x178 JUMP JUMPDEST DUP3 ADD SWAP2 SWAP1 PUSH1 0x0 MSTORE PUSH1 0x20 PUSH1 0x0 KECCAK256 SWAP1 JUMPDEST DUP2 SLOAD DUP2 MSTORE SWAP1 PUSH1 0x1 ADD SWAP1 PUSH1 0x20 ADD DUP1 DUP4 GT PUSH2 0x15B JUMPI DUP3 SWAP1 SUB PUSH1 0x1F AND DUP3 ADD SWAP2 JUMPDEST POP POP POP POP POP DUP2 JUMP JUMPDEST PUSH1 0x60 PUSH2 0x18A PUSH2 0x218 JUMP JUMPDEST SWAP1 POP SWAP1 JUMP JUMPDEST PUSH1 0x60 PUSH1 0x40 MLOAD DUP1 PUSH1 0x40 ADD PUSH1 0x40 MSTORE DUP1 PUSH1 0x1C DUP2 MSTORE PUSH1 0x20 ADD PUSH32 0x5468697320697320616E2045787465726E616C2046756E6374696F6E00000000 DUP2 MSTORE POP SWAP1 POP SWAP1 JUMP JUMPDEST PUSH1 0x60 PUSH1 0x40 MLOAD DUP1 PUSH1 0x40 ADD PUSH1 0x40 MSTORE DUP1 PUSH1 0x19 DUP2 MSTORE PUSH1 0x20 ADD PUSH32 0x546869732069732061205075626C69632046756E6374696F6E00000000000000 DUP2 MSTORE POP SWAP1 POP SWAP1 JUMP JUMPDEST PUSH1 0x60 PUSH2 0x213 PUSH2 0x255 JUMP JUMPDEST SWAP1 POP SWAP1 JUMP JUMPDEST PUSH1 0x60 PUSH1 0x40 MLOAD DUP1 PUSH1 0x40 ADD PUSH1 0x40 MSTORE DUP1 PUSH1 0x1A DUP2 MSTORE PUSH1 0x20 ADD PUSH32 0x54686973206973206120507269766174652046756E6374696F6E000000000000 DUP2 MSTORE POP SWAP1 POP SWAP1 JUMP JUMPDEST PUSH1 0x60 PUSH1 0x40 MLOAD DUP1 PUSH1 0x40 ADD PUSH1 0x40 MSTORE DUP1 PUSH1 0x1C DUP2 MSTORE PUSH1 0x20 ADD PUSH32 0x5468697320697320616E20496E7465726E616C2046756E6374696F6E00000000 DUP2 MSTORE POP SWAP1 POP SWAP1 JUMP JUMPDEST PUSH1 0x0 DUP2 MLOAD SWAP1 POP SWAP2 SWAP1 POP JUMP JUMPDEST PUSH1 0x0 DUP3 DUP3 MSTORE PUSH1 0x20 DUP3 ADD SWAP1 POP SWAP3 SWAP2 POP POP JUMP JUMPDEST PUSH1 0x0 JUMPDEST DUP4 DUP2 LT ISZERO PUSH2 0x2CC JUMPI DUP1 DUP3 ADD MLOAD DUP2 DUP5 ADD MSTORE PUSH1 0x20 DUP2 ADD SWAP1 POP PUSH2 0x2B1 JUMP JUMPDEST DUP4 DUP2 GT ISZERO PUSH2 0x2DB JUMPI PUSH1 0x0 DUP5 DUP5 ADD MSTORE JUMPDEST POP POP POP POP JUMP JUMPDEST PUSH1 0x0 PUSH1 0x1F NOT PUSH1 0x1F DUP4 ADD AND SWAP1 POP SWAP2 SWAP1 POP JUMP JUMPDEST PUSH1 0x0 PUSH2 0x2FD DUP3 PUSH2 0x292 JUMP JUMPDEST PUSH2 0x307 DUP2 DUP6 PUSH2 0x29D JUMP JUMPDEST SWAP4 POP PUSH2 0x317 DUP2 DUP6 PUSH1 0x20 DUP7 ADD PUSH2 0x2AE JUMP JUMPDEST PUSH2 0x320 DUP2 PUSH2 0x2E1 JUMP JUMPDEST DUP5 ADD SWAP2 POP POP SWAP3 SWAP2 POP POP JUMP JUMPDEST PUSH1 0x0 PUSH1 0x20 DUP3 ADD SWAP1 POP DUP2 DUP2 SUB PUSH1 0x0 DUP4 ADD MSTORE PUSH2 0x345 DUP2 DUP5 PUSH2 0x2F2 JUMP JUMPDEST SWAP1 POP SWAP3 SWAP2 POP POP JUMP JUMPDEST PUSH32 0x4E487B7100000000000000000000000000000000000000000000000000000000 PUSH1 0x0 MSTORE PUSH1 0x22 PUSH1 0x4 MSTORE PUSH1 0x24 PUSH1 0x0 REVERT JUMPDEST PUSH1 0x0 PUSH1 0x2 DUP3 DIV SWAP1 POP PUSH1 0x1 DUP3 AND DUP1 PUSH2 0x394 JUMPI PUSH1 0x7F DUP3 AND SWAP2 POP JUMPDEST PUSH1 0x20 DUP3 LT DUP2 SUB PUSH2 0x3A7 JUMPI PUSH2 0x3A6 PUSH2 0x34D JUMP JUMPDEST JUMPDEST POP SWAP2 SWAP1 POP JUMP INVALID LOG2 PUSH5 0x6970667358 0x22 SLT KECCAK256 0xDC SWAP6 0x2C 0xAB 0xBB PUSH10 0x84B44F701600CE98BDCA 0xBC CREATE2 0xF8 0xCD 0xC3 0xC 0xDC 0x5D 0xC5 DUP15 0xB8 0xE7 EQ PUSH13 0x303E64736F6C634300080D0033 "
				},
				"gasEstimates": {
					"creation": {
						"codeDepositCost": "199000",
						"executionCost": "infinite",
						"totalCost": "infinite"
					},
					"external": {
						"externalFunc()": "infinite",
						"publicFunc()": "infinite",
						"publicVar()": "infinite",
						"testInternalFunc()": "infinite",
						"testprivateFunc()": "infinite"
					}
				},
				"methodIdentifiers": {
					"externalFunc()": "42b148aa",
					"publicFunc()": "4b73383f",
					"publicVar()": "1151fad8",
					"testInternalFunc()": "e8e46c41",
					"testprivateFunc()": "2feb97df"
				}
			},
			"storageLayout": {
				"storage": [
					{
						"astId": 54,
						"contract": "contracts/Visibility.sol:Child",
						"label": "privateVar",
						"offset": 0,
						"slot": "0",
						"type": "t_string_storage"
					},
					{
						"astId": 57,
						"contract": "contracts/Visibility.sol:Child",
						"label": "internalVar",
						"offset": 0,
						"slot": "1",
						"type": "t_string_storage"
					},
					{
						"astId": 60,
						"contract": "contracts/Visibility.sol:Child",
						"label": "publicVar",
						"offset": 0,
						"slot": "2",
						"type": "t_string_storage"
					}
				],
				"types": {
					"t_string_storage": {
						"encoding": "bytes",
						"label": "string",
						"numberOfBytes": "32"
					}
				}
			},
			"userdoc": {
				"kind": "user",
				"methods": {},
				"version": 1
			}
		}
	}
}