{
	"contracts/CallFunction.sol": {
		"Caller": {
			"abi": [
				{
					"anonymous": false,
					"inputs": [
						{
							"indexed": false,
							"internalType": "bool",
							"name": "success",
							"type": "bool"
						},
						{
							"indexed": false,
							"internalType": "bytes",
							"name": "data",
							"type": "bytes"
						}
					],
					"name": "Response",
					"type": "event"
				},
				{
					"inputs": [
						{
							"internalType": "address payable",
							"name": "_addr",
							"type": "address"
						}
					],
					"name": "testCallFoo",
					"outputs": [],
					"stateMutability": "payable",
					"type": "function"
				},
				{
					"inputs": [
						{
							"internalType": "address",
							"name": "_addr",
							"type": "address"
						}
					],
					"name": "testCalldoesnotExist",
					"outputs": [],
					"stateMutability": "nonpayable",
					"type": "function"
				}
			],
			"devdoc": {
				"kind": "dev",
				"methods": {},
				"version": 1
			},
			"evm": {
				"assembly": "    /* \"contracts/CallFunction.sol\":444:1032  contract Caller{... */\n  mstore(0x40, 0x80)\n  callvalue\n  dup1\n  iszero\n  tag_1\n  jumpi\n  0x00\n  dup1\n  revert\ntag_1:\n  pop\n  dataSize(sub_0)\n  dup1\n  dataOffset(sub_0)\n  0x00\n  codecopy\n  0x00\n  return\nstop\n\nsub_0: assembly {\n        /* \"contracts/CallFunction.sol\":444:1032  contract Caller{... */\n      mstore(0x40, 0x80)\n      jumpi(tag_1, lt(calldatasize, 0x04))\n      shr(0xe0, calldataload(0x00))\n      dup1\n      0x1035b796\n      eq\n      tag_2\n      jumpi\n      dup1\n      0x87ba6179\n      eq\n      tag_3\n      jumpi\n    tag_1:\n      0x00\n      dup1\n      revert\n        /* \"contracts/CallFunction.sol\":806:1029  function testCalldoesnotExist(address _addr) public {... */\n    tag_2:\n      callvalue\n      dup1\n      iszero\n      tag_4\n      jumpi\n      0x00\n      dup1\n      revert\n    tag_4:\n      pop\n      tag_5\n      0x04\n      dup1\n      calldatasize\n      sub\n      dup2\n      add\n      swap1\n      tag_6\n      swap2\n      swap1\n      tag_7\n      jump\t// in\n    tag_6:\n      tag_8\n      jump\t// in\n    tag_5:\n      stop\n        /* \"contracts/CallFunction.sol\":515:798  function testCallFoo(address payable _addr) public payable {... */\n    tag_3:\n      tag_9\n      0x04\n      dup1\n      calldatasize\n      sub\n      dup2\n      add\n      swap1\n      tag_10\n      swap2\n      swap1\n      tag_11\n      jump\t// in\n    tag_10:\n      tag_12\n      jump\t// in\n    tag_9:\n      stop\n        /* \"contracts/CallFunction.sol\":806:1029  function testCalldoesnotExist(address _addr) public {... */\n    tag_8:\n        /* \"contracts/CallFunction.sol\":870:882  bool success */\n      0x00\n        /* \"contracts/CallFunction.sol\":884:901  bytes memory data */\n      dup1\n        /* \"contracts/CallFunction.sol\":905:910  _addr */\n      dup3\n        /* \"contracts/CallFunction.sol\":905:915  _addr.call */\n      0xffffffffffffffffffffffffffffffffffffffff\n      and\n        /* \"contracts/CallFunction.sol\":930:971  abi.encodeWithSignature(\"doesnotExist()\") */\n      add(0x24, mload(0x40))\n      mload(0x40)\n      0x20\n      dup2\n      dup4\n      sub\n      sub\n      dup2\n      mstore\n      swap1\n      0x40\n      mstore\n      and(not(0xffffffffffffffffffffffffffffffffffffffffffffffffffffffff), 0x317312d700000000000000000000000000000000000000000000000000000000)\n      0x20\n      dup3\n      add\n      dup1\n      mload\n      0xffffffffffffffffffffffffffffffffffffffffffffffffffffffff\n      dup4\n      dup2\n      dup4\n      and\n      or\n      dup4\n      mstore\n      pop\n      pop\n      pop\n      pop\n        /* \"contracts/CallFunction.sol\":905:982  _addr.call(... */\n      mload(0x40)\n      tag_14\n      swap2\n      swap1\n      tag_15\n      jump\t// in\n    tag_14:\n      0x00\n      mload(0x40)\n      dup1\n      dup4\n      sub\n      dup2\n      0x00\n      dup7\n      gas\n      call\n      swap2\n      pop\n      pop\n      returndatasize\n      dup1\n      0x00\n      dup2\n      eq\n      tag_18\n      jumpi\n      mload(0x40)\n      swap2\n      pop\n      and(add(returndatasize, 0x3f), not(0x1f))\n      dup3\n      add\n      0x40\n      mstore\n      returndatasize\n      dup3\n      mstore\n      returndatasize\n      0x00\n      0x20\n      dup5\n      add\n      returndatacopy\n      jump(tag_17)\n    tag_18:\n      0x60\n      swap2\n      pop\n    tag_17:\n      pop\n        /* \"contracts/CallFunction.sol\":869:982  (bool success, bytes memory data) = _addr.call(... */\n      swap2\n      pop\n      swap2\n      pop\n        /* \"contracts/CallFunction.sol\":998:1021  Response(success, data) */\n      0x13848c3e38f8886f3f5d2ad9dff80d8092c2bbb8efd5b887a99c2c6cfc09ac2a\n        /* \"contracts/CallFunction.sol\":1007:1014  success */\n      dup3\n        /* \"contracts/CallFunction.sol\":1016:1020  data */\n      dup3\n        /* \"contracts/CallFunction.sol\":998:1021  Response(success, data) */\n      mload(0x40)\n      tag_19\n      swap3\n      swap2\n      swap1\n      tag_20\n      jump\t// in\n    tag_19:\n      mload(0x40)\n      dup1\n      swap2\n      sub\n      swap1\n      log1\n        /* \"contracts/CallFunction.sol\":858:1029  {... */\n      pop\n      pop\n        /* \"contracts/CallFunction.sol\":806:1029  function testCalldoesnotExist(address _addr) public {... */\n      pop\n      jump\t// out\n        /* \"contracts/CallFunction.sol\":515:798  function testCallFoo(address payable _addr) public payable {... */\n    tag_12:\n        /* \"contracts/CallFunction.sol\":586:598  bool success */\n      0x00\n        /* \"contracts/CallFunction.sol\":600:617  bytes memory data */\n      dup1\n        /* \"contracts/CallFunction.sol\":621:626  _addr */\n      dup3\n        /* \"contracts/CallFunction.sol\":621:631  _addr.call */\n      0xffffffffffffffffffffffffffffffffffffffff\n      and\n        /* \"contracts/CallFunction.sol\":639:648  msg.value */\n      callvalue\n        /* \"contracts/CallFunction.sol\":655:659  5000 */\n      0x1388\n        /* \"contracts/CallFunction.sol\":621:749  _addr.call{value: msg.value, gas: 5000} (... */\n      swap1\n        /* \"contracts/CallFunction.sol\":734:737  123 */\n      0x7b\n        /* \"contracts/CallFunction.sol\":676:738  abi.encodeWithSignature(\"foo(string,uint256)\",\"call foo\", 123) */\n      add(0x24, mload(0x40))\n      tag_22\n      swap2\n      swap1\n      tag_23\n      jump\t// in\n    tag_22:\n      mload(0x40)\n      0x20\n      dup2\n      dup4\n      sub\n      sub\n      dup2\n      mstore\n      swap1\n      0x40\n      mstore\n      and(not(0xffffffffffffffffffffffffffffffffffffffffffffffffffffffff), 0x24ccab8f00000000000000000000000000000000000000000000000000000000)\n      0x20\n      dup3\n      add\n      dup1\n      mload\n      0xffffffffffffffffffffffffffffffffffffffffffffffffffffffff\n      dup4\n      dup2\n      dup4\n      and\n      or\n      dup4\n      mstore\n      pop\n      pop\n      pop\n      pop\n        /* \"contracts/CallFunction.sol\":621:749  _addr.call{value: msg.value, gas: 5000} (... */\n      mload(0x40)\n      tag_24\n      swap2\n      swap1\n      tag_15\n      jump\t// in\n    tag_24:\n      0x00\n      mload(0x40)\n      dup1\n      dup4\n      sub\n      dup2\n      dup6\n      dup9\n      dup9\n      call\n      swap4\n      pop\n      pop\n      pop\n      pop\n      returndatasize\n      dup1\n      0x00\n      dup2\n      eq\n      tag_27\n      jumpi\n      mload(0x40)\n      swap2\n      pop\n      and(add(returndatasize, 0x3f), not(0x1f))\n      dup3\n      add\n      0x40\n      mstore\n      returndatasize\n      dup3\n      mstore\n      returndatasize\n      0x00\n      0x20\n      dup5\n      add\n      returndatacopy\n      jump(tag_26)\n    tag_27:\n      0x60\n      swap2\n      pop\n    tag_26:\n      pop\n        /* \"contracts/CallFunction.sol\":585:749  (bool success, bytes memory data) = _addr.call{value: msg.value, gas: 5000} (... */\n      swap2\n      pop\n      swap2\n      pop\n        /* \"contracts/CallFunction.sol\":767:790  Response(success, data) */\n      0x13848c3e38f8886f3f5d2ad9dff80d8092c2bbb8efd5b887a99c2c6cfc09ac2a\n        /* \"contracts/CallFunction.sol\":776:783  success */\n      dup3\n        /* \"contracts/CallFunction.sol\":785:789  data */\n      dup3\n        /* \"contracts/CallFunction.sol\":767:790  Response(success, data) */\n      mload(0x40)\n      tag_28\n      swap3\n      swap2\n      swap1\n      tag_20\n      jump\t// in\n    tag_28:\n      mload(0x40)\n      dup1\n      swap2\n      sub\n      swap1\n      log1\n        /* \"contracts/CallFunction.sol\":574:798  {... */\n      pop\n      pop\n        /* \"contracts/CallFunction.sol\":515:798  function testCallFoo(address payable _addr) public payable {... */\n      pop\n      jump\t// out\n        /* \"#utility.yul\":88:205   */\n    tag_30:\n        /* \"#utility.yul\":197:198   */\n      0x00\n        /* \"#utility.yul\":194:195   */\n      dup1\n        /* \"#utility.yul\":187:199   */\n      revert\n        /* \"#utility.yul\":334:460   */\n    tag_32:\n        /* \"#utility.yul\":371:378   */\n      0x00\n        /* \"#utility.yul\":411:453   */\n      0xffffffffffffffffffffffffffffffffffffffff\n        /* \"#utility.yul\":404:409   */\n      dup3\n        /* \"#utility.yul\":400:454   */\n      and\n        /* \"#utility.yul\":389:454   */\n      swap1\n      pop\n        /* \"#utility.yul\":334:460   */\n      swap2\n      swap1\n      pop\n      jump\t// out\n        /* \"#utility.yul\":466:562   */\n    tag_33:\n        /* \"#utility.yul\":503:510   */\n      0x00\n        /* \"#utility.yul\":532:556   */\n      tag_62\n        /* \"#utility.yul\":550:555   */\n      dup3\n        /* \"#utility.yul\":532:556   */\n      tag_32\n      jump\t// in\n    tag_62:\n        /* \"#utility.yul\":521:556   */\n      swap1\n      pop\n        /* \"#utility.yul\":466:562   */\n      swap2\n      swap1\n      pop\n      jump\t// out\n        /* \"#utility.yul\":568:690   */\n    tag_34:\n        /* \"#utility.yul\":641:665   */\n      tag_64\n        /* \"#utility.yul\":659:664   */\n      dup2\n        /* \"#utility.yul\":641:665   */\n      tag_33\n      jump\t// in\n    tag_64:\n        /* \"#utility.yul\":634:639   */\n      dup2\n        /* \"#utility.yul\":631:666   */\n      eq\n        /* \"#utility.yul\":621:684   */\n      tag_65\n      jumpi\n        /* \"#utility.yul\":680:681   */\n      0x00\n        /* \"#utility.yul\":677:678   */\n      dup1\n        /* \"#utility.yul\":670:682   */\n      revert\n        /* \"#utility.yul\":621:684   */\n    tag_65:\n        /* \"#utility.yul\":568:690   */\n      pop\n      jump\t// out\n        /* \"#utility.yul\":696:835   */\n    tag_35:\n        /* \"#utility.yul\":742:747   */\n      0x00\n        /* \"#utility.yul\":780:786   */\n      dup2\n        /* \"#utility.yul\":767:787   */\n      calldataload\n        /* \"#utility.yul\":758:787   */\n      swap1\n      pop\n        /* \"#utility.yul\":796:829   */\n      tag_67\n        /* \"#utility.yul\":823:828   */\n      dup2\n        /* \"#utility.yul\":796:829   */\n      tag_34\n      jump\t// in\n    tag_67:\n        /* \"#utility.yul\":696:835   */\n      swap3\n      swap2\n      pop\n      pop\n      jump\t// out\n        /* \"#utility.yul\":841:1170   */\n    tag_7:\n        /* \"#utility.yul\":900:906   */\n      0x00\n        /* \"#utility.yul\":949:951   */\n      0x20\n        /* \"#utility.yul\":937:946   */\n      dup3\n        /* \"#utility.yul\":928:935   */\n      dup5\n        /* \"#utility.yul\":924:947   */\n      sub\n        /* \"#utility.yul\":920:952   */\n      slt\n        /* \"#utility.yul\":917:1036   */\n      iszero\n      tag_69\n      jumpi\n        /* \"#utility.yul\":955:1034   */\n      tag_70\n      tag_30\n      jump\t// in\n    tag_70:\n        /* \"#utility.yul\":917:1036   */\n    tag_69:\n        /* \"#utility.yul\":1075:1076   */\n      0x00\n        /* \"#utility.yul\":1100:1153   */\n      tag_71\n        /* \"#utility.yul\":1145:1152   */\n      dup5\n        /* \"#utility.yul\":1136:1142   */\n      dup3\n        /* \"#utility.yul\":1125:1134   */\n      dup6\n        /* \"#utility.yul\":1121:1143   */\n      add\n        /* \"#utility.yul\":1100:1153   */\n      tag_35\n      jump\t// in\n    tag_71:\n        /* \"#utility.yul\":1090:1153   */\n      swap2\n      pop\n        /* \"#utility.yul\":1046:1163   */\n      pop\n        /* \"#utility.yul\":841:1170   */\n      swap3\n      swap2\n      pop\n      pop\n      jump\t// out\n        /* \"#utility.yul\":1176:1280   */\n    tag_36:\n        /* \"#utility.yul\":1221:1228   */\n      0x00\n        /* \"#utility.yul\":1250:1274   */\n      tag_73\n        /* \"#utility.yul\":1268:1273   */\n      dup3\n        /* \"#utility.yul\":1250:1274   */\n      tag_32\n      jump\t// in\n    tag_73:\n        /* \"#utility.yul\":1239:1274   */\n      swap1\n      pop\n        /* \"#utility.yul\":1176:1280   */\n      swap2\n      swap1\n      pop\n      jump\t// out\n        /* \"#utility.yul\":1286:1424   */\n    tag_37:\n        /* \"#utility.yul\":1367:1399   */\n      tag_75\n        /* \"#utility.yul\":1393:1398   */\n      dup2\n        /* \"#utility.yul\":1367:1399   */\n      tag_36\n      jump\t// in\n    tag_75:\n        /* \"#utility.yul\":1360:1365   */\n      dup2\n        /* \"#utility.yul\":1357:1400   */\n      eq\n        /* \"#utility.yul\":1347:1418   */\n      tag_76\n      jumpi\n        /* \"#utility.yul\":1414:1415   */\n      0x00\n        /* \"#utility.yul\":1411:1412   */\n      dup1\n        /* \"#utility.yul\":1404:1416   */\n      revert\n        /* \"#utility.yul\":1347:1418   */\n    tag_76:\n        /* \"#utility.yul\":1286:1424   */\n      pop\n      jump\t// out\n        /* \"#utility.yul\":1430:1585   */\n    tag_38:\n        /* \"#utility.yul\":1484:1489   */\n      0x00\n        /* \"#utility.yul\":1522:1528   */\n      dup2\n        /* \"#utility.yul\":1509:1529   */\n      calldataload\n        /* \"#utility.yul\":1500:1529   */\n      swap1\n      pop\n        /* \"#utility.yul\":1538:1579   */\n      tag_78\n        /* \"#utility.yul\":1573:1578   */\n      dup2\n        /* \"#utility.yul\":1538:1579   */\n      tag_37\n      jump\t// in\n    tag_78:\n        /* \"#utility.yul\":1430:1585   */\n      swap3\n      swap2\n      pop\n      pop\n      jump\t// out\n        /* \"#utility.yul\":1591:1936   */\n    tag_11:\n        /* \"#utility.yul\":1658:1664   */\n      0x00\n        /* \"#utility.yul\":1707:1709   */\n      0x20\n        /* \"#utility.yul\":1695:1704   */\n      dup3\n        /* \"#utility.yul\":1686:1693   */\n      dup5\n        /* \"#utility.yul\":1682:1705   */\n      sub\n        /* \"#utility.yul\":1678:1710   */\n      slt\n        /* \"#utility.yul\":1675:1794   */\n      iszero\n      tag_80\n      jumpi\n        /* \"#utility.yul\":1713:1792   */\n      tag_81\n      tag_30\n      jump\t// in\n    tag_81:\n        /* \"#utility.yul\":1675:1794   */\n    tag_80:\n        /* \"#utility.yul\":1833:1834   */\n      0x00\n        /* \"#utility.yul\":1858:1919   */\n      tag_82\n        /* \"#utility.yul\":1911:1918   */\n      dup5\n        /* \"#utility.yul\":1902:1908   */\n      dup3\n        /* \"#utility.yul\":1891:1900   */\n      dup6\n        /* \"#utility.yul\":1887:1909   */\n      add\n        /* \"#utility.yul\":1858:1919   */\n      tag_38\n      jump\t// in\n    tag_82:\n        /* \"#utility.yul\":1848:1919   */\n      swap2\n      pop\n        /* \"#utility.yul\":1804:1929   */\n      pop\n        /* \"#utility.yul\":1591:1936   */\n      swap3\n      swap2\n      pop\n      pop\n      jump\t// out\n        /* \"#utility.yul\":1942:2040   */\n    tag_39:\n        /* \"#utility.yul\":1993:1999   */\n      0x00\n        /* \"#utility.yul\":2027:2032   */\n      dup2\n        /* \"#utility.yul\":2021:2033   */\n      mload\n        /* \"#utility.yul\":2011:2033   */\n      swap1\n      pop\n        /* \"#utility.yul\":1942:2040   */\n      swap2\n      swap1\n      pop\n      jump\t// out\n        /* \"#utility.yul\":2046:2193   */\n    tag_40:\n        /* \"#utility.yul\":2147:2158   */\n      0x00\n        /* \"#utility.yul\":2184:2187   */\n      dup2\n        /* \"#utility.yul\":2169:2187   */\n      swap1\n      pop\n        /* \"#utility.yul\":2046:2193   */\n      swap3\n      swap2\n      pop\n      pop\n      jump\t// out\n        /* \"#utility.yul\":2199:2338   */\n    tag_41:\n        /* \"#utility.yul\":2288:2294   */\n      dup3\n        /* \"#utility.yul\":2283:2286   */\n      dup2\n        /* \"#utility.yul\":2278:2281   */\n      dup4\n        /* \"#utility.yul\":2272:2295   */\n      mcopy\n        /* \"#utility.yul\":2329:2330   */\n      0x00\n        /* \"#utility.yul\":2320:2326   */\n      dup4\n        /* \"#utility.yul\":2315:2318   */\n      dup4\n        /* \"#utility.yul\":2311:2327   */\n      add\n        /* \"#utility.yul\":2304:2331   */\n      mstore\n        /* \"#utility.yul\":2199:2338   */\n      pop\n      pop\n      pop\n      jump\t// out\n        /* \"#utility.yul\":2344:2730   */\n    tag_42:\n        /* \"#utility.yul\":2448:2451   */\n      0x00\n        /* \"#utility.yul\":2476:2514   */\n      tag_87\n        /* \"#utility.yul\":2508:2513   */\n      dup3\n        /* \"#utility.yul\":2476:2514   */\n      tag_39\n      jump\t// in\n    tag_87:\n        /* \"#utility.yul\":2530:2618   */\n      tag_88\n        /* \"#utility.yul\":2611:2617   */\n      dup2\n        /* \"#utility.yul\":2606:2609   */\n      dup6\n        /* \"#utility.yul\":2530:2618   */\n      tag_40\n      jump\t// in\n    tag_88:\n        /* \"#utility.yul\":2523:2618   */\n      swap4\n      pop\n        /* \"#utility.yul\":2627:2692   */\n      tag_89\n        /* \"#utility.yul\":2685:2691   */\n      dup2\n        /* \"#utility.yul\":2680:2683   */\n      dup6\n        /* \"#utility.yul\":2673:2677   */\n      0x20\n        /* \"#utility.yul\":2666:2671   */\n      dup7\n        /* \"#utility.yul\":2662:2678   */\n      add\n        /* \"#utility.yul\":2627:2692   */\n      tag_41\n      jump\t// in\n    tag_89:\n        /* \"#utility.yul\":2717:2723   */\n      dup1\n        /* \"#utility.yul\":2712:2715   */\n      dup5\n        /* \"#utility.yul\":2708:2724   */\n      add\n        /* \"#utility.yul\":2701:2724   */\n      swap2\n      pop\n        /* \"#utility.yul\":2452:2730   */\n      pop\n        /* \"#utility.yul\":2344:2730   */\n      swap3\n      swap2\n      pop\n      pop\n      jump\t// out\n        /* \"#utility.yul\":2736:3007   */\n    tag_15:\n        /* \"#utility.yul\":2866:2869   */\n      0x00\n        /* \"#utility.yul\":2888:2981   */\n      tag_91\n        /* \"#utility.yul\":2977:2980   */\n      dup3\n        /* \"#utility.yul\":2968:2974   */\n      dup5\n        /* \"#utility.yul\":2888:2981   */\n      tag_42\n      jump\t// in\n    tag_91:\n        /* \"#utility.yul\":2881:2981   */\n      swap2\n      pop\n        /* \"#utility.yul\":2998:3001   */\n      dup2\n        /* \"#utility.yul\":2991:3001   */\n      swap1\n      pop\n        /* \"#utility.yul\":2736:3007   */\n      swap3\n      swap2\n      pop\n      pop\n      jump\t// out\n        /* \"#utility.yul\":3013:3103   */\n    tag_43:\n        /* \"#utility.yul\":3047:3054   */\n      0x00\n        /* \"#utility.yul\":3090:3095   */\n      dup2\n        /* \"#utility.yul\":3083:3096   */\n      iszero\n        /* \"#utility.yul\":3076:3097   */\n      iszero\n        /* \"#utility.yul\":3065:3097   */\n      swap1\n      pop\n        /* \"#utility.yul\":3013:3103   */\n      swap2\n      swap1\n      pop\n      jump\t// out\n        /* \"#utility.yul\":3109:3218   */\n    tag_44:\n        /* \"#utility.yul\":3190:3211   */\n      tag_94\n        /* \"#utility.yul\":3205:3210   */\n      dup2\n        /* \"#utility.yul\":3190:3211   */\n      tag_43\n      jump\t// in\n    tag_94:\n        /* \"#utility.yul\":3185:3188   */\n      dup3\n        /* \"#utility.yul\":3178:3212   */\n      mstore\n        /* \"#utility.yul\":3109:3218   */\n      pop\n      pop\n      jump\t// out\n        /* \"#utility.yul\":3224:3392   */\n    tag_45:\n        /* \"#utility.yul\":3307:3318   */\n      0x00\n        /* \"#utility.yul\":3341:3347   */\n      dup3\n        /* \"#utility.yul\":3336:3339   */\n      dup3\n        /* \"#utility.yul\":3329:3348   */\n      mstore\n        /* \"#utility.yul\":3381:3385   */\n      0x20\n        /* \"#utility.yul\":3376:3379   */\n      dup3\n        /* \"#utility.yul\":3372:3386   */\n      add\n        /* \"#utility.yul\":3357:3386   */\n      swap1\n      pop\n        /* \"#utility.yul\":3224:3392   */\n      swap3\n      swap2\n      pop\n      pop\n      jump\t// out\n        /* \"#utility.yul\":3398:3500   */\n    tag_46:\n        /* \"#utility.yul\":3439:3445   */\n      0x00\n        /* \"#utility.yul\":3490:3492   */\n      0x1f\n        /* \"#utility.yul\":3486:3493   */\n      not\n        /* \"#utility.yul\":3481:3483   */\n      0x1f\n        /* \"#utility.yul\":3474:3479   */\n      dup4\n        /* \"#utility.yul\":3470:3484   */\n      add\n        /* \"#utility.yul\":3466:3494   */\n      and\n        /* \"#utility.yul\":3456:3494   */\n      swap1\n      pop\n        /* \"#utility.yul\":3398:3500   */\n      swap2\n      swap1\n      pop\n      jump\t// out\n        /* \"#utility.yul\":3506:3879   */\n    tag_47:\n        /* \"#utility.yul\":3592:3595   */\n      0x00\n        /* \"#utility.yul\":3620:3658   */\n      tag_98\n        /* \"#utility.yul\":3652:3657   */\n      dup3\n        /* \"#utility.yul\":3620:3658   */\n      tag_39\n      jump\t// in\n    tag_98:\n        /* \"#utility.yul\":3674:3744   */\n      tag_99\n        /* \"#utility.yul\":3737:3743   */\n      dup2\n        /* \"#utility.yul\":3732:3735   */\n      dup6\n        /* \"#utility.yul\":3674:3744   */\n      tag_45\n      jump\t// in\n    tag_99:\n        /* \"#utility.yul\":3667:3744   */\n      swap4\n      pop\n        /* \"#utility.yul\":3753:3818   */\n      tag_100\n        /* \"#utility.yul\":3811:3817   */\n      dup2\n        /* \"#utility.yul\":3806:3809   */\n      dup6\n        /* \"#utility.yul\":3799:3803   */\n      0x20\n        /* \"#utility.yul\":3792:3797   */\n      dup7\n        /* \"#utility.yul\":3788:3804   */\n      add\n        /* \"#utility.yul\":3753:3818   */\n      tag_41\n      jump\t// in\n    tag_100:\n        /* \"#utility.yul\":3843:3872   */\n      tag_101\n        /* \"#utility.yul\":3865:3871   */\n      dup2\n        /* \"#utility.yul\":3843:3872   */\n      tag_46\n      jump\t// in\n    tag_101:\n        /* \"#utility.yul\":3838:3841   */\n      dup5\n        /* \"#utility.yul\":3834:3873   */\n      add\n        /* \"#utility.yul\":3827:3873   */\n      swap2\n      pop\n        /* \"#utility.yul\":3596:3879   */\n      pop\n        /* \"#utility.yul\":3506:3879   */\n      swap3\n      swap2\n      pop\n      pop\n      jump\t// out\n        /* \"#utility.yul\":3885:4292   */\n    tag_20:\n        /* \"#utility.yul\":4018:4022   */\n      0x00\n        /* \"#utility.yul\":4056:4058   */\n      0x40\n        /* \"#utility.yul\":4045:4054   */\n      dup3\n        /* \"#utility.yul\":4041:4059   */\n      add\n        /* \"#utility.yul\":4033:4059   */\n      swap1\n      pop\n        /* \"#utility.yul\":4069:4134   */\n      tag_103\n        /* \"#utility.yul\":4131:4132   */\n      0x00\n        /* \"#utility.yul\":4120:4129   */\n      dup4\n        /* \"#utility.yul\":4116:4133   */\n      add\n        /* \"#utility.yul\":4107:4113   */\n      dup6\n        /* \"#utility.yul\":4069:4134   */\n      tag_44\n      jump\t// in\n    tag_103:\n        /* \"#utility.yul\":4181:4190   */\n      dup2\n        /* \"#utility.yul\":4175:4179   */\n      dup2\n        /* \"#utility.yul\":4171:4191   */\n      sub\n        /* \"#utility.yul\":4166:4168   */\n      0x20\n        /* \"#utility.yul\":4155:4164   */\n      dup4\n        /* \"#utility.yul\":4151:4169   */\n      add\n        /* \"#utility.yul\":4144:4192   */\n      mstore\n        /* \"#utility.yul\":4209:4285   */\n      tag_104\n        /* \"#utility.yul\":4280:4284   */\n      dup2\n        /* \"#utility.yul\":4271:4277   */\n      dup5\n        /* \"#utility.yul\":4209:4285   */\n      tag_47\n      jump\t// in\n    tag_104:\n        /* \"#utility.yul\":4201:4285   */\n      swap1\n      pop\n        /* \"#utility.yul\":3885:4292   */\n      swap4\n      swap3\n      pop\n      pop\n      pop\n      jump\t// out\n        /* \"#utility.yul\":4298:4467   */\n    tag_48:\n        /* \"#utility.yul\":4382:4393   */\n      0x00\n        /* \"#utility.yul\":4416:4422   */\n      dup3\n        /* \"#utility.yul\":4411:4414   */\n      dup3\n        /* \"#utility.yul\":4404:4423   */\n      mstore\n        /* \"#utility.yul\":4456:4460   */\n      0x20\n        /* \"#utility.yul\":4451:4454   */\n      dup3\n        /* \"#utility.yul\":4447:4461   */\n      add\n        /* \"#utility.yul\":4432:4461   */\n      swap1\n      pop\n        /* \"#utility.yul\":4298:4467   */\n      swap3\n      swap2\n      pop\n      pop\n      jump\t// out\n        /* \"#utility.yul\":4473:4631   */\n    tag_49:\n        /* \"#utility.yul\":4613:4623   */\n      0x63616c6c20666f6f000000000000000000000000000000000000000000000000\n        /* \"#utility.yul\":4609:4610   */\n      0x00\n        /* \"#utility.yul\":4601:4607   */\n      dup3\n        /* \"#utility.yul\":4597:4611   */\n      add\n        /* \"#utility.yul\":4590:4624   */\n      mstore\n        /* \"#utility.yul\":4473:4631   */\n      pop\n      jump\t// out\n        /* \"#utility.yul\":4637:5002   */\n    tag_50:\n        /* \"#utility.yul\":4779:4782   */\n      0x00\n        /* \"#utility.yul\":4800:4866   */\n      tag_108\n        /* \"#utility.yul\":4864:4865   */\n      0x08\n        /* \"#utility.yul\":4859:4862   */\n      dup4\n        /* \"#utility.yul\":4800:4866   */\n      tag_48\n      jump\t// in\n    tag_108:\n        /* \"#utility.yul\":4793:4866   */\n      swap2\n      pop\n        /* \"#utility.yul\":4875:4968   */\n      tag_109\n        /* \"#utility.yul\":4964:4967   */\n      dup3\n        /* \"#utility.yul\":4875:4968   */\n      tag_49\n      jump\t// in\n    tag_109:\n        /* \"#utility.yul\":4993:4995   */\n      0x20\n        /* \"#utility.yul\":4988:4991   */\n      dup3\n        /* \"#utility.yul\":4984:4996   */\n      add\n        /* \"#utility.yul\":4977:4996   */\n      swap1\n      pop\n        /* \"#utility.yul\":4637:5002   */\n      swap2\n      swap1\n      pop\n      jump\t// out\n        /* \"#utility.yul\":5008:5095   */\n    tag_51:\n        /* \"#utility.yul\":5055:5062   */\n      0x00\n        /* \"#utility.yul\":5084:5089   */\n      dup2\n        /* \"#utility.yul\":5073:5089   */\n      swap1\n      pop\n        /* \"#utility.yul\":5008:5095   */\n      swap2\n      swap1\n      pop\n      jump\t// out\n        /* \"#utility.yul\":5101:5187   */\n    tag_52:\n        /* \"#utility.yul\":5136:5143   */\n      0x00\n        /* \"#utility.yul\":5176:5180   */\n      0xff\n        /* \"#utility.yul\":5169:5174   */\n      dup3\n        /* \"#utility.yul\":5165:5181   */\n      and\n        /* \"#utility.yul\":5154:5181   */\n      swap1\n      pop\n        /* \"#utility.yul\":5101:5187   */\n      swap2\n      swap1\n      pop\n      jump\t// out\n        /* \"#utility.yul\":5193:5253   */\n    tag_53:\n        /* \"#utility.yul\":5221:5224   */\n      0x00\n        /* \"#utility.yul\":5242:5247   */\n      dup2\n        /* \"#utility.yul\":5235:5247   */\n      swap1\n      pop\n        /* \"#utility.yul\":5193:5253   */\n      swap2\n      swap1\n      pop\n      jump\t// out\n        /* \"#utility.yul\":5259:5417   */\n    tag_54:\n        /* \"#utility.yul\":5317:5326   */\n      0x00\n        /* \"#utility.yul\":5350:5411   */\n      tag_114\n        /* \"#utility.yul\":5366:5410   */\n      tag_115\n        /* \"#utility.yul\":5375:5409   */\n      tag_116\n        /* \"#utility.yul\":5403:5408   */\n      dup5\n        /* \"#utility.yul\":5375:5409   */\n      tag_51\n      jump\t// in\n    tag_116:\n        /* \"#utility.yul\":5366:5410   */\n      tag_53\n      jump\t// in\n    tag_115:\n        /* \"#utility.yul\":5350:5411   */\n      tag_52\n      jump\t// in\n    tag_114:\n        /* \"#utility.yul\":5337:5411   */\n      swap1\n      pop\n        /* \"#utility.yul\":5259:5417   */\n      swap2\n      swap1\n      pop\n      jump\t// out\n        /* \"#utility.yul\":5423:5570   */\n    tag_55:\n        /* \"#utility.yul\":5518:5563   */\n      tag_118\n        /* \"#utility.yul\":5557:5562   */\n      dup2\n        /* \"#utility.yul\":5518:5563   */\n      tag_54\n      jump\t// in\n    tag_118:\n        /* \"#utility.yul\":5513:5516   */\n      dup3\n        /* \"#utility.yul\":5506:5564   */\n      mstore\n        /* \"#utility.yul\":5423:5570   */\n      pop\n      pop\n      jump\t// out\n        /* \"#utility.yul\":5576:6121   */\n    tag_23:\n        /* \"#utility.yul\":5778:5782   */\n      0x00\n        /* \"#utility.yul\":5816:5818   */\n      0x40\n        /* \"#utility.yul\":5805:5814   */\n      dup3\n        /* \"#utility.yul\":5801:5819   */\n      add\n        /* \"#utility.yul\":5793:5819   */\n      swap1\n      pop\n        /* \"#utility.yul\":5865:5874   */\n      dup2\n        /* \"#utility.yul\":5859:5863   */\n      dup2\n        /* \"#utility.yul\":5855:5875   */\n      sub\n        /* \"#utility.yul\":5851:5852   */\n      0x00\n        /* \"#utility.yul\":5840:5849   */\n      dup4\n        /* \"#utility.yul\":5836:5853   */\n      add\n        /* \"#utility.yul\":5829:5876   */\n      mstore\n        /* \"#utility.yul\":5893:6024   */\n      tag_120\n        /* \"#utility.yul\":6019:6023   */\n      dup2\n        /* \"#utility.yul\":5893:6024   */\n      tag_50\n      jump\t// in\n    tag_120:\n        /* \"#utility.yul\":5885:6024   */\n      swap1\n      pop\n        /* \"#utility.yul\":6034:6114   */\n      tag_121\n        /* \"#utility.yul\":6110:6112   */\n      0x20\n        /* \"#utility.yul\":6099:6108   */\n      dup4\n        /* \"#utility.yul\":6095:6113   */\n      add\n        /* \"#utility.yul\":6086:6092   */\n      dup5\n        /* \"#utility.yul\":6034:6114   */\n      tag_55\n      jump\t// in\n    tag_121:\n        /* \"#utility.yul\":5576:6121   */\n      swap3\n      swap2\n      pop\n      pop\n      jump\t// out\n\n    auxdata: 0xa26469706673582212204ee180bce1cecef7eec0a5837d3b46ce408276d45f453b730567b51f777f759e64736f6c634300081a0033\n}\n",
				"bytecode": {
					"linkReferences": {},
					"object": "6080604052348015600e575f80fd5b506105d88061001c5f395ff3fe608060405260043610610028575f3560e01c80631035b7961461002c57806387ba617914610054575b5f80fd5b348015610037575f80fd5b50610052600480360381019061004d9190610335565b610070565b005b61006e6004803603810190610069919061039b565b61019a565b005b5f808273ffffffffffffffffffffffffffffffffffffffff166040516024016040516020818303038152906040527f317312d7000000000000000000000000000000000000000000000000000000007bffffffffffffffffffffffffffffffffffffffffffffffffffffffff19166020820180517bffffffffffffffffffffffffffffffffffffffffffffffffffffffff83818316178352505050506040516101199190610418565b5f604051808303815f865af19150503d805f8114610152576040519150601f19603f3d011682016040523d82523d5f602084013e610157565b606091505b50915091507f13848c3e38f8886f3f5d2ad9dff80d8092c2bbb8efd5b887a99c2c6cfc09ac2a828260405161018d9291906104a0565b60405180910390a1505050565b5f808273ffffffffffffffffffffffffffffffffffffffff163461138890607b6040516024016101ca9190610576565b6040516020818303038152906040527f24ccab8f000000000000000000000000000000000000000000000000000000007bffffffffffffffffffffffffffffffffffffffffffffffffffffffff19166020820180517bffffffffffffffffffffffffffffffffffffffffffffffffffffffff83818316178352505050506040516102549190610418565b5f60405180830381858888f193505050503d805f811461028f576040519150601f19603f3d011682016040523d82523d5f602084013e610294565b606091505b50915091507f13848c3e38f8886f3f5d2ad9dff80d8092c2bbb8efd5b887a99c2c6cfc09ac2a82826040516102ca9291906104a0565b60405180910390a1505050565b5f80fd5b5f73ffffffffffffffffffffffffffffffffffffffff82169050919050565b5f610304826102db565b9050919050565b610314816102fa565b811461031e575f80fd5b50565b5f8135905061032f8161030b565b92915050565b5f6020828403121561034a576103496102d7565b5b5f61035784828501610321565b91505092915050565b5f61036a826102db565b9050919050565b61037a81610360565b8114610384575f80fd5b50565b5f8135905061039581610371565b92915050565b5f602082840312156103b0576103af6102d7565b5b5f6103bd84828501610387565b91505092915050565b5f81519050919050565b5f81905092915050565b8281835e5f83830152505050565b5f6103f2826103c6565b6103fc81856103d0565b935061040c8185602086016103da565b80840191505092915050565b5f61042382846103e8565b915081905092915050565b5f8115159050919050565b6104428161042e565b82525050565b5f82825260208201905092915050565b5f601f19601f8301169050919050565b5f610472826103c6565b61047c8185610448565b935061048c8185602086016103da565b61049581610458565b840191505092915050565b5f6040820190506104b35f830185610439565b81810360208301526104c58184610468565b90509392505050565b5f82825260208201905092915050565b7f63616c6c20666f6f0000000000000000000000000000000000000000000000005f82015250565b5f6105126008836104ce565b915061051d826104de565b602082019050919050565b5f819050919050565b5f60ff82169050919050565b5f819050919050565b5f61056061055b61055684610528565b61053d565b610531565b9050919050565b61057081610546565b82525050565b5f6040820190508181035f83015261058d81610506565b905061059c6020830184610567565b9291505056fea26469706673582212204ee180bce1cecef7eec0a5837d3b46ce408276d45f453b730567b51f777f759e64736f6c634300081a0033",
					"opcodes": "PUSH1 0x80 PUSH1 0x40 MSTORE CALLVALUE DUP1 ISZERO PUSH1 0xE JUMPI PUSH0 DUP1 REVERT JUMPDEST POP PUSH2 0x5D8 DUP1 PUSH2 0x1C PUSH0 CODECOPY PUSH0 RETURN INVALID PUSH1 0x80 PUSH1 0x40 MSTORE PUSH1 0x4 CALLDATASIZE LT PUSH2 0x28 JUMPI PUSH0 CALLDATALOAD PUSH1 0xE0 SHR DUP1 PUSH4 0x1035B796 EQ PUSH2 0x2C JUMPI DUP1 PUSH4 0x87BA6179 EQ PUSH2 0x54 JUMPI JUMPDEST PUSH0 DUP1 REVERT JUMPDEST CALLVALUE DUP1 ISZERO PUSH2 0x37 JUMPI PUSH0 DUP1 REVERT JUMPDEST POP PUSH2 0x52 PUSH1 0x4 DUP1 CALLDATASIZE SUB DUP2 ADD SWAP1 PUSH2 0x4D SWAP2 SWAP1 PUSH2 0x335 JUMP JUMPDEST PUSH2 0x70 JUMP JUMPDEST STOP JUMPDEST PUSH2 0x6E PUSH1 0x4 DUP1 CALLDATASIZE SUB DUP2 ADD SWAP1 PUSH2 0x69 SWAP2 SWAP1 PUSH2 0x39B JUMP JUMPDEST PUSH2 0x19A JUMP JUMPDEST STOP JUMPDEST PUSH0 DUP1 DUP3 PUSH20 0xFFFFFFFFFFFFFFFFFFFFFFFFFFFFFFFFFFFFFFFF AND PUSH1 0x40 MLOAD PUSH1 0x24 ADD PUSH1 0x40 MLOAD PUSH1 0x20 DUP2 DUP4 SUB SUB DUP2 MSTORE SWAP1 PUSH1 0x40 MSTORE PUSH32 0x317312D700000000000000000000000000000000000000000000000000000000 PUSH28 0xFFFFFFFFFFFFFFFFFFFFFFFFFFFFFFFFFFFFFFFFFFFFFFFFFFFFFFFF NOT AND PUSH1 0x20 DUP3 ADD DUP1 MLOAD PUSH28 0xFFFFFFFFFFFFFFFFFFFFFFFFFFFFFFFFFFFFFFFFFFFFFFFFFFFFFFFF DUP4 DUP2 DUP4 AND OR DUP4 MSTORE POP POP POP POP PUSH1 0x40 MLOAD PUSH2 0x119 SWAP2 SWAP1 PUSH2 0x418 JUMP JUMPDEST PUSH0 PUSH1 0x40 MLOAD DUP1 DUP4 SUB DUP2 PUSH0 DUP7 GAS CALL SWAP2 POP POP RETURNDATASIZE DUP1 PUSH0 DUP2 EQ PUSH2 0x152 JUMPI PUSH1 0x40 MLOAD SWAP2 POP PUSH1 0x1F NOT PUSH1 0x3F RETURNDATASIZE ADD AND DUP3 ADD PUSH1 0x40 MSTORE RETURNDATASIZE DUP3 MSTORE RETURNDATASIZE PUSH0 PUSH1 0x20 DUP5 ADD RETURNDATACOPY PUSH2 0x157 JUMP JUMPDEST PUSH1 0x60 SWAP2 POP JUMPDEST POP SWAP2 POP SWAP2 POP PUSH32 0x13848C3E38F8886F3F5D2AD9DFF80D8092C2BBB8EFD5B887A99C2C6CFC09AC2A DUP3 DUP3 PUSH1 0x40 MLOAD PUSH2 0x18D SWAP3 SWAP2 SWAP1 PUSH2 0x4A0 JUMP JUMPDEST PUSH1 0x40 MLOAD DUP1 SWAP2 SUB SWAP1 LOG1 POP POP POP JUMP JUMPDEST PUSH0 DUP1 DUP3 PUSH20 0xFFFFFFFFFFFFFFFFFFFFFFFFFFFFFFFFFFFFFFFF AND CALLVALUE PUSH2 0x1388 SWAP1 PUSH1 0x7B PUSH1 0x40 MLOAD PUSH1 0x24 ADD PUSH2 0x1CA SWAP2 SWAP1 PUSH2 0x576 JUMP JUMPDEST PUSH1 0x40 MLOAD PUSH1 0x20 DUP2 DUP4 SUB SUB DUP2 MSTORE SWAP1 PUSH1 0x40 MSTORE PUSH32 0x24CCAB8F00000000000000000000000000000000000000000000000000000000 PUSH28 0xFFFFFFFFFFFFFFFFFFFFFFFFFFFFFFFFFFFFFFFFFFFFFFFFFFFFFFFF NOT AND PUSH1 0x20 DUP3 ADD DUP1 MLOAD PUSH28 0xFFFFFFFFFFFFFFFFFFFFFFFFFFFFFFFFFFFFFFFFFFFFFFFFFFFFFFFF DUP4 DUP2 DUP4 AND OR DUP4 MSTORE POP POP POP POP PUSH1 0x40 MLOAD PUSH2 0x254 SWAP2 SWAP1 PUSH2 0x418 JUMP JUMPDEST PUSH0 PUSH1 0x40 MLOAD DUP1 DUP4 SUB DUP2 DUP6 DUP9 DUP9 CALL SWAP4 POP POP POP POP RETURNDATASIZE DUP1 PUSH0 DUP2 EQ PUSH2 0x28F JUMPI PUSH1 0x40 MLOAD SWAP2 POP PUSH1 0x1F NOT PUSH1 0x3F RETURNDATASIZE ADD AND DUP3 ADD PUSH1 0x40 MSTORE RETURNDATASIZE DUP3 MSTORE RETURNDATASIZE PUSH0 PUSH1 0x20 DUP5 ADD RETURNDATACOPY PUSH2 0x294 JUMP JUMPDEST PUSH1 0x60 SWAP2 POP JUMPDEST POP SWAP2 POP SWAP2 POP PUSH32 0x13848C3E38F8886F3F5D2AD9DFF80D8092C2BBB8EFD5B887A99C2C6CFC09AC2A DUP3 DUP3 PUSH1 0x40 MLOAD PUSH2 0x2CA SWAP3 SWAP2 SWAP1 PUSH2 0x4A0 JUMP JUMPDEST PUSH1 0x40 MLOAD DUP1 SWAP2 SUB SWAP1 LOG1 POP POP POP JUMP JUMPDEST PUSH0 DUP1 REVERT JUMPDEST PUSH0 PUSH20 0xFFFFFFFFFFFFFFFFFFFFFFFFFFFFFFFFFFFFFFFF DUP3 AND SWAP1 POP SWAP2 SWAP1 POP JUMP JUMPDEST PUSH0 PUSH2 0x304 DUP3 PUSH2 0x2DB JUMP JUMPDEST SWAP1 POP SWAP2 SWAP1 POP JUMP JUMPDEST PUSH2 0x314 DUP2 PUSH2 0x2FA JUMP JUMPDEST DUP2 EQ PUSH2 0x31E JUMPI PUSH0 DUP1 REVERT JUMPDEST POP JUMP JUMPDEST PUSH0 DUP2 CALLDATALOAD SWAP1 POP PUSH2 0x32F DUP2 PUSH2 0x30B JUMP JUMPDEST SWAP3 SWAP2 POP POP JUMP JUMPDEST PUSH0 PUSH1 0x20 DUP3 DUP5 SUB SLT ISZERO PUSH2 0x34A JUMPI PUSH2 0x349 PUSH2 0x2D7 JUMP JUMPDEST JUMPDEST PUSH0 PUSH2 0x357 DUP5 DUP3 DUP6 ADD PUSH2 0x321 JUMP JUMPDEST SWAP2 POP POP SWAP3 SWAP2 POP POP JUMP JUMPDEST PUSH0 PUSH2 0x36A DUP3 PUSH2 0x2DB JUMP JUMPDEST SWAP1 POP SWAP2 SWAP1 POP JUMP JUMPDEST PUSH2 0x37A DUP2 PUSH2 0x360 JUMP JUMPDEST DUP2 EQ PUSH2 0x384 JUMPI PUSH0 DUP1 REVERT JUMPDEST POP JUMP JUMPDEST PUSH0 DUP2 CALLDATALOAD SWAP1 POP PUSH2 0x395 DUP2 PUSH2 0x371 JUMP JUMPDEST SWAP3 SWAP2 POP POP JUMP JUMPDEST PUSH0 PUSH1 0x20 DUP3 DUP5 SUB SLT ISZERO PUSH2 0x3B0 JUMPI PUSH2 0x3AF PUSH2 0x2D7 JUMP JUMPDEST JUMPDEST PUSH0 PUSH2 0x3BD DUP5 DUP3 DUP6 ADD PUSH2 0x387 JUMP JUMPDEST SWAP2 POP POP SWAP3 SWAP2 POP POP JUMP JUMPDEST PUSH0 DUP2 MLOAD SWAP1 POP SWAP2 SWAP1 POP JUMP JUMPDEST PUSH0 DUP2 SWAP1 POP SWAP3 SWAP2 POP POP JUMP JUMPDEST DUP3 DUP2 DUP4 MCOPY PUSH0 DUP4 DUP4 ADD MSTORE POP POP POP JUMP JUMPDEST PUSH0 PUSH2 0x3F2 DUP3 PUSH2 0x3C6 JUMP JUMPDEST PUSH2 0x3FC DUP2 DUP6 PUSH2 0x3D0 JUMP JUMPDEST SWAP4 POP PUSH2 0x40C DUP2 DUP6 PUSH1 0x20 DUP7 ADD PUSH2 0x3DA JUMP JUMPDEST DUP1 DUP5 ADD SWAP2 POP POP SWAP3 SWAP2 POP POP JUMP JUMPDEST PUSH0 PUSH2 0x423 DUP3 DUP5 PUSH2 0x3E8 JUMP JUMPDEST SWAP2 POP DUP2 SWAP1 POP SWAP3 SWAP2 POP POP JUMP JUMPDEST PUSH0 DUP2 ISZERO ISZERO SWAP1 POP SWAP2 SWAP1 POP JUMP JUMPDEST PUSH2 0x442 DUP2 PUSH2 0x42E JUMP JUMPDEST DUP3 MSTORE POP POP JUMP JUMPDEST PUSH0 DUP3 DUP3 MSTORE PUSH1 0x20 DUP3 ADD SWAP1 POP SWAP3 SWAP2 POP POP JUMP JUMPDEST PUSH0 PUSH1 0x1F NOT PUSH1 0x1F DUP4 ADD AND SWAP1 POP SWAP2 SWAP1 POP JUMP JUMPDEST PUSH0 PUSH2 0x472 DUP3 PUSH2 0x3C6 JUMP JUMPDEST PUSH2 0x47C DUP2 DUP6 PUSH2 0x448 JUMP JUMPDEST SWAP4 POP PUSH2 0x48C DUP2 DUP6 PUSH1 0x20 DUP7 ADD PUSH2 0x3DA JUMP JUMPDEST PUSH2 0x495 DUP2 PUSH2 0x458 JUMP JUMPDEST DUP5 ADD SWAP2 POP POP SWAP3 SWAP2 POP POP JUMP JUMPDEST PUSH0 PUSH1 0x40 DUP3 ADD SWAP1 POP PUSH2 0x4B3 PUSH0 DUP4 ADD DUP6 PUSH2 0x439 JUMP JUMPDEST DUP2 DUP2 SUB PUSH1 0x20 DUP4 ADD MSTORE PUSH2 0x4C5 DUP2 DUP5 PUSH2 0x468 JUMP JUMPDEST SWAP1 POP SWAP4 SWAP3 POP POP POP JUMP JUMPDEST PUSH0 DUP3 DUP3 MSTORE PUSH1 0x20 DUP3 ADD SWAP1 POP SWAP3 SWAP2 POP POP JUMP JUMPDEST PUSH32 0x63616C6C20666F6F000000000000000000000000000000000000000000000000 PUSH0 DUP3 ADD MSTORE POP JUMP JUMPDEST PUSH0 PUSH2 0x512 PUSH1 0x8 DUP4 PUSH2 0x4CE JUMP JUMPDEST SWAP2 POP PUSH2 0x51D DUP3 PUSH2 0x4DE JUMP JUMPDEST PUSH1 0x20 DUP3 ADD SWAP1 POP SWAP2 SWAP1 POP JUMP JUMPDEST PUSH0 DUP2 SWAP1 POP SWAP2 SWAP1 POP JUMP JUMPDEST PUSH0 PUSH1 0xFF DUP3 AND SWAP1 POP SWAP2 SWAP1 POP JUMP JUMPDEST PUSH0 DUP2 SWAP1 POP SWAP2 SWAP1 POP JUMP JUMPDEST PUSH0 PUSH2 0x560 PUSH2 0x55B PUSH2 0x556 DUP5 PUSH2 0x528 JUMP JUMPDEST PUSH2 0x53D JUMP JUMPDEST PUSH2 0x531 JUMP JUMPDEST SWAP1 POP SWAP2 SWAP1 POP JUMP JUMPDEST PUSH2 0x570 DUP2 PUSH2 0x546 JUMP JUMPDEST DUP3 MSTORE POP POP JUMP JUMPDEST PUSH0 PUSH1 0x40 DUP3 ADD SWAP1 POP DUP2 DUP2 SUB PUSH0 DUP4 ADD MSTORE PUSH2 0x58D DUP2 PUSH2 0x506 JUMP JUMPDEST SWAP1 POP PUSH2 0x59C PUSH1 0x20 DUP4 ADD DUP5 PUSH2 0x567 JUMP JUMPDEST SWAP3 SWAP2 POP POP JUMP INVALID LOG2 PUSH5 0x6970667358 0x22 SLT KECCAK256 0x4E 0xE1 DUP1 0xBC 0xE1 0xCE 0xCE 0xF7 0xEE 0xC0 0xA5 DUP4 PUSH30 0x3B46CE408276D45F453B730567B51F777F759E64736F6C634300081A0033 "
				},
				"gasEstimates": {
					"creation": {
						"codeDepositCost": "299200",
						"executionCost": "335",
						"totalCost": "299535"
					},
					"external": {
						"testCallFoo(address)": "infinite",
						"testCalldoesnotExist(address)": "infinite"
					}
				},
				"methodIdentifiers": {
					"testCallFoo(address)": "87ba6179",
					"testCalldoesnotExist(address)": "1035b796"
				}
			},
			"storageLayout": {
				"storage": [],
				"types": null
			},
			"userdoc": {
				"kind": "user",
				"methods": {},
				"version": 1
			}
		}
	}
}