{
	"data": {
		"bytecode": {
			"linkReferences": {},
			"object": "6080604052348015600e575f80fd5b5061037f8061001c5f395ff3fe608060405234801561000f575f80fd5b506004361061003f575f3560e01c80630bfb06861461004357806340fc05021461005f578063653721471461007d575b5f80fd5b61005d60048036038101906100589190610196565b61009b565b005b6100676100d9565b6040516100749190610244565b60405180910390f35b61008561014f565b604051610092919061027e565b60405180910390f35b5f81836100a891906102c4565b9050600a81116100bb576100ba6102f7565b5b60015f806101000a81548160ff021916908315150217905550505050565b6060600115155f8054906101000a900460ff16151503610130576040518060400160405280601a81526020017f5468652053756d2069732047726561746572207468616e203130000000000000815250905061014c565b6040518060600160405280602581526020016103256025913990505b90565b5f8054906101000a900460ff1681565b5f80fd5b5f819050919050565b61017581610163565b811461017f575f80fd5b50565b5f813590506101908161016c565b92915050565b5f80604083850312156101ac576101ab61015f565b5b5f6101b985828601610182565b92505060206101ca85828601610182565b9150509250929050565b5f81519050919050565b5f82825260208201905092915050565b8281835e5f83830152505050565b5f601f19601f8301169050919050565b5f610216826101d4565b61022081856101de565b93506102308185602086016101ee565b610239816101fc565b840191505092915050565b5f6020820190508181035f83015261025c818461020c565b905092915050565b5f8115159050919050565b61027881610264565b82525050565b5f6020820190506102915f83018461026f565b92915050565b7f4e487b71000000000000000000000000000000000000000000000000000000005f52601160045260245ffd5b5f6102ce82610163565b91506102d983610163565b92508282019050808211156102f1576102f0610297565b5b92915050565b7f4e487b71000000000000000000000000000000000000000000000000000000005f52600160045260245ffdfe5468652053756d206973204c6573736572207468616e206f7220457175616c20746f203130a26469706673582212209371a858428d94b29b6dd0b0f7327ef6f1f3e43323e09194e1666f8611d4d2d464736f6c634300081a0033",
			"opcodes": "PUSH1 0x80 PUSH1 0x40 MSTORE CALLVALUE DUP1 ISZERO PUSH1 0xE JUMPI PUSH0 DUP1 REVERT JUMPDEST POP PUSH2 0x37F DUP1 PUSH2 0x1C PUSH0 CODECOPY PUSH0 RETURN INVALID PUSH1 0x80 PUSH1 0x40 MSTORE CALLVALUE DUP1 ISZERO PUSH2 0xF JUMPI PUSH0 DUP1 REVERT JUMPDEST POP PUSH1 0x4 CALLDATASIZE LT PUSH2 0x3F JUMPI PUSH0 CALLDATALOAD PUSH1 0xE0 SHR DUP1 PUSH4 0xBFB0686 EQ PUSH2 0x43 JUMPI DUP1 PUSH4 0x40FC0502 EQ PUSH2 0x5F JUMPI DUP1 PUSH4 0x65372147 EQ PUSH2 0x7D JUMPI JUMPDEST PUSH0 DUP1 REVERT JUMPDEST PUSH2 0x5D PUSH1 0x4 DUP1 CALLDATASIZE SUB DUP2 ADD SWAP1 PUSH2 0x58 SWAP2 SWAP1 PUSH2 0x196 JUMP JUMPDEST PUSH2 0x9B JUMP JUMPDEST STOP JUMPDEST PUSH2 0x67 PUSH2 0xD9 JUMP JUMPDEST PUSH1 0x40 MLOAD PUSH2 0x74 SWAP2 SWAP1 PUSH2 0x244 JUMP JUMPDEST PUSH1 0x40 MLOAD DUP1 SWAP2 SUB SWAP1 RETURN JUMPDEST PUSH2 0x85 PUSH2 0x14F JUMP JUMPDEST PUSH1 0x40 MLOAD PUSH2 0x92 SWAP2 SWAP1 PUSH2 0x27E JUMP JUMPDEST PUSH1 0x40 MLOAD DUP1 SWAP2 SUB SWAP1 RETURN JUMPDEST PUSH0 DUP2 DUP4 PUSH2 0xA8 SWAP2 SWAP1 PUSH2 0x2C4 JUMP JUMPDEST SWAP1 POP PUSH1 0xA DUP2 GT PUSH2 0xBB JUMPI PUSH2 0xBA PUSH2 0x2F7 JUMP JUMPDEST JUMPDEST PUSH1 0x1 PUSH0 DUP1 PUSH2 0x100 EXP DUP2 SLOAD DUP2 PUSH1 0xFF MUL NOT AND SWAP1 DUP4 ISZERO ISZERO MUL OR SWAP1 SSTORE POP POP POP POP JUMP JUMPDEST PUSH1 0x60 PUSH1 0x1 ISZERO ISZERO PUSH0 DUP1 SLOAD SWAP1 PUSH2 0x100 EXP SWAP1 DIV PUSH1 0xFF AND ISZERO ISZERO SUB PUSH2 0x130 JUMPI PUSH1 0x40 MLOAD DUP1 PUSH1 0x40 ADD PUSH1 0x40 MSTORE DUP1 PUSH1 0x1A DUP2 MSTORE PUSH1 0x20 ADD PUSH32 0x5468652053756D2069732047726561746572207468616E203130000000000000 DUP2 MSTORE POP SWAP1 POP PUSH2 0x14C JUMP JUMPDEST PUSH1 0x40 MLOAD DUP1 PUSH1 0x60 ADD PUSH1 0x40 MSTORE DUP1 PUSH1 0x25 DUP2 MSTORE PUSH1 0x20 ADD PUSH2 0x325 PUSH1 0x25 SWAP2 CODECOPY SWAP1 POP JUMPDEST SWAP1 JUMP JUMPDEST PUSH0 DUP1 SLOAD SWAP1 PUSH2 0x100 EXP SWAP1 DIV PUSH1 0xFF AND DUP2 JUMP JUMPDEST PUSH0 DUP1 REVERT JUMPDEST PUSH0 DUP2 SWAP1 POP SWAP2 SWAP1 POP JUMP JUMPDEST PUSH2 0x175 DUP2 PUSH2 0x163 JUMP JUMPDEST DUP2 EQ PUSH2 0x17F JUMPI PUSH0 DUP1 REVERT JUMPDEST POP JUMP JUMPDEST PUSH0 DUP2 CALLDATALOAD SWAP1 POP PUSH2 0x190 DUP2 PUSH2 0x16C JUMP JUMPDEST SWAP3 SWAP2 POP POP JUMP JUMPDEST PUSH0 DUP1 PUSH1 0x40 DUP4 DUP6 SUB SLT ISZERO PUSH2 0x1AC JUMPI PUSH2 0x1AB PUSH2 0x15F JUMP JUMPDEST JUMPDEST PUSH0 PUSH2 0x1B9 DUP6 DUP3 DUP7 ADD PUSH2 0x182 JUMP JUMPDEST SWAP3 POP POP PUSH1 0x20 PUSH2 0x1CA DUP6 DUP3 DUP7 ADD PUSH2 0x182 JUMP JUMPDEST SWAP2 POP POP SWAP3 POP SWAP3 SWAP1 POP JUMP JUMPDEST PUSH0 DUP2 MLOAD SWAP1 POP SWAP2 SWAP1 POP JUMP JUMPDEST PUSH0 DUP3 DUP3 MSTORE PUSH1 0x20 DUP3 ADD SWAP1 POP SWAP3 SWAP2 POP POP JUMP JUMPDEST DUP3 DUP2 DUP4 MCOPY PUSH0 DUP4 DUP4 ADD MSTORE POP POP POP JUMP JUMPDEST PUSH0 PUSH1 0x1F NOT PUSH1 0x1F DUP4 ADD AND SWAP1 POP SWAP2 SWAP1 POP JUMP JUMPDEST PUSH0 PUSH2 0x216 DUP3 PUSH2 0x1D4 JUMP JUMPDEST PUSH2 0x220 DUP2 DUP6 PUSH2 0x1DE JUMP JUMPDEST SWAP4 POP PUSH2 0x230 DUP2 DUP6 PUSH1 0x20 DUP7 ADD PUSH2 0x1EE JUMP JUMPDEST PUSH2 0x239 DUP2 PUSH2 0x1FC JUMP JUMPDEST DUP5 ADD SWAP2 POP POP SWAP3 SWAP2 POP POP JUMP JUMPDEST PUSH0 PUSH1 0x20 DUP3 ADD SWAP1 POP DUP2 DUP2 SUB PUSH0 DUP4 ADD MSTORE PUSH2 0x25C DUP2 DUP5 PUSH2 0x20C JUMP JUMPDEST SWAP1 POP SWAP3 SWAP2 POP POP JUMP JUMPDEST PUSH0 DUP2 ISZERO ISZERO SWAP1 POP SWAP2 SWAP1 POP JUMP JUMPDEST PUSH2 0x278 DUP2 PUSH2 0x264 JUMP JUMPDEST DUP3 MSTORE POP POP JUMP JUMPDEST PUSH0 PUSH1 0x20 DUP3 ADD SWAP1 POP PUSH2 0x291 PUSH0 DUP4 ADD DUP5 PUSH2 0x26F JUMP JUMPDEST SWAP3 SWAP2 POP POP JUMP JUMPDEST PUSH32 0x4E487B7100000000000000000000000000000000000000000000000000000000 PUSH0 MSTORE PUSH1 0x11 PUSH1 0x4 MSTORE PUSH1 0x24 PUSH0 REVERT JUMPDEST PUSH0 PUSH2 0x2CE DUP3 PUSH2 0x163 JUMP JUMPDEST SWAP2 POP PUSH2 0x2D9 DUP4 PUSH2 0x163 JUMP JUMPDEST SWAP3 POP DUP3 DUP3 ADD SWAP1 POP DUP1 DUP3 GT ISZERO PUSH2 0x2F1 JUMPI PUSH2 0x2F0 PUSH2 0x297 JUMP JUMPDEST JUMPDEST SWAP3 SWAP2 POP POP JUMP JUMPDEST PUSH32 0x4E487B7100000000000000000000000000000000000000000000000000000000 PUSH0 MSTORE PUSH1 0x1 PUSH1 0x4 MSTORE PUSH1 0x24 PUSH0 REVERT INVALID SLOAD PUSH9 0x652053756D20697320 0x4C PUSH6 0x737365722074 PUSH9 0x616E206F7220457175 PUSH2 0x6C20 PUSH21 0x6F203130A26469706673582212209371A858428D94 0xB2 SWAP12 PUSH14 0xD0B0F7327EF6F1F3E43323E09194 0xE1 PUSH7 0x6F8611D4D2D464 PUSH20 0x6F6C634300081A00330000000000000000000000 "
		},
		"gasEstimates": {
			"creation": {
				"codeDepositCost": "179000",
				"executionCost": "218",
				"totalCost": "179218"
			},
			"external": {
				"checkOverFlow(uint256,uint256)": "infinite",
				"getresult()": "infinite",
				"result()": "2485"
			}
		},
		"methodIdentifiers": {
			"checkOverFlow(uint256,uint256)": "0bfb0686",
			"getresult()": "40fc0502",
			"result()": "65372147"
		}
	},
	"abi": [
		{
			"inputs": [
				{
					"internalType": "uint256",
					"name": "_num1",
					"type": "uint256"
				},
				{
					"internalType": "uint256",
					"name": "_num2",
					"type": "uint256"
				}
			],
			"name": "checkOverFlow",
			"outputs": [],
			"stateMutability": "nonpayable",
			"type": "function"
		},
		{
			"inputs": [],
			"name": "getresult",
			"outputs": [
				{
					"internalType": "string",
					"name": "",
					"type": "string"
				}
			],
			"stateMutability": "view",
			"type": "function"
		},
		{
			"inputs": [],
			"name": "result",
			"outputs": [
				{
					"internalType": "bool",
					"name": "",
					"type": "bool"
				}
			],
			"stateMutability": "view",
			"type": "function"
		}
	]
}