{
	"data": {
		"bytecode": {
			"linkReferences": {},
			"object": "608060405234801561001057600080fd5b5061038d806100206000396000f3fe608060405234801561001057600080fd5b50600436106100935760003560e01c80636d4ce63c116100665780636d4ce63c146100e6578063ba446ae914610104578063d826f88f1461010e578063e20ccec314610118578063ea8a1af01461012257610093565b8063200d2ed21461009857806324b8ba5f146100b65780632852b71c146100d25780634dc415de146100dc575b600080fd5b6100a061012c565b6040516100ad91906102e5565b60405180910390f35b6100d060048036038101906100cb919061032a565b61013d565b005b6100da610169565b005b6100e4610195565b005b6100ee6101c1565b6040516100fb91906102e5565b60405180910390f35b61010c6101d7565b005b610116610203565b005b610120610216565b005b61012a610242565b005b60008054906101000a900460ff1681565b806000806101000a81548160ff021916908360048111156101615761016061026e565b5b021790555050565b60026000806101000a81548160ff0219169083600481111561018e5761018d61026e565b5b0217905550565b60036000806101000a81548160ff021916908360048111156101ba576101b961026e565b5b0217905550565b60008060009054906101000a900460ff16905090565b60016000806101000a81548160ff021916908360048111156101fc576101fb61026e565b5b0217905550565b6000806101000a81549060ff0219169055565b60008060006101000a81548160ff0219169083600481111561023b5761023a61026e565b5b0217905550565b60046000806101000a81548160ff021916908360048111156102675761026661026e565b5b0217905550565b7f4e487b7100000000000000000000000000000000000000000000000000000000600052602160045260246000fd5b600581106102ae576102ad61026e565b5b50565b60008190506102bf8261029d565b919050565b60006102cf826102b1565b9050919050565b6102df816102c4565b82525050565b60006020820190506102fa60008301846102d6565b92915050565b600080fd5b6005811061031257600080fd5b50565b60008135905061032481610305565b92915050565b6000602082840312156103405761033f610300565b5b600061034e84828501610315565b9150509291505056fea26469706673582212202c105502b015a4e07b59d7ff938cc1a8ab25c061955762f2dd27b21fa657de7564736f6c634300080d0033",
			"opcodes": "PUSH1 0x80 PUSH1 0x40 MSTORE CALLVALUE DUP1 ISZERO PUSH2 0x10 JUMPI PUSH1 0x0 DUP1 REVERT JUMPDEST POP PUSH2 0x38D DUP1 PUSH2 0x20 PUSH1 0x0 CODECOPY PUSH1 0x0 RETURN INVALID PUSH1 0x80 PUSH1 0x40 MSTORE CALLVALUE DUP1 ISZERO PUSH2 0x10 JUMPI PUSH1 0x0 DUP1 REVERT JUMPDEST POP PUSH1 0x4 CALLDATASIZE LT PUSH2 0x93 JUMPI PUSH1 0x0 CALLDATALOAD PUSH1 0xE0 SHR DUP1 PUSH4 0x6D4CE63C GT PUSH2 0x66 JUMPI DUP1 PUSH4 0x6D4CE63C EQ PUSH2 0xE6 JUMPI DUP1 PUSH4 0xBA446AE9 EQ PUSH2 0x104 JUMPI DUP1 PUSH4 0xD826F88F EQ PUSH2 0x10E JUMPI DUP1 PUSH4 0xE20CCEC3 EQ PUSH2 0x118 JUMPI DUP1 PUSH4 0xEA8A1AF0 EQ PUSH2 0x122 JUMPI PUSH2 0x93 JUMP JUMPDEST DUP1 PUSH4 0x200D2ED2 EQ PUSH2 0x98 JUMPI DUP1 PUSH4 0x24B8BA5F EQ PUSH2 0xB6 JUMPI DUP1 PUSH4 0x2852B71C EQ PUSH2 0xD2 JUMPI DUP1 PUSH4 0x4DC415DE EQ PUSH2 0xDC JUMPI JUMPDEST PUSH1 0x0 DUP1 REVERT JUMPDEST PUSH2 0xA0 PUSH2 0x12C JUMP JUMPDEST PUSH1 0x40 MLOAD PUSH2 0xAD SWAP2 SWAP1 PUSH2 0x2E5 JUMP JUMPDEST PUSH1 0x40 MLOAD DUP1 SWAP2 SUB SWAP1 RETURN JUMPDEST PUSH2 0xD0 PUSH1 0x4 DUP1 CALLDATASIZE SUB DUP2 ADD SWAP1 PUSH2 0xCB SWAP2 SWAP1 PUSH2 0x32A JUMP JUMPDEST PUSH2 0x13D JUMP JUMPDEST STOP JUMPDEST PUSH2 0xDA PUSH2 0x169 JUMP JUMPDEST STOP JUMPDEST PUSH2 0xE4 PUSH2 0x195 JUMP JUMPDEST STOP JUMPDEST PUSH2 0xEE PUSH2 0x1C1 JUMP JUMPDEST PUSH1 0x40 MLOAD PUSH2 0xFB SWAP2 SWAP1 PUSH2 0x2E5 JUMP JUMPDEST PUSH1 0x40 MLOAD DUP1 SWAP2 SUB SWAP1 RETURN JUMPDEST PUSH2 0x10C PUSH2 0x1D7 JUMP JUMPDEST STOP JUMPDEST PUSH2 0x116 PUSH2 0x203 JUMP JUMPDEST STOP JUMPDEST PUSH2 0x120 PUSH2 0x216 JUMP JUMPDEST STOP JUMPDEST PUSH2 0x12A PUSH2 0x242 JUMP JUMPDEST STOP JUMPDEST PUSH1 0x0 DUP1 SLOAD SWAP1 PUSH2 0x100 EXP SWAP1 DIV PUSH1 0xFF AND DUP2 JUMP JUMPDEST DUP1 PUSH1 0x0 DUP1 PUSH2 0x100 EXP DUP2 SLOAD DUP2 PUSH1 0xFF MUL NOT AND SWAP1 DUP4 PUSH1 0x4 DUP2 GT ISZERO PUSH2 0x161 JUMPI PUSH2 0x160 PUSH2 0x26E JUMP JUMPDEST JUMPDEST MUL OR SWAP1 SSTORE POP POP JUMP JUMPDEST PUSH1 0x2 PUSH1 0x0 DUP1 PUSH2 0x100 EXP DUP2 SLOAD DUP2 PUSH1 0xFF MUL NOT AND SWAP1 DUP4 PUSH1 0x4 DUP2 GT ISZERO PUSH2 0x18E JUMPI PUSH2 0x18D PUSH2 0x26E JUMP JUMPDEST JUMPDEST MUL OR SWAP1 SSTORE POP JUMP JUMPDEST PUSH1 0x3 PUSH1 0x0 DUP1 PUSH2 0x100 EXP DUP2 SLOAD DUP2 PUSH1 0xFF MUL NOT AND SWAP1 DUP4 PUSH1 0x4 DUP2 GT ISZERO PUSH2 0x1BA JUMPI PUSH2 0x1B9 PUSH2 0x26E JUMP JUMPDEST JUMPDEST MUL OR SWAP1 SSTORE POP JUMP JUMPDEST PUSH1 0x0 DUP1 PUSH1 0x0 SWAP1 SLOAD SWAP1 PUSH2 0x100 EXP SWAP1 DIV PUSH1 0xFF AND SWAP1 POP SWAP1 JUMP JUMPDEST PUSH1 0x1 PUSH1 0x0 DUP1 PUSH2 0x100 EXP DUP2 SLOAD DUP2 PUSH1 0xFF MUL NOT AND SWAP1 DUP4 PUSH1 0x4 DUP2 GT ISZERO PUSH2 0x1FC JUMPI PUSH2 0x1FB PUSH2 0x26E JUMP JUMPDEST JUMPDEST MUL OR SWAP1 SSTORE POP JUMP JUMPDEST PUSH1 0x0 DUP1 PUSH2 0x100 EXP DUP2 SLOAD SWAP1 PUSH1 0xFF MUL NOT AND SWAP1 SSTORE JUMP JUMPDEST PUSH1 0x0 DUP1 PUSH1 0x0 PUSH2 0x100 EXP DUP2 SLOAD DUP2 PUSH1 0xFF MUL NOT AND SWAP1 DUP4 PUSH1 0x4 DUP2 GT ISZERO PUSH2 0x23B JUMPI PUSH2 0x23A PUSH2 0x26E JUMP JUMPDEST JUMPDEST MUL OR SWAP1 SSTORE POP JUMP JUMPDEST PUSH1 0x4 PUSH1 0x0 DUP1 PUSH2 0x100 EXP DUP2 SLOAD DUP2 PUSH1 0xFF MUL NOT AND SWAP1 DUP4 PUSH1 0x4 DUP2 GT ISZERO PUSH2 0x267 JUMPI PUSH2 0x266 PUSH2 0x26E JUMP JUMPDEST JUMPDEST MUL OR SWAP1 SSTORE POP JUMP JUMPDEST PUSH32 0x4E487B7100000000000000000000000000000000000000000000000000000000 PUSH1 0x0 MSTORE PUSH1 0x21 PUSH1 0x4 MSTORE PUSH1 0x24 PUSH1 0x0 REVERT JUMPDEST PUSH1 0x5 DUP2 LT PUSH2 0x2AE JUMPI PUSH2 0x2AD PUSH2 0x26E JUMP JUMPDEST JUMPDEST POP JUMP JUMPDEST PUSH1 0x0 DUP2 SWAP1 POP PUSH2 0x2BF DUP3 PUSH2 0x29D JUMP JUMPDEST SWAP2 SWAP1 POP JUMP JUMPDEST PUSH1 0x0 PUSH2 0x2CF DUP3 PUSH2 0x2B1 JUMP JUMPDEST SWAP1 POP SWAP2 SWAP1 POP JUMP JUMPDEST PUSH2 0x2DF DUP2 PUSH2 0x2C4 JUMP JUMPDEST DUP3 MSTORE POP POP JUMP JUMPDEST PUSH1 0x0 PUSH1 0x20 DUP3 ADD SWAP1 POP PUSH2 0x2FA PUSH1 0x0 DUP4 ADD DUP5 PUSH2 0x2D6 JUMP JUMPDEST SWAP3 SWAP2 POP POP JUMP JUMPDEST PUSH1 0x0 DUP1 REVERT JUMPDEST PUSH1 0x5 DUP2 LT PUSH2 0x312 JUMPI PUSH1 0x0 DUP1 REVERT JUMPDEST POP JUMP JUMPDEST PUSH1 0x0 DUP2 CALLDATALOAD SWAP1 POP PUSH2 0x324 DUP2 PUSH2 0x305 JUMP JUMPDEST SWAP3 SWAP2 POP POP JUMP JUMPDEST PUSH1 0x0 PUSH1 0x20 DUP3 DUP5 SUB SLT ISZERO PUSH2 0x340 JUMPI PUSH2 0x33F PUSH2 0x300 JUMP JUMPDEST JUMPDEST PUSH1 0x0 PUSH2 0x34E DUP5 DUP3 DUP6 ADD PUSH2 0x315 JUMP JUMPDEST SWAP2 POP POP SWAP3 SWAP2 POP POP JUMP INVALID LOG2 PUSH5 0x6970667358 0x22 SLT KECCAK256 0x2C LT SSTORE MUL 0xB0 ISZERO LOG4 0xE0 PUSH28 0x59D7FF938CC1A8AB25C061955762F2DD27B21FA657DE7564736F6C63 NUMBER STOP ADDMOD 0xD STOP CALLER "
		},
		"gasEstimates": {
			"creation": {
				"codeDepositCost": "181800",
				"executionCost": "226",
				"totalCost": "182026"
			},
			"external": {
				"accept()": "24476",
				"cancel()": "24519",
				"get()": "2568",
				"pending()": "24497",
				"reject()": "24498",
				"reset()": "24430",
				"set(uint8)": "24673",
				"shipped()": "24453",
				"status()": "2558"
			}
		},
		"methodIdentifiers": {
			"accept()": "2852b71c",
			"cancel()": "ea8a1af0",
			"get()": "6d4ce63c",
			"pending()": "e20ccec3",
			"reject()": "4dc415de",
			"reset()": "d826f88f",
			"set(uint8)": "24b8ba5f",
			"shipped()": "ba446ae9",
			"status()": "200d2ed2"
		}
	},
	"abi": [
		{
			"inputs": [],
			"name": "accept",
			"outputs": [],
			"stateMutability": "nonpayable",
			"type": "function"
		},
		{
			"inputs": [],
			"name": "cancel",
			"outputs": [],
			"stateMutability": "nonpayable",
			"type": "function"
		},
		{
			"inputs": [],
			"name": "get",
			"outputs": [
				{
					"internalType": "enum Enum.Status",
					"name": "",
					"type": "uint8"
				}
			],
			"stateMutability": "view",
			"type": "function"
		},
		{
			"inputs": [],
			"name": "pending",
			"outputs": [],
			"stateMutability": "nonpayable",
			"type": "function"
		},
		{
			"inputs": [],
			"name": "reject",
			"outputs": [],
			"stateMutability": "nonpayable",
			"type": "function"
		},
		{
			"inputs": [],
			"name": "reset",
			"outputs": [],
			"stateMutability": "nonpayable",
			"type": "function"
		},
		{
			"inputs": [
				{
					"internalType": "enum Enum.Status",
					"name": "_status",
					"type": "uint8"
				}
			],
			"name": "set",
			"outputs": [],
			"stateMutability": "nonpayable",
			"type": "function"
		},
		{
			"inputs": [],
			"name": "shipped",
			"outputs": [],
			"stateMutability": "nonpayable",
			"type": "function"
		},
		{
			"inputs": [],
			"name": "status",
			"outputs": [
				{
					"internalType": "enum Enum.Status",
					"name": "",
					"type": "uint8"
				}
			],
			"stateMutability": "view",
			"type": "function"
		}
	]
}