{
	"data": {
		"bytecode": {
			"linkReferences": {},
			"object": "6080604052348015600e575f80fd5b506116fe8061001c5f395ff3fe608060405234801561000f575f80fd5b506004361061004a575f3560e01c80630869cfbc1461004e5780631dae7dfd1461007f578063b152829b1461009b578063b5368e20146100b7575b5f80fd5b61006860048036038101906100639190610d78565b6100ec565b604051610076929190610e2b565b60405180910390f35b61009960048036038101906100949190611091565b610191565b005b6100b560048036038101906100b091906111a6565b61029c565b005b6100d160048036038101906100cc9190610d78565b6107cc565b6040516100e39695949392919061137d565b60405180910390f35b5f602052805f5260405f205f91509050805f01805461010a9061142c565b80601f01602080910402602001604051908101604052809291908181526020018280546101369061142c565b80156101815780601f1061015857610100808354040283529160200191610181565b820191905f5260205f20905b81548152906001019060200180831161016457829003601f168201915b5050505050908060010154905082565b5f6040518060c00160405280888152602001878152602001868152602001858152602001848152602001838152509050805f803373ffffffffffffffffffffffffffffffffffffffff1673ffffffffffffffffffffffffffffffffffffffff1681526020019081526020015f205f820151815f01908161021191906115f9565b50602082015181600101556040820151816002019080519060200190610238929190610c3b565b506060820151816003019080519060200190610255929190610c3b565b506080820151816004019080519060200190610272929190610c3b565b5060a082015181600501908051906020019061028f929190610c3b565b5090505050505050505050565b5f805f3373ffffffffffffffffffffffffffffffffffffffff1673ffffffffffffffffffffffffffffffffffffffff1681526020019081526020015f206040518060c00160405290815f820180546102f39061142c565b80601f016020809104026020016040519081016040528092919081815260200182805461031f9061142c565b801561036a5780601f106103415761010080835404028352916020019161036a565b820191905f5260205f20905b81548152906001019060200180831161034d57829003601f168201915b505050505081526020016001820154815260200160028201805480602002602001604051908101604052809291908181526020015f905b82821015610449578382905f5260205f200180546103be9061142c565b80601f01602080910402602001604051908101604052809291908181526020018280546103ea9061142c565b80156104355780601f1061040c57610100808354040283529160200191610435565b820191905f5260205f20905b81548152906001019060200180831161041857829003601f168201915b5050505050815260200190600101906103a1565b50505050815260200160038201805480602002602001604051908101604052809291908181526020015f905b8282101561051d578382905f5260205f200180546104929061142c565b80601f01602080910402602001604051908101604052809291908181526020018280546104be9061142c565b80156105095780601f106104e057610100808354040283529160200191610509565b820191905f5260205f20905b8154815290600101906020018083116104ec57829003601f168201915b505050505081526020019060010190610475565b50505050815260200160048201805480602002602001604051908101604052809291908181526020015f905b828210156105f1578382905f5260205f200180546105669061142c565b80601f01602080910402602001604051908101604052809291908181526020018280546105929061142c565b80156105dd5780601f106105b4576101008083540402835291602001916105dd565b820191905f5260205f20905b8154815290600101906020018083116105c057829003601f168201915b505050505081526020019060010190610549565b50505050815260200160058201805480602002602001604051908101604052809291908181526020015f905b828210156106c5578382905f5260205f2001805461063a9061142c565b80601f01602080910402602001604051908101604052809291908181526020018280546106669061142c565b80156106b15780601f10610688576101008083540402835291602001916106b1565b820191905f5260205f20905b81548152906001019060200180831161069457829003601f168201915b50505050508152602001906001019061061d565b50505050815250509050848160400181905250838160600181905250828160800181905250818160a00181905250805f803373ffffffffffffffffffffffffffffffffffffffff1673ffffffffffffffffffffffffffffffffffffffff1681526020019081526020015f205f820151815f01908161074391906115f9565b5060208201518160010155604082015181600201908051906020019061076a929190610c3b565b506060820151816003019080519060200190610787929190610c3b565b5060808201518160040190805190602001906107a4929190610c3b565b5060a08201518160050190805190602001906107c1929190610c3b565b509050505050505050565b60605f6060806060805f805f8973ffffffffffffffffffffffffffffffffffffffff1673ffffffffffffffffffffffffffffffffffffffff1681526020019081526020015f206040518060c00160405290815f8201805461082c9061142c565b80601f01602080910402602001604051908101604052809291908181526020018280546108589061142c565b80156108a35780601f1061087a576101008083540402835291602001916108a3565b820191905f5260205f20905b81548152906001019060200180831161088657829003601f168201915b505050505081526020016001820154815260200160028201805480602002602001604051908101604052809291908181526020015f905b82821015610982578382905f5260205f200180546108f79061142c565b80601f01602080910402602001604051908101604052809291908181526020018280546109239061142c565b801561096e5780601f106109455761010080835404028352916020019161096e565b820191905f5260205f20905b81548152906001019060200180831161095157829003601f168201915b5050505050815260200190600101906108da565b50505050815260200160038201805480602002602001604051908101604052809291908181526020015f905b82821015610a56578382905f5260205f200180546109cb9061142c565b80601f01602080910402602001604051908101604052809291908181526020018280546109f79061142c565b8015610a425780601f10610a1957610100808354040283529160200191610a42565b820191905f5260205f20905b815481529060010190602001808311610a2557829003601f168201915b5050505050815260200190600101906109ae565b50505050815260200160048201805480602002602001604051908101604052809291908181526020015f905b82821015610b2a578382905f5260205f20018054610a9f9061142c565b80601f0160208091040260200160405190810160405280929190818152602001828054610acb9061142c565b8015610b165780601f10610aed57610100808354040283529160200191610b16565b820191905f5260205f20905b815481529060010190602001808311610af957829003601f168201915b505050505081526020019060010190610a82565b50505050815260200160058201805480602002602001604051908101604052809291908181526020015f905b82821015610bfe578382905f5260205f20018054610b739061142c565b80601f0160208091040260200160405190810160405280929190818152602001828054610b9f9061142c565b8015610bea5780601f10610bc157610100808354040283529160200191610bea565b820191905f5260205f20905b815481529060010190602001808311610bcd57829003601f168201915b505050505081526020019060010190610b56565b50505050815250509050805f015181602001518260400151836060015184608001518560a001519650965096509650965096505091939550919395565b828054828255905f5260205f20908101928215610c81579160200282015b82811115610c80578251829081610c7091906115f9565b5091602001919060010190610c59565b5b509050610c8e9190610c92565b5090565b5b80821115610cb1575f8181610ca89190610cb5565b50600101610c93565b5090565b508054610cc19061142c565b5f825580601f10610cd25750610cef565b601f0160209004905f5260205f2090810190610cee9190610cf2565b5b50565b5b80821115610d09575f815f905550600101610cf3565b5090565b5f604051905090565b5f80fd5b5f80fd5b5f73ffffffffffffffffffffffffffffffffffffffff82169050919050565b5f610d4782610d1e565b9050919050565b610d5781610d3d565b8114610d61575f80fd5b50565b5f81359050610d7281610d4e565b92915050565b5f60208284031215610d8d57610d8c610d16565b5b5f610d9a84828501610d64565b91505092915050565b5f81519050919050565b5f82825260208201905092915050565b8281835e5f83830152505050565b5f601f19601f8301169050919050565b5f610de582610da3565b610def8185610dad565b9350610dff818560208601610dbd565b610e0881610dcb565b840191505092915050565b5f819050919050565b610e2581610e13565b82525050565b5f6040820190508181035f830152610e438185610ddb565b9050610e526020830184610e1c565b9392505050565b5f80fd5b5f80fd5b7f4e487b71000000000000000000000000000000000000000000000000000000005f52604160045260245ffd5b610e9782610dcb565b810181811067ffffffffffffffff82111715610eb657610eb5610e61565b5b80604052505050565b5f610ec8610d0d565b9050610ed48282610e8e565b919050565b5f67ffffffffffffffff821115610ef357610ef2610e61565b5b610efc82610dcb565b9050602081019050919050565b828183375f83830152505050565b5f610f29610f2484610ed9565b610ebf565b905082815260208101848484011115610f4557610f44610e5d565b5b610f50848285610f09565b509392505050565b5f82601f830112610f6c57610f6b610e59565b5b8135610f7c848260208601610f17565b91505092915050565b610f8e81610e13565b8114610f98575f80fd5b50565b5f81359050610fa981610f85565b92915050565b5f67ffffffffffffffff821115610fc957610fc8610e61565b5b602082029050602081019050919050565b5f80fd5b5f610ff0610feb84610faf565b610ebf565b9050808382526020820190506020840283018581111561101357611012610fda565b5b835b8181101561105a57803567ffffffffffffffff81111561103857611037610e59565b5b8086016110458982610f58565b85526020850194505050602081019050611015565b5050509392505050565b5f82601f83011261107857611077610e59565b5b8135611088848260208601610fde565b91505092915050565b5f805f805f8060c087890312156110ab576110aa610d16565b5b5f87013567ffffffffffffffff8111156110c8576110c7610d1a565b5b6110d489828a01610f58565b96505060206110e589828a01610f9b565b955050604087013567ffffffffffffffff81111561110657611105610d1a565b5b61111289828a01611064565b945050606087013567ffffffffffffffff81111561113357611132610d1a565b5b61113f89828a01611064565b935050608087013567ffffffffffffffff8111156111605761115f610d1a565b5b61116c89828a01611064565b92505060a087013567ffffffffffffffff81111561118d5761118c610d1a565b5b61119989828a01611064565b9150509295509295509295565b5f805f80608085870312156111be576111bd610d16565b5b5f85013567ffffffffffffffff8111156111db576111da610d1a565b5b6111e787828801611064565b945050602085013567ffffffffffffffff81111561120857611207610d1a565b5b61121487828801611064565b935050604085013567ffffffffffffffff81111561123557611234610d1a565b5b61124187828801611064565b925050606085013567ffffffffffffffff81111561126257611261610d1a565b5b61126e87828801611064565b91505092959194509250565b5f81519050919050565b5f82825260208201905092915050565b5f819050602082019050919050565b5f82825260208201905092915050565b5f6112bd82610da3565b6112c781856112a3565b93506112d7818560208601610dbd565b6112e081610dcb565b840191505092915050565b5f6112f683836112b3565b905092915050565b5f602082019050919050565b5f6113148261127a565b61131e8185611284565b93508360208202850161133085611294565b805f5b8581101561136b578484038952815161134c85826112eb565b9450611357836112fe565b925060208a01995050600181019050611333565b50829750879550505050505092915050565b5f60c0820190508181035f8301526113958189610ddb565b90506113a46020830188610e1c565b81810360408301526113b6818761130a565b905081810360608301526113ca818661130a565b905081810360808301526113de818561130a565b905081810360a08301526113f2818461130a565b9050979650505050505050565b7f4e487b71000000000000000000000000000000000000000000000000000000005f52602260045260245ffd5b5f600282049050600182168061144357607f821691505b602082108103611456576114556113ff565b5b50919050565b5f819050815f5260205f209050919050565b5f6020601f8301049050919050565b5f82821b905092915050565b5f600883026114b87fffffffffffffffffffffffffffffffffffffffffffffffffffffffffffffffff8261147d565b6114c2868361147d565b95508019841693508086168417925050509392505050565b5f819050919050565b5f6114fd6114f86114f384610e13565b6114da565b610e13565b9050919050565b5f819050919050565b611516836114e3565b61152a61152282611504565b848454611489565b825550505050565b5f90565b61153e611532565b61154981848461150d565b505050565b5b8181101561156c576115615f82611536565b60018101905061154f565b5050565b601f8211156115b1576115828161145c565b61158b8461146e565b8101602085101561159a578190505b6115ae6115a68561146e565b83018261154e565b50505b505050565b5f82821c905092915050565b5f6115d15f19846008026115b6565b1980831691505092915050565b5f6115e983836115c2565b9150826002028217905092915050565b61160282610da3565b67ffffffffffffffff81111561161b5761161a610e61565b5b611625825461142c565b611630828285611570565b5f60209050601f831160018114611661575f841561164f578287015190505b61165985826115de565b8655506116c0565b601f19841661166f8661145c565b5f5b8281101561169657848901518255600182019150602085019450602081019050611671565b868310156116b357848901516116af601f8916826115c2565b8355505b6001600288020188555050505b50505050505056fea2646970667358221220f4a006321646de28b3595088042873ce2fe6b3441c86d49ba9ebf1a03040d14264736f6c634300081a0033",
			"opcodes": "PUSH1 0x80 PUSH1 0x40 MSTORE CALLVALUE DUP1 ISZERO PUSH1 0xE JUMPI PUSH0 DUP1 REVERT JUMPDEST POP PUSH2 0x16FE DUP1 PUSH2 0x1C PUSH0 CODECOPY PUSH0 RETURN INVALID PUSH1 0x80 PUSH1 0x40 MSTORE CALLVALUE DUP1 ISZERO PUSH2 0xF JUMPI PUSH0 DUP1 REVERT JUMPDEST POP PUSH1 0x4 CALLDATASIZE LT PUSH2 0x4A JUMPI PUSH0 CALLDATALOAD PUSH1 0xE0 SHR DUP1 PUSH4 0x869CFBC EQ PUSH2 0x4E JUMPI DUP1 PUSH4 0x1DAE7DFD EQ PUSH2 0x7F JUMPI DUP1 PUSH4 0xB152829B EQ PUSH2 0x9B JUMPI DUP1 PUSH4 0xB5368E20 EQ PUSH2 0xB7 JUMPI JUMPDEST PUSH0 DUP1 REVERT JUMPDEST PUSH2 0x68 PUSH1 0x4 DUP1 CALLDATASIZE SUB DUP2 ADD SWAP1 PUSH2 0x63 SWAP2 SWAP1 PUSH2 0xD78 JUMP JUMPDEST PUSH2 0xEC JUMP JUMPDEST PUSH1 0x40 MLOAD PUSH2 0x76 SWAP3 SWAP2 SWAP1 PUSH2 0xE2B JUMP JUMPDEST PUSH1 0x40 MLOAD DUP1 SWAP2 SUB SWAP1 RETURN JUMPDEST PUSH2 0x99 PUSH1 0x4 DUP1 CALLDATASIZE SUB DUP2 ADD SWAP1 PUSH2 0x94 SWAP2 SWAP1 PUSH2 0x1091 JUMP JUMPDEST PUSH2 0x191 JUMP JUMPDEST STOP JUMPDEST PUSH2 0xB5 PUSH1 0x4 DUP1 CALLDATASIZE SUB DUP2 ADD SWAP1 PUSH2 0xB0 SWAP2 SWAP1 PUSH2 0x11A6 JUMP JUMPDEST PUSH2 0x29C JUMP JUMPDEST STOP JUMPDEST PUSH2 0xD1 PUSH1 0x4 DUP1 CALLDATASIZE SUB DUP2 ADD SWAP1 PUSH2 0xCC SWAP2 SWAP1 PUSH2 0xD78 JUMP JUMPDEST PUSH2 0x7CC JUMP JUMPDEST PUSH1 0x40 MLOAD PUSH2 0xE3 SWAP7 SWAP6 SWAP5 SWAP4 SWAP3 SWAP2 SWAP1 PUSH2 0x137D JUMP JUMPDEST PUSH1 0x40 MLOAD DUP1 SWAP2 SUB SWAP1 RETURN JUMPDEST PUSH0 PUSH1 0x20 MSTORE DUP1 PUSH0 MSTORE PUSH1 0x40 PUSH0 KECCAK256 PUSH0 SWAP2 POP SWAP1 POP DUP1 PUSH0 ADD DUP1 SLOAD PUSH2 0x10A SWAP1 PUSH2 0x142C JUMP JUMPDEST DUP1 PUSH1 0x1F ADD PUSH1 0x20 DUP1 SWAP2 DIV MUL PUSH1 0x20 ADD PUSH1 0x40 MLOAD SWAP1 DUP2 ADD PUSH1 0x40 MSTORE DUP1 SWAP3 SWAP2 SWAP1 DUP2 DUP2 MSTORE PUSH1 0x20 ADD DUP3 DUP1 SLOAD PUSH2 0x136 SWAP1 PUSH2 0x142C JUMP JUMPDEST DUP1 ISZERO PUSH2 0x181 JUMPI DUP1 PUSH1 0x1F LT PUSH2 0x158 JUMPI PUSH2 0x100 DUP1 DUP4 SLOAD DIV MUL DUP4 MSTORE SWAP2 PUSH1 0x20 ADD SWAP2 PUSH2 0x181 JUMP JUMPDEST DUP3 ADD SWAP2 SWAP1 PUSH0 MSTORE PUSH1 0x20 PUSH0 KECCAK256 SWAP1 JUMPDEST DUP2 SLOAD DUP2 MSTORE SWAP1 PUSH1 0x1 ADD SWAP1 PUSH1 0x20 ADD DUP1 DUP4 GT PUSH2 0x164 JUMPI DUP3 SWAP1 SUB PUSH1 0x1F AND DUP3 ADD SWAP2 JUMPDEST POP POP POP POP POP SWAP1 DUP1 PUSH1 0x1 ADD SLOAD SWAP1 POP DUP3 JUMP JUMPDEST PUSH0 PUSH1 0x40 MLOAD DUP1 PUSH1 0xC0 ADD PUSH1 0x40 MSTORE DUP1 DUP9 DUP2 MSTORE PUSH1 0x20 ADD DUP8 DUP2 MSTORE PUSH1 0x20 ADD DUP7 DUP2 MSTORE PUSH1 0x20 ADD DUP6 DUP2 MSTORE PUSH1 0x20 ADD DUP5 DUP2 MSTORE PUSH1 0x20 ADD DUP4 DUP2 MSTORE POP SWAP1 POP DUP1 PUSH0 DUP1 CALLER PUSH20 0xFFFFFFFFFFFFFFFFFFFFFFFFFFFFFFFFFFFFFFFF AND PUSH20 0xFFFFFFFFFFFFFFFFFFFFFFFFFFFFFFFFFFFFFFFF AND DUP2 MSTORE PUSH1 0x20 ADD SWAP1 DUP2 MSTORE PUSH1 0x20 ADD PUSH0 KECCAK256 PUSH0 DUP3 ADD MLOAD DUP2 PUSH0 ADD SWAP1 DUP2 PUSH2 0x211 SWAP2 SWAP1 PUSH2 0x15F9 JUMP JUMPDEST POP PUSH1 0x20 DUP3 ADD MLOAD DUP2 PUSH1 0x1 ADD SSTORE PUSH1 0x40 DUP3 ADD MLOAD DUP2 PUSH1 0x2 ADD SWAP1 DUP1 MLOAD SWAP1 PUSH1 0x20 ADD SWAP1 PUSH2 0x238 SWAP3 SWAP2 SWAP1 PUSH2 0xC3B JUMP JUMPDEST POP PUSH1 0x60 DUP3 ADD MLOAD DUP2 PUSH1 0x3 ADD SWAP1 DUP1 MLOAD SWAP1 PUSH1 0x20 ADD SWAP1 PUSH2 0x255 SWAP3 SWAP2 SWAP1 PUSH2 0xC3B JUMP JUMPDEST POP PUSH1 0x80 DUP3 ADD MLOAD DUP2 PUSH1 0x4 ADD SWAP1 DUP1 MLOAD SWAP1 PUSH1 0x20 ADD SWAP1 PUSH2 0x272 SWAP3 SWAP2 SWAP1 PUSH2 0xC3B JUMP JUMPDEST POP PUSH1 0xA0 DUP3 ADD MLOAD DUP2 PUSH1 0x5 ADD SWAP1 DUP1 MLOAD SWAP1 PUSH1 0x20 ADD SWAP1 PUSH2 0x28F SWAP3 SWAP2 SWAP1 PUSH2 0xC3B JUMP JUMPDEST POP SWAP1 POP POP POP POP POP POP POP POP POP JUMP JUMPDEST PUSH0 DUP1 PUSH0 CALLER PUSH20 0xFFFFFFFFFFFFFFFFFFFFFFFFFFFFFFFFFFFFFFFF AND PUSH20 0xFFFFFFFFFFFFFFFFFFFFFFFFFFFFFFFFFFFFFFFF AND DUP2 MSTORE PUSH1 0x20 ADD SWAP1 DUP2 MSTORE PUSH1 0x20 ADD PUSH0 KECCAK256 PUSH1 0x40 MLOAD DUP1 PUSH1 0xC0 ADD PUSH1 0x40 MSTORE SWAP1 DUP2 PUSH0 DUP3 ADD DUP1 SLOAD PUSH2 0x2F3 SWAP1 PUSH2 0x142C JUMP JUMPDEST DUP1 PUSH1 0x1F ADD PUSH1 0x20 DUP1 SWAP2 DIV MUL PUSH1 0x20 ADD PUSH1 0x40 MLOAD SWAP1 DUP2 ADD PUSH1 0x40 MSTORE DUP1 SWAP3 SWAP2 SWAP1 DUP2 DUP2 MSTORE PUSH1 0x20 ADD DUP3 DUP1 SLOAD PUSH2 0x31F SWAP1 PUSH2 0x142C JUMP JUMPDEST DUP1 ISZERO PUSH2 0x36A JUMPI DUP1 PUSH1 0x1F LT PUSH2 0x341 JUMPI PUSH2 0x100 DUP1 DUP4 SLOAD DIV MUL DUP4 MSTORE SWAP2 PUSH1 0x20 ADD SWAP2 PUSH2 0x36A JUMP JUMPDEST DUP3 ADD SWAP2 SWAP1 PUSH0 MSTORE PUSH1 0x20 PUSH0 KECCAK256 SWAP1 JUMPDEST DUP2 SLOAD DUP2 MSTORE SWAP1 PUSH1 0x1 ADD SWAP1 PUSH1 0x20 ADD DUP1 DUP4 GT PUSH2 0x34D JUMPI DUP3 SWAP1 SUB PUSH1 0x1F AND DUP3 ADD SWAP2 JUMPDEST POP POP POP POP POP DUP2 MSTORE PUSH1 0x20 ADD PUSH1 0x1 DUP3 ADD SLOAD DUP2 MSTORE PUSH1 0x20 ADD PUSH1 0x2 DUP3 ADD DUP1 SLOAD DUP1 PUSH1 0x20 MUL PUSH1 0x20 ADD PUSH1 0x40 MLOAD SWAP1 DUP2 ADD PUSH1 0x40 MSTORE DUP1 SWAP3 SWAP2 SWAP1 DUP2 DUP2 MSTORE PUSH1 0x20 ADD PUSH0 SWAP1 JUMPDEST DUP3 DUP3 LT ISZERO PUSH2 0x449 JUMPI DUP4 DUP3 SWAP1 PUSH0 MSTORE PUSH1 0x20 PUSH0 KECCAK256 ADD DUP1 SLOAD PUSH2 0x3BE SWAP1 PUSH2 0x142C JUMP JUMPDEST DUP1 PUSH1 0x1F ADD PUSH1 0x20 DUP1 SWAP2 DIV MUL PUSH1 0x20 ADD PUSH1 0x40 MLOAD SWAP1 DUP2 ADD PUSH1 0x40 MSTORE DUP1 SWAP3 SWAP2 SWAP1 DUP2 DUP2 MSTORE PUSH1 0x20 ADD DUP3 DUP1 SLOAD PUSH2 0x3EA SWAP1 PUSH2 0x142C JUMP JUMPDEST DUP1 ISZERO PUSH2 0x435 JUMPI DUP1 PUSH1 0x1F LT PUSH2 0x40C JUMPI PUSH2 0x100 DUP1 DUP4 SLOAD DIV MUL DUP4 MSTORE SWAP2 PUSH1 0x20 ADD SWAP2 PUSH2 0x435 JUMP JUMPDEST DUP3 ADD SWAP2 SWAP1 PUSH0 MSTORE PUSH1 0x20 PUSH0 KECCAK256 SWAP1 JUMPDEST DUP2 SLOAD DUP2 MSTORE SWAP1 PUSH1 0x1 ADD SWAP1 PUSH1 0x20 ADD DUP1 DUP4 GT PUSH2 0x418 JUMPI DUP3 SWAP1 SUB PUSH1 0x1F AND DUP3 ADD SWAP2 JUMPDEST POP POP POP POP POP DUP2 MSTORE PUSH1 0x20 ADD SWAP1 PUSH1 0x1 ADD SWAP1 PUSH2 0x3A1 JUMP JUMPDEST POP POP POP POP DUP2 MSTORE PUSH1 0x20 ADD PUSH1 0x3 DUP3 ADD DUP1 SLOAD DUP1 PUSH1 0x20 MUL PUSH1 0x20 ADD PUSH1 0x40 MLOAD SWAP1 DUP2 ADD PUSH1 0x40 MSTORE DUP1 SWAP3 SWAP2 SWAP1 DUP2 DUP2 MSTORE PUSH1 0x20 ADD PUSH0 SWAP1 JUMPDEST DUP3 DUP3 LT ISZERO PUSH2 0x51D JUMPI DUP4 DUP3 SWAP1 PUSH0 MSTORE PUSH1 0x20 PUSH0 KECCAK256 ADD DUP1 SLOAD PUSH2 0x492 SWAP1 PUSH2 0x142C JUMP JUMPDEST DUP1 PUSH1 0x1F ADD PUSH1 0x20 DUP1 SWAP2 DIV MUL PUSH1 0x20 ADD PUSH1 0x40 MLOAD SWAP1 DUP2 ADD PUSH1 0x40 MSTORE DUP1 SWAP3 SWAP2 SWAP1 DUP2 DUP2 MSTORE PUSH1 0x20 ADD DUP3 DUP1 SLOAD PUSH2 0x4BE SWAP1 PUSH2 0x142C JUMP JUMPDEST DUP1 ISZERO PUSH2 0x509 JUMPI DUP1 PUSH1 0x1F LT PUSH2 0x4E0 JUMPI PUSH2 0x100 DUP1 DUP4 SLOAD DIV MUL DUP4 MSTORE SWAP2 PUSH1 0x20 ADD SWAP2 PUSH2 0x509 JUMP JUMPDEST DUP3 ADD SWAP2 SWAP1 PUSH0 MSTORE PUSH1 0x20 PUSH0 KECCAK256 SWAP1 JUMPDEST DUP2 SLOAD DUP2 MSTORE SWAP1 PUSH1 0x1 ADD SWAP1 PUSH1 0x20 ADD DUP1 DUP4 GT PUSH2 0x4EC JUMPI DUP3 SWAP1 SUB PUSH1 0x1F AND DUP3 ADD SWAP2 JUMPDEST POP POP POP POP POP DUP2 MSTORE PUSH1 0x20 ADD SWAP1 PUSH1 0x1 ADD SWAP1 PUSH2 0x475 JUMP JUMPDEST POP POP POP POP DUP2 MSTORE PUSH1 0x20 ADD PUSH1 0x4 DUP3 ADD DUP1 SLOAD DUP1 PUSH1 0x20 MUL PUSH1 0x20 ADD PUSH1 0x40 MLOAD SWAP1 DUP2 ADD PUSH1 0x40 MSTORE DUP1 SWAP3 SWAP2 SWAP1 DUP2 DUP2 MSTORE PUSH1 0x20 ADD PUSH0 SWAP1 JUMPDEST DUP3 DUP3 LT ISZERO PUSH2 0x5F1 JUMPI DUP4 DUP3 SWAP1 PUSH0 MSTORE PUSH1 0x20 PUSH0 KECCAK256 ADD DUP1 SLOAD PUSH2 0x566 SWAP1 PUSH2 0x142C JUMP JUMPDEST DUP1 PUSH1 0x1F ADD PUSH1 0x20 DUP1 SWAP2 DIV MUL PUSH1 0x20 ADD PUSH1 0x40 MLOAD SWAP1 DUP2 ADD PUSH1 0x40 MSTORE DUP1 SWAP3 SWAP2 SWAP1 DUP2 DUP2 MSTORE PUSH1 0x20 ADD DUP3 DUP1 SLOAD PUSH2 0x592 SWAP1 PUSH2 0x142C JUMP JUMPDEST DUP1 ISZERO PUSH2 0x5DD JUMPI DUP1 PUSH1 0x1F LT PUSH2 0x5B4 JUMPI PUSH2 0x100 DUP1 DUP4 SLOAD DIV MUL DUP4 MSTORE SWAP2 PUSH1 0x20 ADD SWAP2 PUSH2 0x5DD JUMP JUMPDEST DUP3 ADD SWAP2 SWAP1 PUSH0 MSTORE PUSH1 0x20 PUSH0 KECCAK256 SWAP1 JUMPDEST DUP2 SLOAD DUP2 MSTORE SWAP1 PUSH1 0x1 ADD SWAP1 PUSH1 0x20 ADD DUP1 DUP4 GT PUSH2 0x5C0 JUMPI DUP3 SWAP1 SUB PUSH1 0x1F AND DUP3 ADD SWAP2 JUMPDEST POP POP POP POP POP DUP2 MSTORE PUSH1 0x20 ADD SWAP1 PUSH1 0x1 ADD SWAP1 PUSH2 0x549 JUMP JUMPDEST POP POP POP POP DUP2 MSTORE PUSH1 0x20 ADD PUSH1 0x5 DUP3 ADD DUP1 SLOAD DUP1 PUSH1 0x20 MUL PUSH1 0x20 ADD PUSH1 0x40 MLOAD SWAP1 DUP2 ADD PUSH1 0x40 MSTORE DUP1 SWAP3 SWAP2 SWAP1 DUP2 DUP2 MSTORE PUSH1 0x20 ADD PUSH0 SWAP1 JUMPDEST DUP3 DUP3 LT ISZERO PUSH2 0x6C5 JUMPI DUP4 DUP3 SWAP1 PUSH0 MSTORE PUSH1 0x20 PUSH0 KECCAK256 ADD DUP1 SLOAD PUSH2 0x63A SWAP1 PUSH2 0x142C JUMP JUMPDEST DUP1 PUSH1 0x1F ADD PUSH1 0x20 DUP1 SWAP2 DIV MUL PUSH1 0x20 ADD PUSH1 0x40 MLOAD SWAP1 DUP2 ADD PUSH1 0x40 MSTORE DUP1 SWAP3 SWAP2 SWAP1 DUP2 DUP2 MSTORE PUSH1 0x20 ADD DUP3 DUP1 SLOAD PUSH2 0x666 SWAP1 PUSH2 0x142C JUMP JUMPDEST DUP1 ISZERO PUSH2 0x6B1 JUMPI DUP1 PUSH1 0x1F LT PUSH2 0x688 JUMPI PUSH2 0x100 DUP1 DUP4 SLOAD DIV MUL DUP4 MSTORE SWAP2 PUSH1 0x20 ADD SWAP2 PUSH2 0x6B1 JUMP JUMPDEST DUP3 ADD SWAP2 SWAP1 PUSH0 MSTORE PUSH1 0x20 PUSH0 KECCAK256 SWAP1 JUMPDEST DUP2 SLOAD DUP2 MSTORE SWAP1 PUSH1 0x1 ADD SWAP1 PUSH1 0x20 ADD DUP1 DUP4 GT PUSH2 0x694 JUMPI DUP3 SWAP1 SUB PUSH1 0x1F AND DUP3 ADD SWAP2 JUMPDEST POP POP POP POP POP DUP2 MSTORE PUSH1 0x20 ADD SWAP1 PUSH1 0x1 ADD SWAP1 PUSH2 0x61D JUMP JUMPDEST POP POP POP POP DUP2 MSTORE POP POP SWAP1 POP DUP5 DUP2 PUSH1 0x40 ADD DUP2 SWAP1 MSTORE POP DUP4 DUP2 PUSH1 0x60 ADD DUP2 SWAP1 MSTORE POP DUP3 DUP2 PUSH1 0x80 ADD DUP2 SWAP1 MSTORE POP DUP2 DUP2 PUSH1 0xA0 ADD DUP2 SWAP1 MSTORE POP DUP1 PUSH0 DUP1 CALLER PUSH20 0xFFFFFFFFFFFFFFFFFFFFFFFFFFFFFFFFFFFFFFFF AND PUSH20 0xFFFFFFFFFFFFFFFFFFFFFFFFFFFFFFFFFFFFFFFF AND DUP2 MSTORE PUSH1 0x20 ADD SWAP1 DUP2 MSTORE PUSH1 0x20 ADD PUSH0 KECCAK256 PUSH0 DUP3 ADD MLOAD DUP2 PUSH0 ADD SWAP1 DUP2 PUSH2 0x743 SWAP2 SWAP1 PUSH2 0x15F9 JUMP JUMPDEST POP PUSH1 0x20 DUP3 ADD MLOAD DUP2 PUSH1 0x1 ADD SSTORE PUSH1 0x40 DUP3 ADD MLOAD DUP2 PUSH1 0x2 ADD SWAP1 DUP1 MLOAD SWAP1 PUSH1 0x20 ADD SWAP1 PUSH2 0x76A SWAP3 SWAP2 SWAP1 PUSH2 0xC3B JUMP JUMPDEST POP PUSH1 0x60 DUP3 ADD MLOAD DUP2 PUSH1 0x3 ADD SWAP1 DUP1 MLOAD SWAP1 PUSH1 0x20 ADD SWAP1 PUSH2 0x787 SWAP3 SWAP2 SWAP1 PUSH2 0xC3B JUMP JUMPDEST POP PUSH1 0x80 DUP3 ADD MLOAD DUP2 PUSH1 0x4 ADD SWAP1 DUP1 MLOAD SWAP1 PUSH1 0x20 ADD SWAP1 PUSH2 0x7A4 SWAP3 SWAP2 SWAP1 PUSH2 0xC3B JUMP JUMPDEST POP PUSH1 0xA0 DUP3 ADD MLOAD DUP2 PUSH1 0x5 ADD SWAP1 DUP1 MLOAD SWAP1 PUSH1 0x20 ADD SWAP1 PUSH2 0x7C1 SWAP3 SWAP2 SWAP1 PUSH2 0xC3B JUMP JUMPDEST POP SWAP1 POP POP POP POP POP POP POP JUMP JUMPDEST PUSH1 0x60 PUSH0 PUSH1 0x60 DUP1 PUSH1 0x60 DUP1 PUSH0 DUP1 PUSH0 DUP10 PUSH20 0xFFFFFFFFFFFFFFFFFFFFFFFFFFFFFFFFFFFFFFFF AND PUSH20 0xFFFFFFFFFFFFFFFFFFFFFFFFFFFFFFFFFFFFFFFF AND DUP2 MSTORE PUSH1 0x20 ADD SWAP1 DUP2 MSTORE PUSH1 0x20 ADD PUSH0 KECCAK256 PUSH1 0x40 MLOAD DUP1 PUSH1 0xC0 ADD PUSH1 0x40 MSTORE SWAP1 DUP2 PUSH0 DUP3 ADD DUP1 SLOAD PUSH2 0x82C SWAP1 PUSH2 0x142C JUMP JUMPDEST DUP1 PUSH1 0x1F ADD PUSH1 0x20 DUP1 SWAP2 DIV MUL PUSH1 0x20 ADD PUSH1 0x40 MLOAD SWAP1 DUP2 ADD PUSH1 0x40 MSTORE DUP1 SWAP3 SWAP2 SWAP1 DUP2 DUP2 MSTORE PUSH1 0x20 ADD DUP3 DUP1 SLOAD PUSH2 0x858 SWAP1 PUSH2 0x142C JUMP JUMPDEST DUP1 ISZERO PUSH2 0x8A3 JUMPI DUP1 PUSH1 0x1F LT PUSH2 0x87A JUMPI PUSH2 0x100 DUP1 DUP4 SLOAD DIV MUL DUP4 MSTORE SWAP2 PUSH1 0x20 ADD SWAP2 PUSH2 0x8A3 JUMP JUMPDEST DUP3 ADD SWAP2 SWAP1 PUSH0 MSTORE PUSH1 0x20 PUSH0 KECCAK256 SWAP1 JUMPDEST DUP2 SLOAD DUP2 MSTORE SWAP1 PUSH1 0x1 ADD SWAP1 PUSH1 0x20 ADD DUP1 DUP4 GT PUSH2 0x886 JUMPI DUP3 SWAP1 SUB PUSH1 0x1F AND DUP3 ADD SWAP2 JUMPDEST POP POP POP POP POP DUP2 MSTORE PUSH1 0x20 ADD PUSH1 0x1 DUP3 ADD SLOAD DUP2 MSTORE PUSH1 0x20 ADD PUSH1 0x2 DUP3 ADD DUP1 SLOAD DUP1 PUSH1 0x20 MUL PUSH1 0x20 ADD PUSH1 0x40 MLOAD SWAP1 DUP2 ADD PUSH1 0x40 MSTORE DUP1 SWAP3 SWAP2 SWAP1 DUP2 DUP2 MSTORE PUSH1 0x20 ADD PUSH0 SWAP1 JUMPDEST DUP3 DUP3 LT ISZERO PUSH2 0x982 JUMPI DUP4 DUP3 SWAP1 PUSH0 MSTORE PUSH1 0x20 PUSH0 KECCAK256 ADD DUP1 SLOAD PUSH2 0x8F7 SWAP1 PUSH2 0x142C JUMP JUMPDEST DUP1 PUSH1 0x1F ADD PUSH1 0x20 DUP1 SWAP2 DIV MUL PUSH1 0x20 ADD PUSH1 0x40 MLOAD SWAP1 DUP2 ADD PUSH1 0x40 MSTORE DUP1 SWAP3 SWAP2 SWAP1 DUP2 DUP2 MSTORE PUSH1 0x20 ADD DUP3 DUP1 SLOAD PUSH2 0x923 SWAP1 PUSH2 0x142C JUMP JUMPDEST DUP1 ISZERO PUSH2 0x96E JUMPI DUP1 PUSH1 0x1F LT PUSH2 0x945 JUMPI PUSH2 0x100 DUP1 DUP4 SLOAD DIV MUL DUP4 MSTORE SWAP2 PUSH1 0x20 ADD SWAP2 PUSH2 0x96E JUMP JUMPDEST DUP3 ADD SWAP2 SWAP1 PUSH0 MSTORE PUSH1 0x20 PUSH0 KECCAK256 SWAP1 JUMPDEST DUP2 SLOAD DUP2 MSTORE SWAP1 PUSH1 0x1 ADD SWAP1 PUSH1 0x20 ADD DUP1 DUP4 GT PUSH2 0x951 JUMPI DUP3 SWAP1 SUB PUSH1 0x1F AND DUP3 ADD SWAP2 JUMPDEST POP POP POP POP POP DUP2 MSTORE PUSH1 0x20 ADD SWAP1 PUSH1 0x1 ADD SWAP1 PUSH2 0x8DA JUMP JUMPDEST POP POP POP POP DUP2 MSTORE PUSH1 0x20 ADD PUSH1 0x3 DUP3 ADD DUP1 SLOAD DUP1 PUSH1 0x20 MUL PUSH1 0x20 ADD PUSH1 0x40 MLOAD SWAP1 DUP2 ADD PUSH1 0x40 MSTORE DUP1 SWAP3 SWAP2 SWAP1 DUP2 DUP2 MSTORE PUSH1 0x20 ADD PUSH0 SWAP1 JUMPDEST DUP3 DUP3 LT ISZERO PUSH2 0xA56 JUMPI DUP4 DUP3 SWAP1 PUSH0 MSTORE PUSH1 0x20 PUSH0 KECCAK256 ADD DUP1 SLOAD PUSH2 0x9CB SWAP1 PUSH2 0x142C JUMP JUMPDEST DUP1 PUSH1 0x1F ADD PUSH1 0x20 DUP1 SWAP2 DIV MUL PUSH1 0x20 ADD PUSH1 0x40 MLOAD SWAP1 DUP2 ADD PUSH1 0x40 MSTORE DUP1 SWAP3 SWAP2 SWAP1 DUP2 DUP2 MSTORE PUSH1 0x20 ADD DUP3 DUP1 SLOAD PUSH2 0x9F7 SWAP1 PUSH2 0x142C JUMP JUMPDEST DUP1 ISZERO PUSH2 0xA42 JUMPI DUP1 PUSH1 0x1F LT PUSH2 0xA19 JUMPI PUSH2 0x100 DUP1 DUP4 SLOAD DIV MUL DUP4 MSTORE SWAP2 PUSH1 0x20 ADD SWAP2 PUSH2 0xA42 JUMP JUMPDEST DUP3 ADD SWAP2 SWAP1 PUSH0 MSTORE PUSH1 0x20 PUSH0 KECCAK256 SWAP1 JUMPDEST DUP2 SLOAD DUP2 MSTORE SWAP1 PUSH1 0x1 ADD SWAP1 PUSH1 0x20 ADD DUP1 DUP4 GT PUSH2 0xA25 JUMPI DUP3 SWAP1 SUB PUSH1 0x1F AND DUP3 ADD SWAP2 JUMPDEST POP POP POP POP POP DUP2 MSTORE PUSH1 0x20 ADD SWAP1 PUSH1 0x1 ADD SWAP1 PUSH2 0x9AE JUMP JUMPDEST POP POP POP POP DUP2 MSTORE PUSH1 0x20 ADD PUSH1 0x4 DUP3 ADD DUP1 SLOAD DUP1 PUSH1 0x20 MUL PUSH1 0x20 ADD PUSH1 0x40 MLOAD SWAP1 DUP2 ADD PUSH1 0x40 MSTORE DUP1 SWAP3 SWAP2 SWAP1 DUP2 DUP2 MSTORE PUSH1 0x20 ADD PUSH0 SWAP1 JUMPDEST DUP3 DUP3 LT ISZERO PUSH2 0xB2A JUMPI DUP4 DUP3 SWAP1 PUSH0 MSTORE PUSH1 0x20 PUSH0 KECCAK256 ADD DUP1 SLOAD PUSH2 0xA9F SWAP1 PUSH2 0x142C JUMP JUMPDEST DUP1 PUSH1 0x1F ADD PUSH1 0x20 DUP1 SWAP2 DIV MUL PUSH1 0x20 ADD PUSH1 0x40 MLOAD SWAP1 DUP2 ADD PUSH1 0x40 MSTORE DUP1 SWAP3 SWAP2 SWAP1 DUP2 DUP2 MSTORE PUSH1 0x20 ADD DUP3 DUP1 SLOAD PUSH2 0xACB SWAP1 PUSH2 0x142C JUMP JUMPDEST DUP1 ISZERO PUSH2 0xB16 JUMPI DUP1 PUSH1 0x1F LT PUSH2 0xAED JUMPI PUSH2 0x100 DUP1 DUP4 SLOAD DIV MUL DUP4 MSTORE SWAP2 PUSH1 0x20 ADD SWAP2 PUSH2 0xB16 JUMP JUMPDEST DUP3 ADD SWAP2 SWAP1 PUSH0 MSTORE PUSH1 0x20 PUSH0 KECCAK256 SWAP1 JUMPDEST DUP2 SLOAD DUP2 MSTORE SWAP1 PUSH1 0x1 ADD SWAP1 PUSH1 0x20 ADD DUP1 DUP4 GT PUSH2 0xAF9 JUMPI DUP3 SWAP1 SUB PUSH1 0x1F AND DUP3 ADD SWAP2 JUMPDEST POP POP POP POP POP DUP2 MSTORE PUSH1 0x20 ADD SWAP1 PUSH1 0x1 ADD SWAP1 PUSH2 0xA82 JUMP JUMPDEST POP POP POP POP DUP2 MSTORE PUSH1 0x20 ADD PUSH1 0x5 DUP3 ADD DUP1 SLOAD DUP1 PUSH1 0x20 MUL PUSH1 0x20 ADD PUSH1 0x40 MLOAD SWAP1 DUP2 ADD PUSH1 0x40 MSTORE DUP1 SWAP3 SWAP2 SWAP1 DUP2 DUP2 MSTORE PUSH1 0x20 ADD PUSH0 SWAP1 JUMPDEST DUP3 DUP3 LT ISZERO PUSH2 0xBFE JUMPI DUP4 DUP3 SWAP1 PUSH0 MSTORE PUSH1 0x20 PUSH0 KECCAK256 ADD DUP1 SLOAD PUSH2 0xB73 SWAP1 PUSH2 0x142C JUMP JUMPDEST DUP1 PUSH1 0x1F ADD PUSH1 0x20 DUP1 SWAP2 DIV MUL PUSH1 0x20 ADD PUSH1 0x40 MLOAD SWAP1 DUP2 ADD PUSH1 0x40 MSTORE DUP1 SWAP3 SWAP2 SWAP1 DUP2 DUP2 MSTORE PUSH1 0x20 ADD DUP3 DUP1 SLOAD PUSH2 0xB9F SWAP1 PUSH2 0x142C JUMP JUMPDEST DUP1 ISZERO PUSH2 0xBEA JUMPI DUP1 PUSH1 0x1F LT PUSH2 0xBC1 JUMPI PUSH2 0x100 DUP1 DUP4 SLOAD DIV MUL DUP4 MSTORE SWAP2 PUSH1 0x20 ADD SWAP2 PUSH2 0xBEA JUMP JUMPDEST DUP3 ADD SWAP2 SWAP1 PUSH0 MSTORE PUSH1 0x20 PUSH0 KECCAK256 SWAP1 JUMPDEST DUP2 SLOAD DUP2 MSTORE SWAP1 PUSH1 0x1 ADD SWAP1 PUSH1 0x20 ADD DUP1 DUP4 GT PUSH2 0xBCD JUMPI DUP3 SWAP1 SUB PUSH1 0x1F AND DUP3 ADD SWAP2 JUMPDEST POP POP POP POP POP DUP2 MSTORE PUSH1 0x20 ADD SWAP1 PUSH1 0x1 ADD SWAP1 PUSH2 0xB56 JUMP JUMPDEST POP POP POP POP DUP2 MSTORE POP POP SWAP1 POP DUP1 PUSH0 ADD MLOAD DUP2 PUSH1 0x20 ADD MLOAD DUP3 PUSH1 0x40 ADD MLOAD DUP4 PUSH1 0x60 ADD MLOAD DUP5 PUSH1 0x80 ADD MLOAD DUP6 PUSH1 0xA0 ADD MLOAD SWAP7 POP SWAP7 POP SWAP7 POP SWAP7 POP SWAP7 POP SWAP7 POP POP SWAP2 SWAP4 SWAP6 POP SWAP2 SWAP4 SWAP6 JUMP JUMPDEST DUP3 DUP1 SLOAD DUP3 DUP3 SSTORE SWAP1 PUSH0 MSTORE PUSH1 0x20 PUSH0 KECCAK256 SWAP1 DUP2 ADD SWAP3 DUP3 ISZERO PUSH2 0xC81 JUMPI SWAP2 PUSH1 0x20 MUL DUP3 ADD JUMPDEST DUP3 DUP2 GT ISZERO PUSH2 0xC80 JUMPI DUP3 MLOAD DUP3 SWAP1 DUP2 PUSH2 0xC70 SWAP2 SWAP1 PUSH2 0x15F9 JUMP JUMPDEST POP SWAP2 PUSH1 0x20 ADD SWAP2 SWAP1 PUSH1 0x1 ADD SWAP1 PUSH2 0xC59 JUMP JUMPDEST JUMPDEST POP SWAP1 POP PUSH2 0xC8E SWAP2 SWAP1 PUSH2 0xC92 JUMP JUMPDEST POP SWAP1 JUMP JUMPDEST JUMPDEST DUP1 DUP3 GT ISZERO PUSH2 0xCB1 JUMPI PUSH0 DUP2 DUP2 PUSH2 0xCA8 SWAP2 SWAP1 PUSH2 0xCB5 JUMP JUMPDEST POP PUSH1 0x1 ADD PUSH2 0xC93 JUMP JUMPDEST POP SWAP1 JUMP JUMPDEST POP DUP1 SLOAD PUSH2 0xCC1 SWAP1 PUSH2 0x142C JUMP JUMPDEST PUSH0 DUP3 SSTORE DUP1 PUSH1 0x1F LT PUSH2 0xCD2 JUMPI POP PUSH2 0xCEF JUMP JUMPDEST PUSH1 0x1F ADD PUSH1 0x20 SWAP1 DIV SWAP1 PUSH0 MSTORE PUSH1 0x20 PUSH0 KECCAK256 SWAP1 DUP2 ADD SWAP1 PUSH2 0xCEE SWAP2 SWAP1 PUSH2 0xCF2 JUMP JUMPDEST JUMPDEST POP JUMP JUMPDEST JUMPDEST DUP1 DUP3 GT ISZERO PUSH2 0xD09 JUMPI PUSH0 DUP2 PUSH0 SWAP1 SSTORE POP PUSH1 0x1 ADD PUSH2 0xCF3 JUMP JUMPDEST POP SWAP1 JUMP JUMPDEST PUSH0 PUSH1 0x40 MLOAD SWAP1 POP SWAP1 JUMP JUMPDEST PUSH0 DUP1 REVERT JUMPDEST PUSH0 DUP1 REVERT JUMPDEST PUSH0 PUSH20 0xFFFFFFFFFFFFFFFFFFFFFFFFFFFFFFFFFFFFFFFF DUP3 AND SWAP1 POP SWAP2 SWAP1 POP JUMP JUMPDEST PUSH0 PUSH2 0xD47 DUP3 PUSH2 0xD1E JUMP JUMPDEST SWAP1 POP SWAP2 SWAP1 POP JUMP JUMPDEST PUSH2 0xD57 DUP2 PUSH2 0xD3D JUMP JUMPDEST DUP2 EQ PUSH2 0xD61 JUMPI PUSH0 DUP1 REVERT JUMPDEST POP JUMP JUMPDEST PUSH0 DUP2 CALLDATALOAD SWAP1 POP PUSH2 0xD72 DUP2 PUSH2 0xD4E JUMP JUMPDEST SWAP3 SWAP2 POP POP JUMP JUMPDEST PUSH0 PUSH1 0x20 DUP3 DUP5 SUB SLT ISZERO PUSH2 0xD8D JUMPI PUSH2 0xD8C PUSH2 0xD16 JUMP JUMPDEST JUMPDEST PUSH0 PUSH2 0xD9A DUP5 DUP3 DUP6 ADD PUSH2 0xD64 JUMP JUMPDEST SWAP2 POP POP SWAP3 SWAP2 POP POP JUMP JUMPDEST PUSH0 DUP2 MLOAD SWAP1 POP SWAP2 SWAP1 POP JUMP JUMPDEST PUSH0 DUP3 DUP3 MSTORE PUSH1 0x20 DUP3 ADD SWAP1 POP SWAP3 SWAP2 POP POP JUMP JUMPDEST DUP3 DUP2 DUP4 MCOPY PUSH0 DUP4 DUP4 ADD MSTORE POP POP POP JUMP JUMPDEST PUSH0 PUSH1 0x1F NOT PUSH1 0x1F DUP4 ADD AND SWAP1 POP SWAP2 SWAP1 POP JUMP JUMPDEST PUSH0 PUSH2 0xDE5 DUP3 PUSH2 0xDA3 JUMP JUMPDEST PUSH2 0xDEF DUP2 DUP6 PUSH2 0xDAD JUMP JUMPDEST SWAP4 POP PUSH2 0xDFF DUP2 DUP6 PUSH1 0x20 DUP7 ADD PUSH2 0xDBD JUMP JUMPDEST PUSH2 0xE08 DUP2 PUSH2 0xDCB JUMP JUMPDEST DUP5 ADD SWAP2 POP POP SWAP3 SWAP2 POP POP JUMP JUMPDEST PUSH0 DUP2 SWAP1 POP SWAP2 SWAP1 POP JUMP JUMPDEST PUSH2 0xE25 DUP2 PUSH2 0xE13 JUMP JUMPDEST DUP3 MSTORE POP POP JUMP JUMPDEST PUSH0 PUSH1 0x40 DUP3 ADD SWAP1 POP DUP2 DUP2 SUB PUSH0 DUP4 ADD MSTORE PUSH2 0xE43 DUP2 DUP6 PUSH2 0xDDB JUMP JUMPDEST SWAP1 POP PUSH2 0xE52 PUSH1 0x20 DUP4 ADD DUP5 PUSH2 0xE1C JUMP JUMPDEST SWAP4 SWAP3 POP POP POP JUMP JUMPDEST PUSH0 DUP1 REVERT JUMPDEST PUSH0 DUP1 REVERT JUMPDEST PUSH32 0x4E487B7100000000000000000000000000000000000000000000000000000000 PUSH0 MSTORE PUSH1 0x41 PUSH1 0x4 MSTORE PUSH1 0x24 PUSH0 REVERT JUMPDEST PUSH2 0xE97 DUP3 PUSH2 0xDCB JUMP JUMPDEST DUP2 ADD DUP2 DUP2 LT PUSH8 0xFFFFFFFFFFFFFFFF DUP3 GT OR ISZERO PUSH2 0xEB6 JUMPI PUSH2 0xEB5 PUSH2 0xE61 JUMP JUMPDEST JUMPDEST DUP1 PUSH1 0x40 MSTORE POP POP POP JUMP JUMPDEST PUSH0 PUSH2 0xEC8 PUSH2 0xD0D JUMP JUMPDEST SWAP1 POP PUSH2 0xED4 DUP3 DUP3 PUSH2 0xE8E JUMP JUMPDEST SWAP2 SWAP1 POP JUMP JUMPDEST PUSH0 PUSH8 0xFFFFFFFFFFFFFFFF DUP3 GT ISZERO PUSH2 0xEF3 JUMPI PUSH2 0xEF2 PUSH2 0xE61 JUMP JUMPDEST JUMPDEST PUSH2 0xEFC DUP3 PUSH2 0xDCB JUMP JUMPDEST SWAP1 POP PUSH1 0x20 DUP2 ADD SWAP1 POP SWAP2 SWAP1 POP JUMP JUMPDEST DUP3 DUP2 DUP4 CALLDATACOPY PUSH0 DUP4 DUP4 ADD MSTORE POP POP POP JUMP JUMPDEST PUSH0 PUSH2 0xF29 PUSH2 0xF24 DUP5 PUSH2 0xED9 JUMP JUMPDEST PUSH2 0xEBF JUMP JUMPDEST SWAP1 POP DUP3 DUP2 MSTORE PUSH1 0x20 DUP2 ADD DUP5 DUP5 DUP5 ADD GT ISZERO PUSH2 0xF45 JUMPI PUSH2 0xF44 PUSH2 0xE5D JUMP JUMPDEST JUMPDEST PUSH2 0xF50 DUP5 DUP3 DUP6 PUSH2 0xF09 JUMP JUMPDEST POP SWAP4 SWAP3 POP POP POP JUMP JUMPDEST PUSH0 DUP3 PUSH1 0x1F DUP4 ADD SLT PUSH2 0xF6C JUMPI PUSH2 0xF6B PUSH2 0xE59 JUMP JUMPDEST JUMPDEST DUP2 CALLDATALOAD PUSH2 0xF7C DUP5 DUP3 PUSH1 0x20 DUP7 ADD PUSH2 0xF17 JUMP JUMPDEST SWAP2 POP POP SWAP3 SWAP2 POP POP JUMP JUMPDEST PUSH2 0xF8E DUP2 PUSH2 0xE13 JUMP JUMPDEST DUP2 EQ PUSH2 0xF98 JUMPI PUSH0 DUP1 REVERT JUMPDEST POP JUMP JUMPDEST PUSH0 DUP2 CALLDATALOAD SWAP1 POP PUSH2 0xFA9 DUP2 PUSH2 0xF85 JUMP JUMPDEST SWAP3 SWAP2 POP POP JUMP JUMPDEST PUSH0 PUSH8 0xFFFFFFFFFFFFFFFF DUP3 GT ISZERO PUSH2 0xFC9 JUMPI PUSH2 0xFC8 PUSH2 0xE61 JUMP JUMPDEST JUMPDEST PUSH1 0x20 DUP3 MUL SWAP1 POP PUSH1 0x20 DUP2 ADD SWAP1 POP SWAP2 SWAP1 POP JUMP JUMPDEST PUSH0 DUP1 REVERT JUMPDEST PUSH0 PUSH2 0xFF0 PUSH2 0xFEB DUP5 PUSH2 0xFAF JUMP JUMPDEST PUSH2 0xEBF JUMP JUMPDEST SWAP1 POP DUP1 DUP4 DUP3 MSTORE PUSH1 0x20 DUP3 ADD SWAP1 POP PUSH1 0x20 DUP5 MUL DUP4 ADD DUP6 DUP2 GT ISZERO PUSH2 0x1013 JUMPI PUSH2 0x1012 PUSH2 0xFDA JUMP JUMPDEST JUMPDEST DUP4 JUMPDEST DUP2 DUP2 LT ISZERO PUSH2 0x105A JUMPI DUP1 CALLDATALOAD PUSH8 0xFFFFFFFFFFFFFFFF DUP2 GT ISZERO PUSH2 0x1038 JUMPI PUSH2 0x1037 PUSH2 0xE59 JUMP JUMPDEST JUMPDEST DUP1 DUP7 ADD PUSH2 0x1045 DUP10 DUP3 PUSH2 0xF58 JUMP JUMPDEST DUP6 MSTORE PUSH1 0x20 DUP6 ADD SWAP5 POP POP POP PUSH1 0x20 DUP2 ADD SWAP1 POP PUSH2 0x1015 JUMP JUMPDEST POP POP POP SWAP4 SWAP3 POP POP POP JUMP JUMPDEST PUSH0 DUP3 PUSH1 0x1F DUP4 ADD SLT PUSH2 0x1078 JUMPI PUSH2 0x1077 PUSH2 0xE59 JUMP JUMPDEST JUMPDEST DUP2 CALLDATALOAD PUSH2 0x1088 DUP5 DUP3 PUSH1 0x20 DUP7 ADD PUSH2 0xFDE JUMP JUMPDEST SWAP2 POP POP SWAP3 SWAP2 POP POP JUMP JUMPDEST PUSH0 DUP1 PUSH0 DUP1 PUSH0 DUP1 PUSH1 0xC0 DUP8 DUP10 SUB SLT ISZERO PUSH2 0x10AB JUMPI PUSH2 0x10AA PUSH2 0xD16 JUMP JUMPDEST JUMPDEST PUSH0 DUP8 ADD CALLDATALOAD PUSH8 0xFFFFFFFFFFFFFFFF DUP2 GT ISZERO PUSH2 0x10C8 JUMPI PUSH2 0x10C7 PUSH2 0xD1A JUMP JUMPDEST JUMPDEST PUSH2 0x10D4 DUP10 DUP3 DUP11 ADD PUSH2 0xF58 JUMP JUMPDEST SWAP7 POP POP PUSH1 0x20 PUSH2 0x10E5 DUP10 DUP3 DUP11 ADD PUSH2 0xF9B JUMP JUMPDEST SWAP6 POP POP PUSH1 0x40 DUP8 ADD CALLDATALOAD PUSH8 0xFFFFFFFFFFFFFFFF DUP2 GT ISZERO PUSH2 0x1106 JUMPI PUSH2 0x1105 PUSH2 0xD1A JUMP JUMPDEST JUMPDEST PUSH2 0x1112 DUP10 DUP3 DUP11 ADD PUSH2 0x1064 JUMP JUMPDEST SWAP5 POP POP PUSH1 0x60 DUP8 ADD CALLDATALOAD PUSH8 0xFFFFFFFFFFFFFFFF DUP2 GT ISZERO PUSH2 0x1133 JUMPI PUSH2 0x1132 PUSH2 0xD1A JUMP JUMPDEST JUMPDEST PUSH2 0x113F DUP10 DUP3 DUP11 ADD PUSH2 0x1064 JUMP JUMPDEST SWAP4 POP POP PUSH1 0x80 DUP8 ADD CALLDATALOAD PUSH8 0xFFFFFFFFFFFFFFFF DUP2 GT ISZERO PUSH2 0x1160 JUMPI PUSH2 0x115F PUSH2 0xD1A JUMP JUMPDEST JUMPDEST PUSH2 0x116C DUP10 DUP3 DUP11 ADD PUSH2 0x1064 JUMP JUMPDEST SWAP3 POP POP PUSH1 0xA0 DUP8 ADD CALLDATALOAD PUSH8 0xFFFFFFFFFFFFFFFF DUP2 GT ISZERO PUSH2 0x118D JUMPI PUSH2 0x118C PUSH2 0xD1A JUMP JUMPDEST JUMPDEST PUSH2 0x1199 DUP10 DUP3 DUP11 ADD PUSH2 0x1064 JUMP JUMPDEST SWAP2 POP POP SWAP3 SWAP6 POP SWAP3 SWAP6 POP SWAP3 SWAP6 JUMP JUMPDEST PUSH0 DUP1 PUSH0 DUP1 PUSH1 0x80 DUP6 DUP8 SUB SLT ISZERO PUSH2 0x11BE JUMPI PUSH2 0x11BD PUSH2 0xD16 JUMP JUMPDEST JUMPDEST PUSH0 DUP6 ADD CALLDATALOAD PUSH8 0xFFFFFFFFFFFFFFFF DUP2 GT ISZERO PUSH2 0x11DB JUMPI PUSH2 0x11DA PUSH2 0xD1A JUMP JUMPDEST JUMPDEST PUSH2 0x11E7 DUP8 DUP3 DUP9 ADD PUSH2 0x1064 JUMP JUMPDEST SWAP5 POP POP PUSH1 0x20 DUP6 ADD CALLDATALOAD PUSH8 0xFFFFFFFFFFFFFFFF DUP2 GT ISZERO PUSH2 0x1208 JUMPI PUSH2 0x1207 PUSH2 0xD1A JUMP JUMPDEST JUMPDEST PUSH2 0x1214 DUP8 DUP3 DUP9 ADD PUSH2 0x1064 JUMP JUMPDEST SWAP4 POP POP PUSH1 0x40 DUP6 ADD CALLDATALOAD PUSH8 0xFFFFFFFFFFFFFFFF DUP2 GT ISZERO PUSH2 0x1235 JUMPI PUSH2 0x1234 PUSH2 0xD1A JUMP JUMPDEST JUMPDEST PUSH2 0x1241 DUP8 DUP3 DUP9 ADD PUSH2 0x1064 JUMP JUMPDEST SWAP3 POP POP PUSH1 0x60 DUP6 ADD CALLDATALOAD PUSH8 0xFFFFFFFFFFFFFFFF DUP2 GT ISZERO PUSH2 0x1262 JUMPI PUSH2 0x1261 PUSH2 0xD1A JUMP JUMPDEST JUMPDEST PUSH2 0x126E DUP8 DUP3 DUP9 ADD PUSH2 0x1064 JUMP JUMPDEST SWAP2 POP POP SWAP3 SWAP6 SWAP2 SWAP5 POP SWAP3 POP JUMP JUMPDEST PUSH0 DUP2 MLOAD SWAP1 POP SWAP2 SWAP1 POP JUMP JUMPDEST PUSH0 DUP3 DUP3 MSTORE PUSH1 0x20 DUP3 ADD SWAP1 POP SWAP3 SWAP2 POP POP JUMP JUMPDEST PUSH0 DUP2 SWAP1 POP PUSH1 0x20 DUP3 ADD SWAP1 POP SWAP2 SWAP1 POP JUMP JUMPDEST PUSH0 DUP3 DUP3 MSTORE PUSH1 0x20 DUP3 ADD SWAP1 POP SWAP3 SWAP2 POP POP JUMP JUMPDEST PUSH0 PUSH2 0x12BD DUP3 PUSH2 0xDA3 JUMP JUMPDEST PUSH2 0x12C7 DUP2 DUP6 PUSH2 0x12A3 JUMP JUMPDEST SWAP4 POP PUSH2 0x12D7 DUP2 DUP6 PUSH1 0x20 DUP7 ADD PUSH2 0xDBD JUMP JUMPDEST PUSH2 0x12E0 DUP2 PUSH2 0xDCB JUMP JUMPDEST DUP5 ADD SWAP2 POP POP SWAP3 SWAP2 POP POP JUMP JUMPDEST PUSH0 PUSH2 0x12F6 DUP4 DUP4 PUSH2 0x12B3 JUMP JUMPDEST SWAP1 POP SWAP3 SWAP2 POP POP JUMP JUMPDEST PUSH0 PUSH1 0x20 DUP3 ADD SWAP1 POP SWAP2 SWAP1 POP JUMP JUMPDEST PUSH0 PUSH2 0x1314 DUP3 PUSH2 0x127A JUMP JUMPDEST PUSH2 0x131E DUP2 DUP6 PUSH2 0x1284 JUMP JUMPDEST SWAP4 POP DUP4 PUSH1 0x20 DUP3 MUL DUP6 ADD PUSH2 0x1330 DUP6 PUSH2 0x1294 JUMP JUMPDEST DUP1 PUSH0 JUMPDEST DUP6 DUP2 LT ISZERO PUSH2 0x136B JUMPI DUP5 DUP5 SUB DUP10 MSTORE DUP2 MLOAD PUSH2 0x134C DUP6 DUP3 PUSH2 0x12EB JUMP JUMPDEST SWAP5 POP PUSH2 0x1357 DUP4 PUSH2 0x12FE JUMP JUMPDEST SWAP3 POP PUSH1 0x20 DUP11 ADD SWAP10 POP POP PUSH1 0x1 DUP2 ADD SWAP1 POP PUSH2 0x1333 JUMP JUMPDEST POP DUP3 SWAP8 POP DUP8 SWAP6 POP POP POP POP POP POP SWAP3 SWAP2 POP POP JUMP JUMPDEST PUSH0 PUSH1 0xC0 DUP3 ADD SWAP1 POP DUP2 DUP2 SUB PUSH0 DUP4 ADD MSTORE PUSH2 0x1395 DUP2 DUP10 PUSH2 0xDDB JUMP JUMPDEST SWAP1 POP PUSH2 0x13A4 PUSH1 0x20 DUP4 ADD DUP9 PUSH2 0xE1C JUMP JUMPDEST DUP2 DUP2 SUB PUSH1 0x40 DUP4 ADD MSTORE PUSH2 0x13B6 DUP2 DUP8 PUSH2 0x130A JUMP JUMPDEST SWAP1 POP DUP2 DUP2 SUB PUSH1 0x60 DUP4 ADD MSTORE PUSH2 0x13CA DUP2 DUP7 PUSH2 0x130A JUMP JUMPDEST SWAP1 POP DUP2 DUP2 SUB PUSH1 0x80 DUP4 ADD MSTORE PUSH2 0x13DE DUP2 DUP6 PUSH2 0x130A JUMP JUMPDEST SWAP1 POP DUP2 DUP2 SUB PUSH1 0xA0 DUP4 ADD MSTORE PUSH2 0x13F2 DUP2 DUP5 PUSH2 0x130A JUMP JUMPDEST SWAP1 POP SWAP8 SWAP7 POP POP POP POP POP POP POP JUMP JUMPDEST PUSH32 0x4E487B7100000000000000000000000000000000000000000000000000000000 PUSH0 MSTORE PUSH1 0x22 PUSH1 0x4 MSTORE PUSH1 0x24 PUSH0 REVERT JUMPDEST PUSH0 PUSH1 0x2 DUP3 DIV SWAP1 POP PUSH1 0x1 DUP3 AND DUP1 PUSH2 0x1443 JUMPI PUSH1 0x7F DUP3 AND SWAP2 POP JUMPDEST PUSH1 0x20 DUP3 LT DUP2 SUB PUSH2 0x1456 JUMPI PUSH2 0x1455 PUSH2 0x13FF JUMP JUMPDEST JUMPDEST POP SWAP2 SWAP1 POP JUMP JUMPDEST PUSH0 DUP2 SWAP1 POP DUP2 PUSH0 MSTORE PUSH1 0x20 PUSH0 KECCAK256 SWAP1 POP SWAP2 SWAP1 POP JUMP JUMPDEST PUSH0 PUSH1 0x20 PUSH1 0x1F DUP4 ADD DIV SWAP1 POP SWAP2 SWAP1 POP JUMP JUMPDEST PUSH0 DUP3 DUP3 SHL SWAP1 POP SWAP3 SWAP2 POP POP JUMP JUMPDEST PUSH0 PUSH1 0x8 DUP4 MUL PUSH2 0x14B8 PUSH32 0xFFFFFFFFFFFFFFFFFFFFFFFFFFFFFFFFFFFFFFFFFFFFFFFFFFFFFFFFFFFFFFFF DUP3 PUSH2 0x147D JUMP JUMPDEST PUSH2 0x14C2 DUP7 DUP4 PUSH2 0x147D JUMP JUMPDEST SWAP6 POP DUP1 NOT DUP5 AND SWAP4 POP DUP1 DUP7 AND DUP5 OR SWAP3 POP POP POP SWAP4 SWAP3 POP POP POP JUMP JUMPDEST PUSH0 DUP2 SWAP1 POP SWAP2 SWAP1 POP JUMP JUMPDEST PUSH0 PUSH2 0x14FD PUSH2 0x14F8 PUSH2 0x14F3 DUP5 PUSH2 0xE13 JUMP JUMPDEST PUSH2 0x14DA JUMP JUMPDEST PUSH2 0xE13 JUMP JUMPDEST SWAP1 POP SWAP2 SWAP1 POP JUMP JUMPDEST PUSH0 DUP2 SWAP1 POP SWAP2 SWAP1 POP JUMP JUMPDEST PUSH2 0x1516 DUP4 PUSH2 0x14E3 JUMP JUMPDEST PUSH2 0x152A PUSH2 0x1522 DUP3 PUSH2 0x1504 JUMP JUMPDEST DUP5 DUP5 SLOAD PUSH2 0x1489 JUMP JUMPDEST DUP3 SSTORE POP POP POP POP JUMP JUMPDEST PUSH0 SWAP1 JUMP JUMPDEST PUSH2 0x153E PUSH2 0x1532 JUMP JUMPDEST PUSH2 0x1549 DUP2 DUP5 DUP5 PUSH2 0x150D JUMP JUMPDEST POP POP POP JUMP JUMPDEST JUMPDEST DUP2 DUP2 LT ISZERO PUSH2 0x156C JUMPI PUSH2 0x1561 PUSH0 DUP3 PUSH2 0x1536 JUMP JUMPDEST PUSH1 0x1 DUP2 ADD SWAP1 POP PUSH2 0x154F JUMP JUMPDEST POP POP JUMP JUMPDEST PUSH1 0x1F DUP3 GT ISZERO PUSH2 0x15B1 JUMPI PUSH2 0x1582 DUP2 PUSH2 0x145C JUMP JUMPDEST PUSH2 0x158B DUP5 PUSH2 0x146E JUMP JUMPDEST DUP2 ADD PUSH1 0x20 DUP6 LT ISZERO PUSH2 0x159A JUMPI DUP2 SWAP1 POP JUMPDEST PUSH2 0x15AE PUSH2 0x15A6 DUP6 PUSH2 0x146E JUMP JUMPDEST DUP4 ADD DUP3 PUSH2 0x154E JUMP JUMPDEST POP POP JUMPDEST POP POP POP JUMP JUMPDEST PUSH0 DUP3 DUP3 SHR SWAP1 POP SWAP3 SWAP2 POP POP JUMP JUMPDEST PUSH0 PUSH2 0x15D1 PUSH0 NOT DUP5 PUSH1 0x8 MUL PUSH2 0x15B6 JUMP JUMPDEST NOT DUP1 DUP4 AND SWAP2 POP POP SWAP3 SWAP2 POP POP JUMP JUMPDEST PUSH0 PUSH2 0x15E9 DUP4 DUP4 PUSH2 0x15C2 JUMP JUMPDEST SWAP2 POP DUP3 PUSH1 0x2 MUL DUP3 OR SWAP1 POP SWAP3 SWAP2 POP POP JUMP JUMPDEST PUSH2 0x1602 DUP3 PUSH2 0xDA3 JUMP JUMPDEST PUSH8 0xFFFFFFFFFFFFFFFF DUP2 GT ISZERO PUSH2 0x161B JUMPI PUSH2 0x161A PUSH2 0xE61 JUMP JUMPDEST JUMPDEST PUSH2 0x1625 DUP3 SLOAD PUSH2 0x142C JUMP JUMPDEST PUSH2 0x1630 DUP3 DUP3 DUP6 PUSH2 0x1570 JUMP JUMPDEST PUSH0 PUSH1 0x20 SWAP1 POP PUSH1 0x1F DUP4 GT PUSH1 0x1 DUP2 EQ PUSH2 0x1661 JUMPI PUSH0 DUP5 ISZERO PUSH2 0x164F JUMPI DUP3 DUP8 ADD MLOAD SWAP1 POP JUMPDEST PUSH2 0x1659 DUP6 DUP3 PUSH2 0x15DE JUMP JUMPDEST DUP7 SSTORE POP PUSH2 0x16C0 JUMP JUMPDEST PUSH1 0x1F NOT DUP5 AND PUSH2 0x166F DUP7 PUSH2 0x145C JUMP JUMPDEST PUSH0 JUMPDEST DUP3 DUP2 LT ISZERO PUSH2 0x1696 JUMPI DUP5 DUP10 ADD MLOAD DUP3 SSTORE PUSH1 0x1 DUP3 ADD SWAP2 POP PUSH1 0x20 DUP6 ADD SWAP5 POP PUSH1 0x20 DUP2 ADD SWAP1 POP PUSH2 0x1671 JUMP JUMPDEST DUP7 DUP4 LT ISZERO PUSH2 0x16B3 JUMPI DUP5 DUP10 ADD MLOAD PUSH2 0x16AF PUSH1 0x1F DUP10 AND DUP3 PUSH2 0x15C2 JUMP JUMPDEST DUP4 SSTORE POP JUMPDEST PUSH1 0x1 PUSH1 0x2 DUP9 MUL ADD DUP9 SSTORE POP POP POP JUMPDEST POP POP POP POP POP POP JUMP INVALID LOG2 PUSH5 0x6970667358 0x22 SLT KECCAK256 DELEGATECALL LOG0 MOD ORIGIN AND CHAINID 0xDE 0x28 0xB3 MSIZE POP DUP9 DIV 0x28 PUSH20 0xCE2FE6B3441C86D49BA9EBF1A03040D14264736F PUSH13 0x634300081A0033000000000000 "
		},
		"gasEstimates": {
			"creation": {
				"codeDepositCost": "1177200",
				"executionCost": "1219",
				"totalCost": "1178419"
			},
			"external": {
				"addPatient(string,uint256,string[],string[],string[],string[])": "infinite",
				"getPatient(address)": "infinite",
				"patients(address)": "infinite",
				"updatePatient(string[],string[],string[],string[])": "infinite"
			}
		},
		"methodIdentifiers": {
			"addPatient(string,uint256,string[],string[],string[],string[])": "1dae7dfd",
			"getPatient(address)": "b5368e20",
			"patients(address)": "0869cfbc",
			"updatePatient(string[],string[],string[],string[])": "b152829b"
		}
	},
	"abi": [
		{
			"inputs": [
				{
					"internalType": "string",
					"name": "_name",
					"type": "string"
				},
				{
					"internalType": "uint256",
					"name": "_age",
					"type": "uint256"
				},
				{
					"internalType": "string[]",
					"name": "_conditions",
					"type": "string[]"
				},
				{
					"internalType": "string[]",
					"name": "_allergies",
					"type": "string[]"
				},
				{
					"internalType": "string[]",
					"name": "_medications",
					"type": "string[]"
				},
				{
					"internalType": "string[]",
					"name": "_procedures",
					"type": "string[]"
				}
			],
			"name": "addPatient",
			"outputs": [],
			"stateMutability": "nonpayable",
			"type": "function"
		},
		{
			"inputs": [
				{
					"internalType": "address",
					"name": "_patientAddress",
					"type": "address"
				}
			],
			"name": "getPatient",
			"outputs": [
				{
					"internalType": "string",
					"name": "",
					"type": "string"
				},
				{
					"internalType": "uint256",
					"name": "",
					"type": "uint256"
				},
				{
					"internalType": "string[]",
					"name": "",
					"type": "string[]"
				},
				{
					"internalType": "string[]",
					"name": "",
					"type": "string[]"
				},
				{
					"internalType": "string[]",
					"name": "",
					"type": "string[]"
				},
				{
					"internalType": "string[]",
					"name": "",
					"type": "string[]"
				}
			],
			"stateMutability": "view",
			"type": "function"
		},
		{
			"inputs": [
				{
					"internalType": "address",
					"name": "",
					"type": "address"
				}
			],
			"name": "patients",
			"outputs": [
				{
					"internalType": "string",
					"name": "name",
					"type": "string"
				},
				{
					"internalType": "uint256",
					"name": "age",
					"type": "uint256"
				}
			],
			"stateMutability": "view",
			"type": "function"
		},
		{
			"inputs": [
				{
					"internalType": "string[]",
					"name": "_conditions",
					"type": "string[]"
				},
				{
					"internalType": "string[]",
					"name": "_allergies",
					"type": "string[]"
				},
				{
					"internalType": "string[]",
					"name": "_medications",
					"type": "string[]"
				},
				{
					"internalType": "string[]",
					"name": "_procedures",
					"type": "string[]"
				}
			],
			"name": "updatePatient",
			"outputs": [],
			"stateMutability": "nonpayable",
			"type": "function"
		}
	]
}